{
  "contractName": "ERC1155",
  "abi": [
    {
      "inputs": [
        {
          "internalType": "string",
          "name": "uri_",
          "type": "string"
        }
      ],
      "stateMutability": "nonpayable",
      "type": "constructor"
    },
    {
      "anonymous": false,
      "inputs": [
        {
          "indexed": true,
          "internalType": "address",
          "name": "account",
          "type": "address"
        },
        {
          "indexed": true,
          "internalType": "address",
          "name": "operator",
          "type": "address"
        },
        {
          "indexed": false,
          "internalType": "bool",
          "name": "approved",
          "type": "bool"
        }
      ],
      "name": "ApprovalForAll",
      "type": "event"
    },
    {
      "anonymous": false,
      "inputs": [
        {
          "indexed": true,
          "internalType": "address",
          "name": "operator",
          "type": "address"
        },
        {
          "indexed": true,
          "internalType": "address",
          "name": "from",
          "type": "address"
        },
        {
          "indexed": true,
          "internalType": "address",
          "name": "to",
          "type": "address"
        },
        {
          "indexed": false,
          "internalType": "uint256[]",
          "name": "ids",
          "type": "uint256[]"
        },
        {
          "indexed": false,
          "internalType": "uint256[]",
          "name": "values",
          "type": "uint256[]"
        }
      ],
      "name": "TransferBatch",
      "type": "event"
    },
    {
      "anonymous": false,
      "inputs": [
        {
          "indexed": true,
          "internalType": "address",
          "name": "operator",
          "type": "address"
        },
        {
          "indexed": true,
          "internalType": "address",
          "name": "from",
          "type": "address"
        },
        {
          "indexed": true,
          "internalType": "address",
          "name": "to",
          "type": "address"
        },
        {
          "indexed": false,
          "internalType": "uint256",
          "name": "id",
          "type": "uint256"
        },
        {
          "indexed": false,
          "internalType": "uint256",
          "name": "value",
          "type": "uint256"
        }
      ],
      "name": "TransferSingle",
      "type": "event"
    },
    {
      "anonymous": false,
      "inputs": [
        {
          "indexed": false,
          "internalType": "string",
          "name": "value",
          "type": "string"
        },
        {
          "indexed": true,
          "internalType": "uint256",
          "name": "id",
          "type": "uint256"
        }
      ],
      "name": "URI",
      "type": "event"
    },
    {
      "inputs": [
        {
          "internalType": "address",
          "name": "",
          "type": "address"
        },
        {
          "internalType": "address",
          "name": "",
          "type": "address"
        },
        {
          "internalType": "uint256[]",
          "name": "",
          "type": "uint256[]"
        },
        {
          "internalType": "uint256[]",
          "name": "",
          "type": "uint256[]"
        },
        {
          "internalType": "bytes",
          "name": "",
          "type": "bytes"
        }
      ],
      "name": "onERC1155BatchReceived",
      "outputs": [
        {
          "internalType": "bytes4",
          "name": "",
          "type": "bytes4"
        }
      ],
      "stateMutability": "nonpayable",
      "type": "function"
    },
    {
      "inputs": [
        {
          "internalType": "address",
          "name": "",
          "type": "address"
        },
        {
          "internalType": "address",
          "name": "",
          "type": "address"
        },
        {
          "internalType": "uint256",
          "name": "",
          "type": "uint256"
        },
        {
          "internalType": "uint256",
          "name": "",
          "type": "uint256"
        },
        {
          "internalType": "bytes",
          "name": "",
          "type": "bytes"
        }
      ],
      "name": "onERC1155Received",
      "outputs": [
        {
          "internalType": "bytes4",
          "name": "",
          "type": "bytes4"
        }
      ],
      "stateMutability": "nonpayable",
      "type": "function"
    },
    {
      "inputs": [
        {
          "internalType": "bytes4",
          "name": "interfaceId",
          "type": "bytes4"
        }
      ],
      "name": "supportsInterface",
      "outputs": [
        {
          "internalType": "bool",
          "name": "",
          "type": "bool"
        }
      ],
      "stateMutability": "view",
      "type": "function"
    },
    {
      "inputs": [
        {
          "internalType": "uint256",
          "name": "",
          "type": "uint256"
        }
      ],
      "name": "uri",
      "outputs": [
        {
          "internalType": "string",
          "name": "",
          "type": "string"
        }
      ],
      "stateMutability": "view",
      "type": "function"
    },
    {
      "inputs": [
        {
          "internalType": "address",
          "name": "account",
          "type": "address"
        },
        {
          "internalType": "uint256",
          "name": "id",
          "type": "uint256"
        }
      ],
      "name": "balanceOf",
      "outputs": [
        {
          "internalType": "uint256",
          "name": "",
          "type": "uint256"
        }
      ],
      "stateMutability": "view",
      "type": "function"
    },
    {
      "inputs": [
        {
          "internalType": "address[]",
          "name": "accounts",
          "type": "address[]"
        },
        {
          "internalType": "uint256[]",
          "name": "ids",
          "type": "uint256[]"
        }
      ],
      "name": "balanceOfBatch",
      "outputs": [
        {
          "internalType": "uint256[]",
          "name": "",
          "type": "uint256[]"
        }
      ],
      "stateMutability": "view",
      "type": "function"
    },
    {
      "inputs": [
        {
          "internalType": "address",
          "name": "operator",
          "type": "address"
        },
        {
          "internalType": "bool",
          "name": "approved",
          "type": "bool"
        }
      ],
      "name": "setApprovalForAll",
      "outputs": [],
      "stateMutability": "nonpayable",
      "type": "function"
    },
    {
      "inputs": [
        {
          "internalType": "address",
          "name": "account",
          "type": "address"
        },
        {
          "internalType": "address",
          "name": "operator",
          "type": "address"
        }
      ],
      "name": "isApprovedForAll",
      "outputs": [
        {
          "internalType": "bool",
          "name": "",
          "type": "bool"
        }
      ],
      "stateMutability": "view",
      "type": "function"
    },
    {
      "inputs": [
        {
          "internalType": "address",
          "name": "from",
          "type": "address"
        },
        {
          "internalType": "address",
          "name": "to",
          "type": "address"
        },
        {
          "internalType": "uint256",
          "name": "id",
          "type": "uint256"
        },
        {
          "internalType": "uint256",
          "name": "amount",
          "type": "uint256"
        },
        {
          "internalType": "bytes",
          "name": "data",
          "type": "bytes"
        }
      ],
      "name": "safeTransferFrom",
      "outputs": [],
      "stateMutability": "nonpayable",
      "type": "function"
    },
    {
      "inputs": [
        {
          "internalType": "address",
          "name": "from",
          "type": "address"
        },
        {
          "internalType": "address",
          "name": "to",
          "type": "address"
        },
        {
          "internalType": "uint256[]",
          "name": "ids",
          "type": "uint256[]"
        },
        {
          "internalType": "uint256[]",
          "name": "amounts",
          "type": "uint256[]"
        },
        {
          "internalType": "bytes",
          "name": "data",
          "type": "bytes"
        }
      ],
      "name": "safeBatchTransferFrom",
      "outputs": [],
      "stateMutability": "nonpayable",
      "type": "function"
    }
  ],
  "bytecode": "0x60806040523480156200001157600080fd5b506040516200265638038062002656833981810160405260208110156200003757600080fd5b81019080805160405193929190846401000000008211156200005857600080fd5b838201915060208201858111156200006f57600080fd5b82518660018202830111640100000000821117156200008d57600080fd5b8083526020830192505050908051906020019080838360005b83811015620000c3578082015181840152602081019050620000a6565b50505050905090810190601f168015620000f15780820380516001836020036101000a031916815260200191505b50604052505050620001106301ffc9a760e01b6200017960201b60201c565b6200013163bc197c8160e01b63f23a6e6160e01b186200017960201b60201c565b62000142816200028260201b60201c565b6200015a63d9b67a2660e01b6200017960201b60201c565b62000172630e89341c60e01b6200017960201b60201c565b5062000354565b63ffffffff60e01b817bffffffffffffffffffffffffffffffffffffffffffffffffffffffff1916141562000216576040517f08c379a000000000000000000000000000000000000000000000000000000000815260040180806020018281038252601c8152602001807f4552433136353a20696e76616c696420696e746572666163652069640000000081525060200191505060405180910390fd5b6001600080837bffffffffffffffffffffffffffffffffffffffffffffffffffffffff19167bffffffffffffffffffffffffffffffffffffffffffffffffffffffff1916815260200190815260200160002060006101000a81548160ff02191690831515021790555050565b80600390805190602001906200029a9291906200029e565b5050565b828054600181600116156101000203166002900490600052602060002090601f016020900481019282620002d6576000855562000322565b82601f10620002f157805160ff191683800117855562000322565b8280016001018555821562000322579182015b828111156200032157825182559160200191906001019062000304565b5b50905062000331919062000335565b5090565b5b808211156200035057600081600090555060010162000336565b5090565b6122f280620003646000396000f3fe608060405234801561001057600080fd5b506004361061009d5760003560e01c8063a22cb46511610066578063a22cb465146105d2578063bc197c8114610622578063e985e9c514610878578063f23a6e61146108f2578063f242432a14610a345761009d565b8062fdd58e146100a257806301ffc9a7146101045780630e89341c146101675780632eb2c2d61461020e5780634e1273f414610431575b600080fd5b6100ee600480360360408110156100b857600080fd5b81019080803573ffffffffffffffffffffffffffffffffffffffff16906020019092919080359060200190929190505050610b43565b6040518082815260200191505060405180910390f35b61014f6004803603602081101561011a57600080fd5b8101908080357bffffffffffffffffffffffffffffffffffffffffffffffffffffffff19169060200190929190505050610c23565b60405180821515815260200191505060405180910390f35b6101936004803603602081101561017d57600080fd5b8101908080359060200190929190505050610c8a565b6040518080602001828103825283818151815260200191508051906020019080838360005b838110156101d35780820151818401526020810190506101b8565b50505050905090810190601f1680156102005780820380516001836020036101000a031916815260200191505b509250505060405180910390f35b61042f600480360360a081101561022457600080fd5b81019080803573ffffffffffffffffffffffffffffffffffffffff169060200190929190803573ffffffffffffffffffffffffffffffffffffffff1690602001909291908035906020019064010000000081111561028157600080fd5b82018360208201111561029357600080fd5b803590602001918460208302840111640100000000831117156102b557600080fd5b919080806020026020016040519081016040528093929190818152602001838360200280828437600081840152601f19601f8201169050808301925050505050505091929192908035906020019064010000000081111561031557600080fd5b82018360208201111561032757600080fd5b8035906020019184602083028401116401000000008311171561034957600080fd5b919080806020026020016040519081016040528093929190818152602001838360200280828437600081840152601f19601f820116905080830192505050505050509192919290803590602001906401000000008111156103a957600080fd5b8201836020820111156103bb57600080fd5b803590602001918460018302840111640100000000831117156103dd57600080fd5b91908080601f016020809104026020016040519081016040528093929190818152602001838380828437600081840152601f19601f820116905080830192505050505050509192919290505050610d2e565b005b61057b6004803603604081101561044757600080fd5b810190808035906020019064010000000081111561046457600080fd5b82018360208201111561047657600080fd5b8035906020019184602083028401116401000000008311171561049857600080fd5b919080806020026020016040519081016040528093929190818152602001838360200280828437600081840152601f19601f820116905080830192505050505050509192919290803590602001906401000000008111156104f857600080fd5b82018360208201111561050a57600080fd5b8035906020019184602083028401116401000000008311171561052c57600080fd5b919080806020026020016040519081016040528093929190818152602001838360200280828437600081840152601f19601f8201169050808301925050505050505091929192905050506111b9565b6040518080602001828103825283818151815260200191508051906020019060200280838360005b838110156105be5780820151818401526020810190506105a3565b505050509050019250505060405180910390f35b610620600480360360408110156105e857600080fd5b81019080803573ffffffffffffffffffffffffffffffffffffffff1690602001909291908035151590602001909291905050506112cb565b005b610843600480360360a081101561063857600080fd5b81019080803573ffffffffffffffffffffffffffffffffffffffff169060200190929190803573ffffffffffffffffffffffffffffffffffffffff1690602001909291908035906020019064010000000081111561069557600080fd5b8201836020820111156106a757600080fd5b803590602001918460208302840111640100000000831117156106c957600080fd5b919080806020026020016040519081016040528093929190818152602001838360200280828437600081840152601f19601f8201169050808301925050505050505091929192908035906020019064010000000081111561072957600080fd5b82018360208201111561073b57600080fd5b8035906020019184602083028401116401000000008311171561075d57600080fd5b919080806020026020016040519081016040528093929190818152602001838360200280828437600081840152601f19601f820116905080830192505050505050509192919290803590602001906401000000008111156107bd57600080fd5b8201836020820111156107cf57600080fd5b803590602001918460018302840111640100000000831117156107f157600080fd5b91908080601f016020809104026020016040519081016040528093929190818152602001838380828437600081840152601f19601f820116905080830192505050505050509192919290505050611464565b60405180827bffffffffffffffffffffffffffffffffffffffffffffffffffffffff1916815260200191505060405180910390f35b6108da6004803603604081101561088e57600080fd5b81019080803573ffffffffffffffffffffffffffffffffffffffff169060200190929190803573ffffffffffffffffffffffffffffffffffffffff169060200190929190505050611479565b60405180821515815260200191505060405180910390f35b6109ff600480360360a081101561090857600080fd5b81019080803573ffffffffffffffffffffffffffffffffffffffff169060200190929190803573ffffffffffffffffffffffffffffffffffffffff16906020019092919080359060200190929190803590602001909291908035906020019064010000000081111561097957600080fd5b82018360208201111561098b57600080fd5b803590602001918460018302840111640100000000831117156109ad57600080fd5b91908080601f016020809104026020016040519081016040528093929190818152602001838380828437600081840152601f19601f82011690508083019250505050505050919291929050505061150d565b60405180827bffffffffffffffffffffffffffffffffffffffffffffffffffffffff1916815260200191505060405180910390f35b610b41600480360360a0811015610a4a57600080fd5b81019080803573ffffffffffffffffffffffffffffffffffffffff169060200190929190803573ffffffffffffffffffffffffffffffffffffffff169060200190929190803590602001909291908035906020019092919080359060200190640100000000811115610abb57600080fd5b820183602082011115610acd57600080fd5b80359060200191846001830284011164010000000083111715610aef57600080fd5b91908080601f016020809104026020016040519081016040528093929190818152602001838380828437600081840152601f19601f820116905080830192505050505050509192919290505050611522565b005b60008073ffffffffffffffffffffffffffffffffffffffff168373ffffffffffffffffffffffffffffffffffffffff161415610bca576040517f08c379a000000000000000000000000000000000000000000000000000000000815260040180806020018281038252602b815260200180612197602b913960400191505060405180910390fd5b6001600083815260200190815260200160002060008473ffffffffffffffffffffffffffffffffffffffff1673ffffffffffffffffffffffffffffffffffffffff16815260200190815260200160002054905092915050565b6000806000837bffffffffffffffffffffffffffffffffffffffffffffffffffffffff19167bffffffffffffffffffffffffffffffffffffffffffffffffffffffff1916815260200190815260200160002060009054906101000a900460ff169050919050565b606060038054600181600116156101000203166002900480601f016020809104026020016040519081016040528092919081815260200182805460018160011615610100020316600290048015610d225780601f10610cf757610100808354040283529160200191610d22565b820191906000526020600020905b815481529060010190602001808311610d0557829003601f168201915b50505050509050919050565b8151835114610d88576040517f08c379a00000000000000000000000000000000000000000000000000000000081526004018080602001828103825260288152602001806122956028913960400191505060405180910390fd5b600073ffffffffffffffffffffffffffffffffffffffff168473ffffffffffffffffffffffffffffffffffffffff161415610e0e576040517f08c379a00000000000000000000000000000000000000000000000000000000081526004018080602001828103825260258152602001806121c26025913960400191505060405180910390fd5b610e166117f4565b73ffffffffffffffffffffffffffffffffffffffff168573ffffffffffffffffffffffffffffffffffffffff161480610e5c5750610e5b85610e566117f4565b611479565b5b610eb1576040517f08c379a00000000000000000000000000000000000000000000000000000000081526004018080602001828103825260328152602001806121e76032913960400191505060405180910390fd5b6000610ebb6117f4565b9050610ecb8187878787876117fc565b60005b845181101561109c576000858281518110610ee557fe5b602002602001015190506000858381518110610efd57fe5b60200260200101519050610f84816040518060600160405280602a8152602001612219602a91396001600086815260200190815260200160002060008d73ffffffffffffffffffffffffffffffffffffffff1673ffffffffffffffffffffffffffffffffffffffff168152602001908152602001600020546118049092919063ffffffff16565b6001600084815260200190815260200160002060008b73ffffffffffffffffffffffffffffffffffffffff1673ffffffffffffffffffffffffffffffffffffffff1681526020019081526020016000208190555061103b816001600085815260200190815260200160002060008b73ffffffffffffffffffffffffffffffffffffffff1673ffffffffffffffffffffffffffffffffffffffff168152602001908152602001600020546118be90919063ffffffff16565b6001600084815260200190815260200160002060008a73ffffffffffffffffffffffffffffffffffffffff1673ffffffffffffffffffffffffffffffffffffffff168152602001908152602001600020819055505050806001019050610ece565b508473ffffffffffffffffffffffffffffffffffffffff168673ffffffffffffffffffffffffffffffffffffffff168273ffffffffffffffffffffffffffffffffffffffff167f4a39dc06d4c0dbc64b70af90fd698a233a518aa5d07e595d983b8c0526c8f7fb8787604051808060200180602001838103835285818151815260200191508051906020019060200280838360005b8381101561114c578082015181840152602081019050611131565b50505050905001838103825284818151815260200191508051906020019060200280838360005b8381101561118e578082015181840152602081019050611173565b5050505090500194505050505060405180910390a46111b1818787878787611946565b505050505050565b60608151835114611215576040517f08c379a000000000000000000000000000000000000000000000000000000000815260040180806020018281038252602981526020018061226c6029913960400191505060405180910390fd5b6000835167ffffffffffffffff8111801561122f57600080fd5b5060405190808252806020026020018201604052801561125e5781602001602082028036833780820191505090505b50905060005b84518110156112c05761129d85828151811061127c57fe5b602002602001015185838151811061129057fe5b6020026020010151610b43565b8282815181106112a957fe5b602002602001018181525050806001019050611264565b508091505092915050565b8173ffffffffffffffffffffffffffffffffffffffff166112ea6117f4565b73ffffffffffffffffffffffffffffffffffffffff161415611357576040517f08c379a00000000000000000000000000000000000000000000000000000000081526004018080602001828103825260298152602001806122436029913960400191505060405180910390fd5b80600260006113646117f4565b73ffffffffffffffffffffffffffffffffffffffff1673ffffffffffffffffffffffffffffffffffffffff16815260200190815260200160002060008473ffffffffffffffffffffffffffffffffffffffff1673ffffffffffffffffffffffffffffffffffffffff16815260200190815260200160002060006101000a81548160ff0219169083151502179055508173ffffffffffffffffffffffffffffffffffffffff166114116117f4565b73ffffffffffffffffffffffffffffffffffffffff167f17307eab39ab6107e8899845ad3d59bd9653f200f220920489ca2b5937696c318360405180821515815260200191505060405180910390a35050565b600063bc197c8160e01b905095945050505050565b6000600260008473ffffffffffffffffffffffffffffffffffffffff1673ffffffffffffffffffffffffffffffffffffffff16815260200190815260200160002060008373ffffffffffffffffffffffffffffffffffffffff1673ffffffffffffffffffffffffffffffffffffffff16815260200190815260200160002060009054906101000a900460ff16905092915050565b600063f23a6e6160e01b905095945050505050565b600073ffffffffffffffffffffffffffffffffffffffff168473ffffffffffffffffffffffffffffffffffffffff1614156115a8576040517f08c379a00000000000000000000000000000000000000000000000000000000081526004018080602001828103825260258152602001806121c26025913960400191505060405180910390fd5b60006115b26117f4565b90506115d28187876115c388611cd5565b6115cc88611cd5565b876117fc565b61164f836040518060600160405280602a8152602001612219602a91396001600088815260200190815260200160002060008a73ffffffffffffffffffffffffffffffffffffffff1673ffffffffffffffffffffffffffffffffffffffff168152602001908152602001600020546118049092919063ffffffff16565b6001600086815260200190815260200160002060008873ffffffffffffffffffffffffffffffffffffffff1673ffffffffffffffffffffffffffffffffffffffff16815260200190815260200160002081905550611706836001600087815260200190815260200160002060008873ffffffffffffffffffffffffffffffffffffffff1673ffffffffffffffffffffffffffffffffffffffff168152602001908152602001600020546118be90919063ffffffff16565b6001600086815260200190815260200160002060008773ffffffffffffffffffffffffffffffffffffffff1673ffffffffffffffffffffffffffffffffffffffff168152602001908152602001600020819055508473ffffffffffffffffffffffffffffffffffffffff168673ffffffffffffffffffffffffffffffffffffffff168273ffffffffffffffffffffffffffffffffffffffff167fc3d58168c5ae7397731d063d5bbf3d657854427343f4c083240f7aacaa2d0f628787604051808381526020018281526020019250505060405180910390a46117ec818787878787611d46565b505050505050565b600033905090565b505050505050565b60008383111582906118b1576040517f08c379a00000000000000000000000000000000000000000000000000000000081526004018080602001828103825283818151815260200191508051906020019080838360005b8381101561187657808201518184015260208101905061185b565b50505050905090810190601f1680156118a35780820380516001836020036101000a031916815260200191505b509250505060405180910390fd5b5082840390509392505050565b60008082840190508381101561193c576040517f08c379a000000000000000000000000000000000000000000000000000000000815260040180806020018281038252601b8152602001807f536166654d6174683a206164646974696f6e206f766572666c6f77000000000081525060200191505060405180910390fd5b8091505092915050565b6119658473ffffffffffffffffffffffffffffffffffffffff16612053565b15611ccd578373ffffffffffffffffffffffffffffffffffffffff1663bc197c8187878686866040518663ffffffff1660e01b8152600401808673ffffffffffffffffffffffffffffffffffffffff1681526020018573ffffffffffffffffffffffffffffffffffffffff168152602001806020018060200180602001848103845287818151815260200191508051906020019060200280838360005b83811015611a1d578082015181840152602081019050611a02565b50505050905001848103835286818151815260200191508051906020019060200280838360005b83811015611a5f578082015181840152602081019050611a44565b50505050905001848103825285818151815260200191508051906020019080838360005b83811015611a9e578082015181840152602081019050611a83565b50505050905090810190601f168015611acb5780820380516001836020036101000a031916815260200191505b5098505050505050505050602060405180830381600087803b158015611af057600080fd5b505af1925050508015611b2457506040513d6020811015611b1057600080fd5b810190808051906020019092919050505060015b611c2e57611b30612084565b80611b3b5750611bdd565b806040517f08c379a00000000000000000000000000000000000000000000000000000000081526004018080602001828103825283818151815260200191508051906020019080838360005b83811015611ba2578082015181840152602081019050611b87565b50505050905090810190601f168015611bcf5780820380516001836020036101000a031916815260200191505b509250505060405180910390fd5b6040517f08c379a000000000000000000000000000000000000000000000000000000000815260040180806020018281038252603481526020018061213b6034913960400191505060405180910390fd5b63bc197c8160e01b7bffffffffffffffffffffffffffffffffffffffffffffffffffffffff1916817bffffffffffffffffffffffffffffffffffffffffffffffffffffffff191614611ccb576040517f08c379a000000000000000000000000000000000000000000000000000000000815260040180806020018281038252602881526020018061216f6028913960400191505060405180910390fd5b505b505050505050565b60606000600167ffffffffffffffff81118015611cf157600080fd5b50604051908082528060200260200182016040528015611d205781602001602082028036833780820191505090505b5090508281600081518110611d3157fe5b60200260200101818152505080915050919050565b611d658473ffffffffffffffffffffffffffffffffffffffff16612053565b1561204b578373ffffffffffffffffffffffffffffffffffffffff1663f23a6e6187878686866040518663ffffffff1660e01b8152600401808673ffffffffffffffffffffffffffffffffffffffff1681526020018573ffffffffffffffffffffffffffffffffffffffff16815260200184815260200183815260200180602001828103825283818151815260200191508051906020019080838360005b83811015611e1e578082015181840152602081019050611e03565b50505050905090810190601f168015611e4b5780820380516001836020036101000a031916815260200191505b509650505050505050602060405180830381600087803b158015611e6e57600080fd5b505af1925050508015611ea257506040513d6020811015611e8e57600080fd5b810190808051906020019092919050505060015b611fac57611eae612084565b80611eb95750611f5b565b806040517f08c379a00000000000000000000000000000000000000000000000000000000081526004018080602001828103825283818151815260200191508051906020019080838360005b83811015611f20578082015181840152602081019050611f05565b50505050905090810190601f168015611f4d5780820380516001836020036101000a031916815260200191505b509250505060405180910390fd5b6040517f08c379a000000000000000000000000000000000000000000000000000000000815260040180806020018281038252603481526020018061213b6034913960400191505060405180910390fd5b63f23a6e6160e01b7bffffffffffffffffffffffffffffffffffffffffffffffffffffffff1916817bffffffffffffffffffffffffffffffffffffffffffffffffffffffff191614612049576040517f08c379a000000000000000000000000000000000000000000000000000000000815260040180806020018281038252602881526020018061216f6028913960400191505060405180910390fd5b505b505050505050565b600080823b905060008111915050919050565b6000601f19601f8301169050919050565b60008160e01c9050919050565b600060443d101561209457612137565b60046000803e6120a5600051612077565b6308c379a081146120b65750612137565b60405160043d036004823e80513d602482011167ffffffffffffffff821117156120e257505050612137565b808201805167ffffffffffffffff811115612101575050505050612137565b8060208301013d850181111561211c57505050505050612137565b61212582612066565b60208401016040528296505050505050505b9056fe455243313135353a207472616e7366657220746f206e6f6e2045524331313535526563656976657220696d706c656d656e746572455243313135353a204552433131353552656365697665722072656a656374656420746f6b656e73455243313135353a2062616c616e636520717565727920666f7220746865207a65726f2061646472657373455243313135353a207472616e7366657220746f20746865207a65726f2061646472657373455243313135353a207472616e736665722063616c6c6572206973206e6f74206f776e6572206e6f7220617070726f766564455243313135353a20696e73756666696369656e742062616c616e636520666f72207472616e73666572455243313135353a2073657474696e6720617070726f76616c2073746174757320666f722073656c66455243313135353a206163636f756e747320616e6420696473206c656e677468206d69736d61746368455243313135353a2069647320616e6420616d6f756e7473206c656e677468206d69736d61746368a2646970667358221220abf884e2f86aa39dc7f81d98a7ad6ea4a431e2152f3662f025ed431dd82a13fb64736f6c63430007060033",
  "immutableReferences": {},
  "source": "// SPDX-License-Identifier: MIT\n\npragma solidity >=0.6.0 <0.8.0;\n\n/**\n *\n * @dev Implementation of the basic standard multi-token.\n * See https://eips.ethereum.org/EIPS/eip-1155\n * Originally based on code by Enjin: https://github.com/enjin/erc-1155\n *\n * _Available since v3.1._\n */\n\n\n\n pragma solidity >=0.6.2 <0.8.0;\n\n /**\n  * @dev Collection of functions related to the address type\n  */\n library Address {\n     /**\n      * @dev Returns true if `account` is a contract.\n      *\n      * [IMPORTANT]\n      * ====\n      * It is unsafe to assume that an address for which this function returns\n      * false is an externally-owned account (EOA) and not a contract.\n      *\n      * Among others, `isContract` will return false for the following\n      * types of addresses:\n      *\n      *  - an externally-owned account\n      *  - a contract in construction\n      *  - an address where a contract will be created\n      *  - an address where a contract lived, but was destroyed\n      * ====\n      */\n     function isContract(address account) internal view returns (bool) {\n         // This method relies on extcodesize, which returns 0 for contracts in\n         // construction, since the code is only stored at the end of the\n         // constructor execution.\n\n         uint256 size;\n         // solhint-disable-next-line no-inline-assembly\n         assembly { size := extcodesize(account) }\n         return size > 0;\n     }\n\n     /**\n      * @dev Replacement for Solidity's `transfer`: sends `amount` wei to\n      * `recipient`, forwarding all available gas and reverting on errors.\n      *\n      * https://eips.ethereum.org/EIPS/eip-1884[EIP1884] increases the gas cost\n      * of certain opcodes, possibly making contracts go over the 2300 gas limit\n      * imposed by `transfer`, making them unable to receive funds via\n      * `transfer`. {sendValue} removes this limitation.\n      *\n      * https://diligence.consensys.net/posts/2019/09/stop-using-soliditys-transfer-now/[Learn more].\n      *\n      * IMPORTANT: because control is transferred to `recipient`, care must be\n      * taken to not create reentrancy vulnerabilities. Consider using\n      * {ReentrancyGuard} or the\n      * https://solidity.readthedocs.io/en/v0.5.11/security-considerations.html#use-the-checks-effects-interactions-pattern[checks-effects-interactions pattern].\n      */\n     function sendValue(address payable recipient, uint256 amount) internal {\n         require(address(this).balance >= amount, \"Address: insufficient balance\");\n\n         // solhint-disable-next-line avoid-low-level-calls, avoid-call-value\n         (bool success, ) = recipient.call{ value: amount }(\"\");\n         require(success, \"Address: unable to send value, recipient may have reverted\");\n     }\n\n     /**\n      * @dev Performs a Solidity function call using a low level `call`. A\n      * plain`call` is an unsafe replacement for a function call: use this\n      * function instead.\n      *\n      * If `target` reverts with a revert reason, it is bubbled up by this\n      * function (like regular Solidity function calls).\n      *\n      * Returns the raw returned data. To convert to the expected return value,\n      * use https://solidity.readthedocs.io/en/latest/units-and-global-variables.html?highlight=abi.decode#abi-encoding-and-decoding-functions[`abi.decode`].\n      *\n      * Requirements:\n      *\n      * - `target` must be a contract.\n      * - calling `target` with `data` must not revert.\n      *\n      * _Available since v3.1._\n      */\n     function functionCall(address target, bytes memory data) internal returns (bytes memory) {\n       return functionCall(target, data, \"Address: low-level call failed\");\n     }\n\n     /**\n      * @dev Same as {xref-Address-functionCall-address-bytes-}[`functionCall`], but with\n      * `errorMessage` as a fallback revert reason when `target` reverts.\n      *\n      * _Available since v3.1._\n      */\n     function functionCall(address target, bytes memory data, string memory errorMessage) internal returns (bytes memory) {\n         return functionCallWithValue(target, data, 0, errorMessage);\n     }\n\n     /**\n      * @dev Same as {xref-Address-functionCall-address-bytes-}[`functionCall`],\n      * but also transferring `value` wei to `target`.\n      *\n      * Requirements:\n      *\n      * - the calling contract must have an ETH balance of at least `value`.\n      * - the called Solidity function must be `payable`.\n      *\n      * _Available since v3.1._\n      */\n     function functionCallWithValue(address target, bytes memory data, uint256 value) internal returns (bytes memory) {\n         return functionCallWithValue(target, data, value, \"Address: low-level call with value failed\");\n     }\n\n     /**\n      * @dev Same as {xref-Address-functionCallWithValue-address-bytes-uint256-}[`functionCallWithValue`], but\n      * with `errorMessage` as a fallback revert reason when `target` reverts.\n      *\n      * _Available since v3.1._\n      */\n     function functionCallWithValue(address target, bytes memory data, uint256 value, string memory errorMessage) internal returns (bytes memory) {\n         require(address(this).balance >= value, \"Address: insufficient balance for call\");\n         require(isContract(target), \"Address: call to non-contract\");\n\n         // solhint-disable-next-line avoid-low-level-calls\n         (bool success, bytes memory returndata) = target.call{ value: value }(data);\n         return _verifyCallResult(success, returndata, errorMessage);\n     }\n\n     /**\n      * @dev Same as {xref-Address-functionCall-address-bytes-}[`functionCall`],\n      * but performing a static call.\n      *\n      * _Available since v3.3._\n      */\n     function functionStaticCall(address target, bytes memory data) internal view returns (bytes memory) {\n         return functionStaticCall(target, data, \"Address: low-level static call failed\");\n     }\n\n     /**\n      * @dev Same as {xref-Address-functionCall-address-bytes-string-}[`functionCall`],\n      * but performing a static call.\n      *\n      * _Available since v3.3._\n      */\n     function functionStaticCall(address target, bytes memory data, string memory errorMessage) internal view returns (bytes memory) {\n         require(isContract(target), \"Address: static call to non-contract\");\n\n         // solhint-disable-next-line avoid-low-level-calls\n         (bool success, bytes memory returndata) = target.staticcall(data);\n         return _verifyCallResult(success, returndata, errorMessage);\n     }\n\n     /**\n      * @dev Same as {xref-Address-functionCall-address-bytes-}[`functionCall`],\n      * but performing a delegate call.\n      *\n      * _Available since v3.4._\n      */\n     function functionDelegateCall(address target, bytes memory data) internal returns (bytes memory) {\n         return functionDelegateCall(target, data, \"Address: low-level delegate call failed\");\n     }\n\n     /**\n      * @dev Same as {xref-Address-functionCall-address-bytes-string-}[`functionCall`],\n      * but performing a delegate call.\n      *\n      * _Available since v3.4._\n      */\n     function functionDelegateCall(address target, bytes memory data, string memory errorMessage) internal returns (bytes memory) {\n         require(isContract(target), \"Address: delegate call to non-contract\");\n\n         // solhint-disable-next-line avoid-low-level-calls\n         (bool success, bytes memory returndata) = target.delegatecall(data);\n         return _verifyCallResult(success, returndata, errorMessage);\n     }\n\n     function _verifyCallResult(bool success, bytes memory returndata, string memory errorMessage) private pure returns(bytes memory) {\n         if (success) {\n             return returndata;\n         } else {\n             // Look for revert reason and bubble it up if present\n             if (returndata.length > 0) {\n                 // The easiest way to bubble the revert reason is using memory via assembly\n\n                 // solhint-disable-next-line no-inline-assembly\n                 assembly {\n                     let returndata_size := mload(returndata)\n                     revert(add(32, returndata), returndata_size)\n                 }\n             } else {\n                 revert(errorMessage);\n             }\n         }\n     }\n }\n\n pragma solidity >=0.6.0 <0.8.0;\n\n /*\n  * @dev Provides information about the current execution context, including the\n  * sender of the transaction and its data. While these are generally available\n  * via msg.sender and msg.data, they should not be accessed in such a direct\n  * manner, since when dealing with GSN meta-transactions the account sending and\n  * paying for execution may not be the actual sender (as far as an application\n  * is concerned).\n  *\n  * This contract is only required for intermediate, library-like contracts.\n  */\n abstract contract Context {\n     function _msgSender() internal view virtual returns (address payable) {\n         return msg.sender;\n     }\n\n     function _msgData() internal view virtual returns (bytes memory) {\n         this; // silence state mutability warning without generating bytecode - see https://github.com/ethereum/solidity/issues/2691\n         return msg.data;\n     }\n }\n pragma solidity >=0.6.0 <0.8.0;\n\n /**\n  * @dev Interface of the ERC165 standard, as defined in the\n  * https://eips.ethereum.org/EIPS/eip-165[EIP].\n  *\n  * Implementers can declare support of contract interfaces, which can then be\n  * queried by others ({ERC165Checker}).\n  *\n  * For an implementation, see {ERC165}.\n  */\n interface IERC165 {\n     /**\n      * @dev Returns true if this contract implements the interface defined by\n      * `interfaceId`. See the corresponding\n      * https://eips.ethereum.org/EIPS/eip-165#how-interfaces-are-identified[EIP section]\n      * to learn more about how these ids are created.\n      *\n      * This function call must use less than 30 000 gas.\n      */\n     function supportsInterface(bytes4 interfaceId) external view returns (bool);\n }\n pragma solidity >=0.6.2 <0.8.0;\n\n /**\n  * @dev Required interface of an ERC1155 compliant contract, as defined in the\n  * https://eips.ethereum.org/EIPS/eip-1155[EIP].\n  *\n  * _Available since v3.1._\n  */\n interface IERC1155 is IERC165 {\n     /**\n      * @dev Emitted when `value` tokens of token type `id` are transferred from `from` to `to` by `operator`.\n      */\n     event TransferSingle(address indexed operator, address indexed from, address indexed to, uint256 id, uint256 value);\n\n     /**\n      * @dev Equivalent to multiple {TransferSingle} events, where `operator`, `from` and `to` are the same for all\n      * transfers.\n      */\n     event TransferBatch(address indexed operator, address indexed from, address indexed to, uint256[] ids, uint256[] values);\n\n     /**\n      * @dev Emitted when `account` grants or revokes permission to `operator` to transfer their tokens, according to\n      * `approved`.\n      */\n     event ApprovalForAll(address indexed account, address indexed operator, bool approved);\n\n     /**\n      * @dev Emitted when the URI for token type `id` changes to `value`, if it is a non-programmatic URI.\n      *\n      * If an {URI} event was emitted for `id`, the standard\n      * https://eips.ethereum.org/EIPS/eip-1155#metadata-extensions[guarantees] that `value` will equal the value\n      * returned by {IERC1155MetadataURI-uri}.\n      */\n     event URI(string value, uint256 indexed id);\n\n     /**\n      * @dev Returns the amount of tokens of token type `id` owned by `account`.\n      *\n      * Requirements:\n      *\n      * - `account` cannot be the zero address.\n      */\n     function balanceOf(address account, uint256 id) external view returns (uint256);\n\n     /**\n      * @dev xref:ROOT:erc1155.adoc#batch-operations[Batched] version of {balanceOf}.\n      *\n      * Requirements:\n      *\n      * - `accounts` and `ids` must have the same length.\n      */\n     function balanceOfBatch(address[] calldata accounts, uint256[] calldata ids) external view returns (uint256[] memory);\n\n     /**\n      * @dev Grants or revokes permission to `operator` to transfer the caller's tokens, according to `approved`,\n      *\n      * Emits an {ApprovalForAll} event.\n      *\n      * Requirements:\n      *\n      * - `operator` cannot be the caller.\n      */\n     function setApprovalForAll(address operator, bool approved) external;\n\n     /**\n      * @dev Returns true if `operator` is approved to transfer ``account``'s tokens.\n      *\n      * See {setApprovalForAll}.\n      */\n     function isApprovedForAll(address account, address operator) external view returns (bool);\n\n     /**\n      * @dev Transfers `amount` tokens of token type `id` from `from` to `to`.\n      *\n      * Emits a {TransferSingle} event.\n      *\n      * Requirements:\n      *\n      * - `to` cannot be the zero address.\n      * - If the caller is not `from`, it must be have been approved to spend ``from``'s tokens via {setApprovalForAll}.\n      * - `from` must have a balance of tokens of type `id` of at least `amount`.\n      * - If `to` refers to a smart contract, it must implement {IERC1155Receiver-onERC1155Received} and return the\n      * acceptance magic value.\n      */\n     function safeTransferFrom(address from, address to, uint256 id, uint256 amount, bytes calldata data) external;\n\n     /**\n      * @dev xref:ROOT:erc1155.adoc#batch-operations[Batched] version of {safeTransferFrom}.\n      *\n      * Emits a {TransferBatch} event.\n      *\n      * Requirements:\n      *\n      * - `ids` and `amounts` must have the same length.\n      * - If `to` refers to a smart contract, it must implement {IERC1155Receiver-onERC1155BatchReceived} and return the\n      * acceptance magic value.\n      */\n     function safeBatchTransferFrom(address from, address to, uint256[] calldata ids, uint256[] calldata amounts, bytes calldata data) external;\n }\n pragma solidity >=0.6.2 <0.8.0;\n\n /**\n  * @dev Interface of the optional ERC1155MetadataExtension interface, as defined\n  * in the https://eips.ethereum.org/EIPS/eip-1155#metadata-extensions[EIP].\n  *\n  * _Available since v3.1._\n  */\n interface IERC1155MetadataURI is IERC1155 {\n     /**\n      * @dev Returns the URI for token type `id`.\n      *\n      * If the `\\{id\\}` substring is present in the URI, it must be replaced by\n      * clients with the actual token type ID.\n      */\n     function uri(uint256 id) external view returns (string memory);\n }\n\n pragma solidity >=0.6.0 <0.8.0;\n\n\n\n /**\n  * @dev Implementation of the {IERC165} interface.\n  *\n  * Contracts may inherit from this and call {_registerInterface} to declare\n  * their support of an interface.\n  */\n abstract contract ERC165 is IERC165 {\n     /*\n      * bytes4(keccak256('supportsInterface(bytes4)')) == 0x01ffc9a7\n      */\n     bytes4 private constant _INTERFACE_ID_ERC165 = 0x01ffc9a7;\n\n     /**\n      * @dev Mapping of interface ids to whether or not it's supported.\n      */\n     mapping(bytes4 => bool) private _supportedInterfaces;\n\n     constructor () internal {\n         // Derived contracts need only register support for their own interfaces,\n         // we register support for ERC165 itself here\n         _registerInterface(_INTERFACE_ID_ERC165);\n     }\n\n     /**\n      * @dev See {IERC165-supportsInterface}.\n      *\n      * Time complexity O(1), guaranteed to always use less than 30 000 gas.\n      */\n     function supportsInterface(bytes4 interfaceId) public view virtual override returns (bool) {\n         return _supportedInterfaces[interfaceId];\n     }\n\n     /**\n      * @dev Registers the contract as an implementer of the interface defined by\n      * `interfaceId`. Support of the actual ERC165 interface is automatic and\n      * registering its interface id is not required.\n      *\n      * See {IERC165-supportsInterface}.\n      *\n      * Requirements:\n      *\n      * - `interfaceId` cannot be the ERC165 invalid interface (`0xffffffff`).\n      */\n     function _registerInterface(bytes4 interfaceId) internal virtual {\n         require(interfaceId != 0xffffffff, \"ERC165: invalid interface id\");\n         _supportedInterfaces[interfaceId] = true;\n     }\n }\n\n pragma solidity >=0.6.0 <0.8.0;\n\n\n\n /**\n  * _Available since v3.1._\n  */\n interface IERC1155Receiver is IERC165 {\n\n     /**\n         @dev Handles the receipt of a single ERC1155 token type. This function is\n         called at the end of a `safeTransferFrom` after the balance has been updated.\n         To accept the transfer, this must return\n         `bytes4(keccak256(\"onERC1155Received(address,address,uint256,uint256,bytes)\"))`\n         (i.e. 0xf23a6e61, or its own function selector).\n         @param operator The address which initiated the transfer (i.e. msg.sender)\n         @param from The address which previously owned the token\n         @param id The ID of the token being transferred\n         @param value The amount of tokens being transferred\n         @param data Additional data with no specified format\n         @return `bytes4(keccak256(\"onERC1155Received(address,address,uint256,uint256,bytes)\"))` if transfer is allowed\n     */\n     function onERC1155Received(\n         address operator,\n         address from,\n         uint256 id,\n         uint256 value,\n         bytes calldata data\n     )\n         external\n         returns(bytes4);\n\n     /**\n         @dev Handles the receipt of a multiple ERC1155 token types. This function\n         is called at the end of a `safeBatchTransferFrom` after the balances have\n         been updated. To accept the transfer(s), this must return\n         `bytes4(keccak256(\"onERC1155BatchReceived(address,address,uint256[],uint256[],bytes)\"))`\n         (i.e. 0xbc197c81, or its own function selector).\n         @param operator The address which initiated the batch transfer (i.e. msg.sender)\n         @param from The address which previously owned the token\n         @param ids An array containing ids of each token being transferred (order and length must match values array)\n         @param values An array containing amounts of each token being transferred (order and length must match ids array)\n         @param data Additional data with no specified format\n         @return `bytes4(keccak256(\"onERC1155BatchReceived(address,address,uint256[],uint256[],bytes)\"))` if transfer is allowed\n     */\n     function onERC1155BatchReceived(\n         address operator,\n         address from,\n         uint256[] calldata ids,\n         uint256[] calldata values,\n         bytes calldata data\n     )\n         external\n         returns(bytes4);\n }\n\n pragma solidity >=0.6.0 <0.8.0;\n\n\n /**\n  * @dev _Available since v3.1._\n  */\n abstract contract ERC1155Receiver is ERC165, IERC1155Receiver {\n     constructor() internal {\n         _registerInterface(\n             ERC1155Receiver(address(0)).onERC1155Received.selector ^\n             ERC1155Receiver(address(0)).onERC1155BatchReceived.selector\n         );\n     }\n }\n pragma solidity >=0.6.0 <0.8.0;\n\n\n\n /**\n  * @dev _Available since v3.1._\n  */\n contract ERC1155Holder is ERC1155Receiver {\n     function onERC1155Received(address, address, uint256, uint256, bytes memory) public virtual override returns (bytes4) {\n         return this.onERC1155Received.selector;\n     }\n\n     function onERC1155BatchReceived(address, address, uint256[] memory, uint256[] memory, bytes memory) public virtual override returns (bytes4) {\n         return this.onERC1155BatchReceived.selector;\n     }\n }\n pragma solidity >=0.6.0 <0.8.0;\n\n /**\n  * @dev Wrappers over Solidity's arithmetic operations with added overflow\n  * checks.\n  *\n  * Arithmetic operations in Solidity wrap on overflow. This can easily result\n  * in bugs, because programmers usually assume that an overflow raises an\n  * error, which is the standard behavior in high level programming languages.\n  * `SafeMath` restores this intuition by reverting the transaction when an\n  * operation overflows.\n  *\n  * Using this library instead of the unchecked operations eliminates an entire\n  * class of bugs, so it's recommended to use it always.\n  */\n library SafeMath {\n     /**\n      * @dev Returns the addition of two unsigned integers, with an overflow flag.\n      *\n      * _Available since v3.4._\n      */\n     function tryAdd(uint256 a, uint256 b) internal pure returns (bool, uint256) {\n         uint256 c = a + b;\n         if (c < a) return (false, 0);\n         return (true, c);\n     }\n\n     /**\n      * @dev Returns the substraction of two unsigned integers, with an overflow flag.\n      *\n      * _Available since v3.4._\n      */\n     function trySub(uint256 a, uint256 b) internal pure returns (bool, uint256) {\n         if (b > a) return (false, 0);\n         return (true, a - b);\n     }\n\n     /**\n      * @dev Returns the multiplication of two unsigned integers, with an overflow flag.\n      *\n      * _Available since v3.4._\n      */\n     function tryMul(uint256 a, uint256 b) internal pure returns (bool, uint256) {\n         // Gas optimization: this is cheaper than requiring 'a' not being zero, but the\n         // benefit is lost if 'b' is also tested.\n         // See: https://github.com/OpenZeppelin/openzeppelin-contracts/pull/522\n         if (a == 0) return (true, 0);\n         uint256 c = a * b;\n         if (c / a != b) return (false, 0);\n         return (true, c);\n     }\n\n     /**\n      * @dev Returns the division of two unsigned integers, with a division by zero flag.\n      *\n      * _Available since v3.4._\n      */\n     function tryDiv(uint256 a, uint256 b) internal pure returns (bool, uint256) {\n         if (b == 0) return (false, 0);\n         return (true, a / b);\n     }\n\n     /**\n      * @dev Returns the remainder of dividing two unsigned integers, with a division by zero flag.\n      *\n      * _Available since v3.4._\n      */\n     function tryMod(uint256 a, uint256 b) internal pure returns (bool, uint256) {\n         if (b == 0) return (false, 0);\n         return (true, a % b);\n     }\n\n     /**\n      * @dev Returns the addition of two unsigned integers, reverting on\n      * overflow.\n      *\n      * Counterpart to Solidity's `+` operator.\n      *\n      * Requirements:\n      *\n      * - Addition cannot overflow.\n      */\n     function add(uint256 a, uint256 b) internal pure returns (uint256) {\n         uint256 c = a + b;\n         require(c >= a, \"SafeMath: addition overflow\");\n         return c;\n     }\n\n     /**\n      * @dev Returns the subtraction of two unsigned integers, reverting on\n      * overflow (when the result is negative).\n      *\n      * Counterpart to Solidity's `-` operator.\n      *\n      * Requirements:\n      *\n      * - Subtraction cannot overflow.\n      */\n     function sub(uint256 a, uint256 b) internal pure returns (uint256) {\n         require(b <= a, \"SafeMath: subtraction overflow\");\n         return a - b;\n     }\n\n     /**\n      * @dev Returns the multiplication of two unsigned integers, reverting on\n      * overflow.\n      *\n      * Counterpart to Solidity's `*` operator.\n      *\n      * Requirements:\n      *\n      * - Multiplication cannot overflow.\n      */\n     function mul(uint256 a, uint256 b) internal pure returns (uint256) {\n         if (a == 0) return 0;\n         uint256 c = a * b;\n         require(c / a == b, \"SafeMath: multiplication overflow\");\n         return c;\n     }\n\n     /**\n      * @dev Returns the integer division of two unsigned integers, reverting on\n      * division by zero. The result is rounded towards zero.\n      *\n      * Counterpart to Solidity's `/` operator. Note: this function uses a\n      * `revert` opcode (which leaves remaining gas untouched) while Solidity\n      * uses an invalid opcode to revert (consuming all remaining gas).\n      *\n      * Requirements:\n      *\n      * - The divisor cannot be zero.\n      */\n     function div(uint256 a, uint256 b) internal pure returns (uint256) {\n         require(b > 0, \"SafeMath: division by zero\");\n         return a / b;\n     }\n\n     /**\n      * @dev Returns the remainder of dividing two unsigned integers. (unsigned integer modulo),\n      * reverting when dividing by zero.\n      *\n      * Counterpart to Solidity's `%` operator. This function uses a `revert`\n      * opcode (which leaves remaining gas untouched) while Solidity uses an\n      * invalid opcode to revert (consuming all remaining gas).\n      *\n      * Requirements:\n      *\n      * - The divisor cannot be zero.\n      */\n     function mod(uint256 a, uint256 b) internal pure returns (uint256) {\n         require(b > 0, \"SafeMath: modulo by zero\");\n         return a % b;\n     }\n\n     /**\n      * @dev Returns the subtraction of two unsigned integers, reverting with custom message on\n      * overflow (when the result is negative).\n      *\n      * CAUTION: This function is deprecated because it requires allocating memory for the error\n      * message unnecessarily. For custom revert reasons use {trySub}.\n      *\n      * Counterpart to Solidity's `-` operator.\n      *\n      * Requirements:\n      *\n      * - Subtraction cannot overflow.\n      */\n     function sub(uint256 a, uint256 b, string memory errorMessage) internal pure returns (uint256) {\n         require(b <= a, errorMessage);\n         return a - b;\n     }\n\n     /**\n      * @dev Returns the integer division of two unsigned integers, reverting with custom message on\n      * division by zero. The result is rounded towards zero.\n      *\n      * CAUTION: This function is deprecated because it requires allocating memory for the error\n      * message unnecessarily. For custom revert reasons use {tryDiv}.\n      *\n      * Counterpart to Solidity's `/` operator. Note: this function uses a\n      * `revert` opcode (which leaves remaining gas untouched) while Solidity\n      * uses an invalid opcode to revert (consuming all remaining gas).\n      *\n      * Requirements:\n      *\n      * - The divisor cannot be zero.\n      */\n     function div(uint256 a, uint256 b, string memory errorMessage) internal pure returns (uint256) {\n         require(b > 0, errorMessage);\n         return a / b;\n     }\n\n     /**\n      * @dev Returns the remainder of dividing two unsigned integers. (unsigned integer modulo),\n      * reverting with custom message when dividing by zero.\n      *\n      * CAUTION: This function is deprecated because it requires allocating memory for the error\n      * message unnecessarily. For custom revert reasons use {tryMod}.\n      *\n      * Counterpart to Solidity's `%` operator. This function uses a `revert`\n      * opcode (which leaves remaining gas untouched) while Solidity uses an\n      * invalid opcode to revert (consuming all remaining gas).\n      *\n      * Requirements:\n      *\n      * - The divisor cannot be zero.\n      */\n     function mod(uint256 a, uint256 b, string memory errorMessage) internal pure returns (uint256) {\n         require(b > 0, errorMessage);\n         return a % b;\n     }\n }\npragma solidity >=0.6.0 <0.8.0;\n\n\n /**\n  * @dev Contract module which provides a basic access control mechanism, where\n  * there is an account (an owner) that can be granted exclusive access to\n  * specific functions.\n  *\n  * By default, the owner account will be the one that deploys the contract. This\n  * can later be changed with {transferOwnership}.\n  *\n  * This module is used through inheritance. It will make available the modifier\n  * `onlyOwner`, which can be applied to your functions to restrict their use to\n  * the owner.\n  */\n abstract contract Ownable is Context {\n     address private _owner;\n\n     event OwnershipTransferred(address indexed previousOwner, address indexed newOwner);\n\n     /**\n      * @dev Initializes the contract setting the deployer as the initial owner.\n      */\n     constructor () internal {\n         address msgSender = _msgSender();\n         _owner = msgSender;\n         emit OwnershipTransferred(address(0), msgSender);\n     }\n\n     /**\n      * @dev Returns the address of the current owner.\n      */\n     function owner() public view virtual returns (address) {\n         return _owner;\n     }\n\n     /**\n      * @dev Throws if called by any account other than the owner.\n      */\n     modifier onlyOwner() {\n         require(owner() == _msgSender(), \"Ownable: caller is not the owner\");\n         _;\n     }\n\n     /**\n      * @dev Leaves the contract without owner. It will not be possible to call\n      * `onlyOwner` functions anymore. Can only be called by the current owner.\n      *\n      * NOTE: Renouncing ownership will leave the contract without an owner,\n      * thereby removing any functionality that is only available to the owner.\n      */\n     function renounceOwnership() public virtual onlyOwner {\n         emit OwnershipTransferred(_owner, address(0));\n         _owner = address(0);\n     }\n\n     /**\n      * @dev Transfers ownership of the contract to a new account (`newOwner`).\n      * Can only be called by the current owner.\n      */\n     function transferOwnership(address newOwner) public virtual onlyOwner {\n         require(newOwner != address(0), \"Ownable: new owner is the zero address\");\n         emit OwnershipTransferred(_owner, newOwner);\n         _owner = newOwner;\n     }\n }\n\n\n\n\n\n\ncontract ERC1155 is Context, ERC165, IERC1155, IERC1155MetadataURI, IERC1155Receiver, ERC1155Holder {\n    using SafeMath for uint256;\n    using Address for address;\n\n    // Mapping from token ID to account balances\n    mapping (uint256 => mapping(address => uint256)) private _balances;\n\n    // Mapping from account to operator approvals\n    mapping (address => mapping(address => bool)) private _operatorApprovals;\n\n    // Used as the URI for all token types by relying on ID substitution, e.g. https://token-cdn-domain/{id}.json\n    string private _uri;\n\n    /*\n     *     bytes4(keccak256('balanceOf(address,uint256)')) == 0x00fdd58e\n     *     bytes4(keccak256('balanceOfBatch(address[],uint256[])')) == 0x4e1273f4\n     *     bytes4(keccak256('setApprovalForAll(address,bool)')) == 0xa22cb465\n     *     bytes4(keccak256('isApprovedForAll(address,address)')) == 0xe985e9c5\n     *     bytes4(keccak256('safeTransferFrom(address,address,uint256,uint256,bytes)')) == 0xf242432a\n     *     bytes4(keccak256('safeBatchTransferFrom(address,address,uint256[],uint256[],bytes)')) == 0x2eb2c2d6\n     *\n     *     => 0x00fdd58e ^ 0x4e1273f4 ^ 0xa22cb465 ^\n     *        0xe985e9c5 ^ 0xf242432a ^ 0x2eb2c2d6 == 0xd9b67a26\n     */\n    bytes4 private constant _INTERFACE_ID_ERC1155 = 0xd9b67a26;\n\n    /*\n     *     bytes4(keccak256('uri(uint256)')) == 0x0e89341c\n     */\n    bytes4 private constant _INTERFACE_ID_ERC1155_METADATA_URI = 0x0e89341c;\n\n    /**\n     * @dev See {_setURI}.\n     */\n    constructor (string memory uri_) public {\n        _setURI(uri_);\n\n        // register the supported interfaces to conform to ERC1155 via ERC165\n        _registerInterface(_INTERFACE_ID_ERC1155);\n\n        // register the supported interfaces to conform to ERC1155MetadataURI via ERC165\n        _registerInterface(_INTERFACE_ID_ERC1155_METADATA_URI);\n    }\n\n    /**\n     * @dev See {IERC1155MetadataURI-uri}.\n     *\n     * This implementation returns the same URI for *all* token types. It relies\n     * on the token type ID substitution mechanism\n     * https://eips.ethereum.org/EIPS/eip-1155#metadata[defined in the EIP].\n     *\n     * Clients calling this function must replace the `\\{id\\}` substring with the\n     * actual token type ID.\n     */\n    function uri(uint256) external view virtual override returns (string memory) {\n        return _uri;\n    }\n\n    /**\n     * @dev See {IERC1155-balanceOf}.\n     *\n     * Requirements:\n     *\n     * - `account` cannot be the zero address.\n     */\n    function balanceOf(address account, uint256 id) public view virtual override returns (uint256) {\n        require(account != address(0), \"ERC1155: balance query for the zero address\");\n        return _balances[id][account];\n    }\n\n    /**\n     * @dev See {IERC1155-balanceOfBatch}.\n     *\n     * Requirements:\n     *\n     * - `accounts` and `ids` must have the same length.\n     */\n    function balanceOfBatch(\n        address[] memory accounts,\n        uint256[] memory ids\n    )\n        public\n        view\n        virtual\n        override\n        returns (uint256[] memory)\n    {\n        require(accounts.length == ids.length, \"ERC1155: accounts and ids length mismatch\");\n\n        uint256[] memory batchBalances = new uint256[](accounts.length);\n\n        for (uint256 i = 0; i < accounts.length; ++i) {\n            batchBalances[i] = balanceOf(accounts[i], ids[i]);\n        }\n\n        return batchBalances;\n    }\n\n    /**\n     * @dev See {IERC1155-setApprovalForAll}.\n     */\n    function setApprovalForAll(address operator, bool approved) public virtual override {\n        require(_msgSender() != operator, \"ERC1155: setting approval status for self\");\n\n        _operatorApprovals[_msgSender()][operator] = approved;\n        emit ApprovalForAll(_msgSender(), operator, approved);\n    }\n\n    /**\n     * @dev See {IERC1155-isApprovedForAll}.\n     */\n    function isApprovedForAll(address account, address operator) public view virtual override returns (bool) {\n        return _operatorApprovals[account][operator];\n    }\n\n    /**\n     * @dev See {IERC1155-safeTransferFrom}.\n     */\n    function safeTransferFrom(\n        address from,\n        address to,\n        uint256 id,\n        uint256 amount,\n        bytes memory data\n    )\n        public\n        virtual\n        override\n    {\n        require(to != address(0), \"ERC1155: transfer to the zero address\");\n\n\n        address operator = _msgSender();\n\n        _beforeTokenTransfer(operator, from, to, _asSingletonArray(id), _asSingletonArray(amount), data);\n\n        _balances[id][from] = _balances[id][from].sub(amount, \"ERC1155: insufficient balance for transfer\");\n        _balances[id][to] = _balances[id][to].add(amount);\n\n        emit TransferSingle(operator, from, to, id, amount);\n\n        _doSafeTransferAcceptanceCheck(operator, from, to, id, amount, data);\n    }\n\n    /**\n     * @dev See {IERC1155-safeBatchTransferFrom}.\n     */\n    function safeBatchTransferFrom(\n        address from,\n        address to,\n        uint256[] memory ids,\n        uint256[] memory amounts,\n        bytes memory data\n    )\n        public\n        virtual\n        override\n    {\n        require(ids.length == amounts.length, \"ERC1155: ids and amounts length mismatch\");\n        require(to != address(0), \"ERC1155: transfer to the zero address\");\n        require(\n            from == _msgSender() || isApprovedForAll(from, _msgSender()),\n            \"ERC1155: transfer caller is not owner nor approved\"\n        );\n\n        address operator = _msgSender();\n\n        _beforeTokenTransfer(operator, from, to, ids, amounts, data);\n\n        for (uint256 i = 0; i < ids.length; ++i) {\n            uint256 id = ids[i];\n            uint256 amount = amounts[i];\n\n            _balances[id][from] = _balances[id][from].sub(\n                amount,\n                \"ERC1155: insufficient balance for transfer\"\n            );\n            _balances[id][to] = _balances[id][to].add(amount);\n        }\n\n        emit TransferBatch(operator, from, to, ids, amounts);\n\n        _doSafeBatchTransferAcceptanceCheck(operator, from, to, ids, amounts, data);\n    }\n\n    /**\n     * @dev Sets a new URI for all token types, by relying on the token type ID\n     * substitution mechanism\n     * https://eips.ethereum.org/EIPS/eip-1155#metadata[defined in the EIP].\n     *\n     * By this mechanism, any occurrence of the `\\{id\\}` substring in either the\n     * URI or any of the amounts in the JSON file at said URI will be replaced by\n     * clients with the token type ID.\n     *\n     * For example, the `https://token-cdn-domain/\\{id\\}.json` URI would be\n     * interpreted by clients as\n     * `https://token-cdn-domain/000000000000000000000000000000000000000000000000000000000004cce0.json`\n     * for token type ID 0x4cce0.\n     *\n     * See {uri}.\n     *\n     * Because these URIs cannot be meaningfully represented by the {URI} event,\n     * this function emits no events.\n     */\n    function _setURI(string memory newuri) internal virtual {\n        _uri = newuri;\n    }\n\n    /**\n     * @dev Creates `amount` tokens of token type `id`, and assigns them to `account`.\n     *\n     * Emits a {TransferSingle} event.\n     *\n     * Requirements:\n     *\n     * - `account` cannot be the zero address.\n     * - If `account` refers to a smart contract, it must implement {IERC1155Receiver-onERC1155Received} and return the\n     * acceptance magic value.\n     */\n    function _mint(address account, uint256 id, uint256 amount, bytes memory data) internal virtual {\n        require(account != address(0), \"ERC1155: mint to the zero address\");\n\n        address operator = _msgSender();\n\n        _beforeTokenTransfer(operator, address(0), account, _asSingletonArray(id), _asSingletonArray(amount), data);\n\n        _balances[id][account] = _balances[id][account].add(amount);\n        emit TransferSingle(operator, address(0), account, id, amount);\n\n        _doSafeTransferAcceptanceCheck(operator, address(0), account, id, amount, data);\n    }\n\n    /**\n     * @dev xref:ROOT:erc1155.adoc#batch-operations[Batched] version of {_mint}.\n     *\n     * Requirements:\n     *\n     * - `ids` and `amounts` must have the same length.\n     * - If `to` refers to a smart contract, it must implement {IERC1155Receiver-onERC1155BatchReceived} and return the\n     * acceptance magic value.\n     */\n    function _mintBatch(address to, uint256[] memory ids, uint256[] memory amounts, bytes memory data) internal virtual {\n        require(to != address(0), \"ERC1155: mint to the zero address\");\n        require(ids.length == amounts.length, \"ERC1155: ids and amounts length mismatch\");\n\n        address operator = _msgSender();\n\n        _beforeTokenTransfer(operator, address(0), to, ids, amounts, data);\n\n        for (uint i = 0; i < ids.length; i++) {\n            _balances[ids[i]][to] = amounts[i].add(_balances[ids[i]][to]);\n        }\n\n        emit TransferBatch(operator, address(0), to, ids, amounts);\n\n        _doSafeBatchTransferAcceptanceCheck(operator, address(0), to, ids, amounts, data);\n    }\n\n    /**\n     * @dev Destroys `amount` tokens of token type `id` from `account`\n     *\n     * Requirements:\n     *\n     * - `account` cannot be the zero address.\n     * - `account` must have at least `amount` tokens of token type `id`.\n     */\n    function _burn(address account, uint256 id, uint256 amount) internal virtual {\n        require(account != address(0), \"ERC1155: burn from the zero address\");\n\n        address operator = _msgSender();\n\n        _beforeTokenTransfer(operator, account, address(0), _asSingletonArray(id), _asSingletonArray(amount), \"\");\n\n        _balances[id][account] = _balances[id][account].sub(\n            amount,\n            \"ERC1155: burn amount exceeds balance\"\n        );\n\n        emit TransferSingle(operator, account, address(0), id, amount);\n    }\n\n    /**\n     * @dev xref:ROOT:erc1155.adoc#batch-operations[Batched] version of {_burn}.\n     *\n     * Requirements:\n     *\n     * - `ids` and `amounts` must have the same length.\n     */\n    function _burnBatch(address account, uint256[] memory ids, uint256[] memory amounts) internal virtual {\n        require(account != address(0), \"ERC1155: burn from the zero address\");\n        require(ids.length == amounts.length, \"ERC1155: ids and amounts length mismatch\");\n\n        address operator = _msgSender();\n\n        _beforeTokenTransfer(operator, account, address(0), ids, amounts, \"\");\n\n        for (uint i = 0; i < ids.length; i++) {\n            _balances[ids[i]][account] = _balances[ids[i]][account].sub(\n                amounts[i],\n                \"ERC1155: burn amount exceeds balance\"\n            );\n        }\n\n        emit TransferBatch(operator, account, address(0), ids, amounts);\n    }\n\n    /**\n     * @dev Hook that is called before any token transfer. This includes minting\n     * and burning, as well as batched variants.\n     *\n     * The same hook is called on both single and batched variants. For single\n     * transfers, the length of the `id` and `amount` arrays will be 1.\n     *\n     * Calling conditions (for each `id` and `amount` pair):\n     *\n     * - When `from` and `to` are both non-zero, `amount` of ``from``'s tokens\n     * of token type `id` will be  transferred to `to`.\n     * - When `from` is zero, `amount` tokens of token type `id` will be minted\n     * for `to`.\n     * - when `to` is zero, `amount` of ``from``'s tokens of token type `id`\n     * will be burned.\n     * - `from` and `to` are never both zero.\n     * - `ids` and `amounts` have the same, non-zero length.\n     *\n     * To learn more about hooks, head to xref:ROOT:extending-contracts.adoc#using-hooks[Using Hooks].\n     */\n    function _beforeTokenTransfer(\n        address operator,\n        address from,\n        address to,\n        uint256[] memory ids,\n        uint256[] memory amounts,\n        bytes memory data\n    )\n        internal\n        virtual\n    { }\n\n    function _doSafeTransferAcceptanceCheck(\n        address operator,\n        address from,\n        address to,\n        uint256 id,\n        uint256 amount,\n        bytes memory data\n    )\n        private\n    {\n        if (to.isContract()) {\n            try IERC1155Receiver(to).onERC1155Received(operator, from, id, amount, data) returns (bytes4 response) {\n                if (response != IERC1155Receiver(to).onERC1155Received.selector) {\n                    revert(\"ERC1155: ERC1155Receiver rejected tokens\");\n                }\n            } catch Error(string memory reason) {\n                revert(reason);\n            } catch {\n                revert(\"ERC1155: transfer to non ERC1155Receiver implementer\");\n            }\n        }\n    }\n\n    function _doSafeBatchTransferAcceptanceCheck(\n        address operator,\n        address from,\n        address to,\n        uint256[] memory ids,\n        uint256[] memory amounts,\n        bytes memory data\n    )\n        private\n    {\n        if (to.isContract()) {\n            try IERC1155Receiver(to).onERC1155BatchReceived(operator, from, ids, amounts, data) returns (bytes4 response) {\n                if (response != IERC1155Receiver(to).onERC1155BatchReceived.selector) {\n                    revert(\"ERC1155: ERC1155Receiver rejected tokens\");\n                }\n            } catch Error(string memory reason) {\n                revert(reason);\n            } catch {\n                revert(\"ERC1155: transfer to non ERC1155Receiver implementer\");\n            }\n        }\n    }\n\n    function _asSingletonArray(uint256 element) private pure returns (uint256[] memory) {\n        uint256[] memory array = new uint256[](1);\n        array[0] = element;\n\n        return array;\n    }\n}\n\ncontract polyhess is ERC1155, Ownable {\n\n     uint8 winner;\n     address _owner;\n     uint tokencounter;\n     uint maxnft=22;\n     uint NFT_Price=1000000; //1 eth\n    mapping (uint256 => string) private _uris;\n\n    struct game {\n        address P1;\n        address P2;\n        uint amt;\n        uint nft_t1;\n        uint nft_t2;\n    }\n    mapping (uint=>game) public GameID;\n    uint gameID;\n\n\n\n    constructor() public ERC1155(\"\") {\n        _owner = msg.sender;\n        _mint (address(this), 0, 10**20, \"\");\n        for (uint i=1;i<=maxnft;i++){\n            _mint(address(this), i, 1,\"\");\n        }\n        gameID=0;\n    }\n    function uint2str(uint _i) internal pure returns (string memory _uintAsString) {\n        if (_i == 0) {\n            return \"0\";\n        }\n        uint j = _i;\n        uint len;\n        while (j != 0) {\n            len++;\n            j /= 10;\n        }\n        bytes memory bstr = new bytes(len);\n        uint k = len;\n        while (_i != 0) {\n            k = k-1;\n            uint8 temp = (48 + uint8(_i - _i / 10 * 10));\n            bytes1 b1 = bytes1(temp);\n            bstr[k] = b1;\n            _i /= 10;\n        }\n        return string(bstr);\n    }\n        function uri(uint256 tokenId) override public view returns(string memory){\n          return(\n            string(abi.encodePacked(\n              \"https://bafybeihinfdgrb27ezwqyx3ufhceoq2c2asi2ppvhlzakvk4dkim2n7enu.ipfs.dweb.link/\",\n              uint2str(tokenId),\".json\"\n              ))\n\n            );\n        }\n\n    // Events\n      event Hess_Buy(\n        uint ethAMT,\n        address recipient\n        );\n      event ex_eth_hess(\n        uint ethAMT,\n        address recipient\n        );\n      event ex_NFT(\n        uint NFTid,\n        address To,\n        address From,\n        uint buy_price\n        );\n      event Bought_NFT(\n        address TO,\n        uint NFTid,\n        uint amt\n        );\n      event mint_token(\n        uint AMT\n        );\n      event TOKEN_staking(\n        address F1,\n        address F2,\n        uint amt,\n        uint Gameid\n        );\n      event NFT_STAKE(\n        address F1,\n        address F2,\n        uint nftid1,\n        uint nftid2,\n        uint Gameid\n        );\n      event TOKEN_win(\n        address winner,\n        address loser,\n        uint amt,\n        uint Gameid\n        );\n      event NFT_win(\n        address winner,\n        address loser,\n        uint nftid1,\n        uint nftid2,\n        uint Gameid\n        );\n\n\n    // Functions\n      // To buy tokens from ethereum\n    function buy_hess(uint ethamount)public payable{\n        require(msg.value>=ethamount,\"Not enough token sent\");\n        uint amt = (ethamount)*1000000;\n        safeTransferFrom(address(this),msg.sender, 0, amt, \"\" );\n        emit Hess_Buy(amt, msg.sender);\n      }\n      // To exchange tokens from ethereum\n\n    function exchange_eth(uint hesstoken)public payable{\n        require(hesstoken > 99999, \" Not sufficient hesstoken sent\" );\n        safeTransferFrom(msg.sender, address(this), 0, hesstoken, \"\" );\n        uint amt = (hesstoken/11*10);\n\n        ((msg.sender).transfer)(amt);\n        emit ex_eth_hess(hesstoken, msg.sender);\n      }\n\n\n    function NFT_tran(uint256 tokenId, address _to, address _from, uint amt)public{\n        require(msg.sender==_from, \"You are not the owner of NFT\");\n        require(balanceOf(_to, 0)>=amt, \" Insufficent balance\");\n        require(balanceOf(_from, tokenId)==1, \" Address does not own this NFT\");\n        safeTransferFrom(_from, _to, tokenId, 1, \"\");\n        safeTransferFrom(_to, _from, 0, amt, \"\");\n        emit ex_NFT(tokenId, _to, _from, amt);\n      }\n    function minttoken(uint256 Amount) public  onlyOwner{\n        _mint(address(this), 0, Amount, \"\");\n        emit mint_token(Amount);\n    }\n\n    function BuyNFT( uint256 amount, uint TokenID)public {\n        require(amount>=NFT_Price, \"Price of NFT more than given\");\n        require(balanceOf(msg.sender,0)>=amount,\" Insufficent balance in account\");\n        safeTransferFrom(msg.sender, address(this), 0, amount,\"\");\n        safeTransferFrom(address(this), msg.sender, TokenID, 1,\"\");\n        emit Bought_NFT(msg.sender, TokenID, amount);\n    }\n\n\n\n      function Token_staking(address p1, address p2, uint am1, uint am2) public {\n          require(am1>999&&am2>999, \"Stake amouunt more than 100\");\n          require( am1== am2,\"Both have not staked similar amount\");\n\n          safeTransferFrom(p1, address(this), 0, am1, \"0x00\");\n          safeTransferFrom(p2, address(this), 0, am1, \"0x00\");\n          gameID= gameID+1;\n          GameID[gameID].P1 = p1;\n          GameID[gameID].P2 = p2;\n          GameID[gameID].amt = am1;\n          emit TOKEN_staking( p1, p2, am1, gameID);\n      }\n      function win_TokenStaking(uint256 _gameID, uint gstatus) public {\n          require(gstatus>=0&&gstatus<3, \"Wrong status provided\");\n          address WINNER;\n          address LOSER;\n           if(gstatus==1){\n              WINNER = GameID[_gameID].P1;\n              LOSER = GameID[_gameID].P2;\n              safeTransferFrom(address(this), GameID[_gameID].P1, 0, (GameID[_gameID].amt)*2, \"0x00\");\n          }\n          else if(gstatus==2){\n              WINNER = GameID[_gameID].P2;\n              LOSER = GameID[_gameID].P1;\n\n              safeTransferFrom(address(this), GameID[_gameID].P2, 0, (GameID[_gameID].amt)*2, \"0x00\");\n          }\n          else if (gstatus==0){\n              WINNER = 0x0000000000000000000000000000000000000000;\n              LOSER =  0x0000000000000000000000000000000000000000;\n              safeTransferFrom(address(this), GameID[_gameID].P1, 0, GameID[_gameID].amt, \"0x00\");\n              safeTransferFrom(address(this), GameID[_gameID].P2, 0, GameID[_gameID].amt, \"0x00\");\n          }\n          emit TOKEN_win(WINNER, LOSER, GameID[_gameID].amt, _gameID);\n      }\n\n\n      function NFT_staking(address p1, address p2, uint id1, uint id2) public {\n          safeTransferFrom(p1, address(this), id1, 1, \"0x00\");\n          safeTransferFrom(p2, address(this), id2, 1, \"0x00\");\n          gameID= gameID+1;\n          GameID[gameID].P1 = p1;\n          GameID[gameID].P2 = p2;\n          GameID[gameID].nft_t1 = id1;\n          GameID[gameID].nft_t2 = id2;\n          emit NFT_STAKE( p1, p2, id1, id2, gameID);\n      }\n      function win_NFTStaking(uint256 _gameID, uint gstatus) public {\n          require(gstatus>=0&&gstatus<3, \"Wrong status provided\");\n           address WINNER;\n           address LOSER;\n           if(gstatus==1){\n              WINNER = GameID[_gameID].P1;\n              LOSER = GameID[_gameID].P2;\n              safeTransferFrom(address(this), GameID[_gameID].P1, GameID[_gameID].nft_t1, 1, \"0x00\");\n              safeTransferFrom(address(this), GameID[_gameID].P1, GameID[_gameID].nft_t2, 1, \"0x00\");\n               emit NFT_win(WINNER, LOSER, GameID[_gameID].nft_t1, GameID[_gameID].nft_t2, _gameID);\n          }\n          else if(gstatus==2){\n             WINNER = GameID[_gameID].P2;\n               LOSER = GameID[_gameID].P1;\n             safeTransferFrom(address(this), GameID[_gameID].P2, GameID[_gameID].nft_t1, 1, \"0x00\");\n             safeTransferFrom(address(this), GameID[_gameID].P2, GameID[_gameID].nft_t2, 1, \"0x00\");\n              emit NFT_win(WINNER, LOSER, GameID[_gameID].nft_t2, GameID[_gameID].nft_t1, _gameID);\n          }\n          else if (gstatus==0){\n              WINNER = 0x0000000000000000000000000000000000000000;\n              LOSER = 0x0000000000000000000000000000000000000000;\n              safeTransferFrom(address(this), GameID[_gameID].P1, GameID[_gameID].nft_t1, 1, \"0x00\");\n              safeTransferFrom(address(this), GameID[_gameID].P2, GameID[_gameID].nft_t2, 1, \"0x00\");\n               emit NFT_win(WINNER, LOSER, GameID[_gameID].nft_t1, GameID[_gameID].nft_t2, _gameID);\n          }\n\n      }\n\n      function Get_My_MONEY() public onlyOwner{\n          ((msg.sender).transfer)(address(this).balance);\n      }\n\n}\n",
  "sourcePath": "/home/panic0/Codificacion/polyess/contracts/SimpleStorage.sol",
  "compiler": {
    "name": "solc",
    "version": "0.7.6+commit.7338295f.Emscripten.clang"
  },
  "schemaVersion": "3.4.3",
  "updatedAt": "2021-12-12T16:43:07.015Z",
  "devdoc": {
    "kind": "dev",
    "methods": {
      "balanceOf(address,uint256)": {
        "details": "See {IERC1155-balanceOf}. Requirements: - `account` cannot be the zero address."
      },
      "balanceOfBatch(address[],uint256[])": {
        "details": "See {IERC1155-balanceOfBatch}. Requirements: - `accounts` and `ids` must have the same length."
      },
      "constructor": {
        "details": "See {_setURI}."
      },
      "isApprovedForAll(address,address)": {
        "details": "See {IERC1155-isApprovedForAll}."
      },
      "safeBatchTransferFrom(address,address,uint256[],uint256[],bytes)": {
        "details": "See {IERC1155-safeBatchTransferFrom}."
      },
      "safeTransferFrom(address,address,uint256,uint256,bytes)": {
        "details": "See {IERC1155-safeTransferFrom}."
      },
      "setApprovalForAll(address,bool)": {
        "details": "See {IERC1155-setApprovalForAll}."
      },
      "supportsInterface(bytes4)": {
        "details": "See {IERC165-supportsInterface}. Time complexity O(1), guaranteed to always use less than 30 000 gas."
      },
      "uri(uint256)": {
        "details": "See {IERC1155MetadataURI-uri}. This implementation returns the same URI for *all* token types. It relies on the token type ID substitution mechanism https://eips.ethereum.org/EIPS/eip-1155#metadata[defined in the EIP]. Clients calling this function must replace the `\\{id\\}` substring with the actual token type ID."
      }
    },
    "version": 1
  },
  "userdoc": {
    "kind": "user",
    "methods": {},
    "version": 1
  }
}