{
  "contractName": "polyhess",
  "abi": [
    {
      "inputs": [],
      "stateMutability": "nonpayable",
      "type": "constructor"
    },
    {
      "anonymous": false,
      "inputs": [
        {
          "indexed": true,
          "internalType": "address",
          "name": "account",
          "type": "address"
        },
        {
          "indexed": true,
          "internalType": "address",
          "name": "operator",
          "type": "address"
        },
        {
          "indexed": false,
          "internalType": "bool",
          "name": "approved",
          "type": "bool"
        }
      ],
      "name": "ApprovalForAll",
      "type": "event"
    },
    {
      "anonymous": false,
      "inputs": [
        {
          "indexed": false,
          "internalType": "uint256",
          "name": "ethAMT",
          "type": "uint256"
        },
        {
          "indexed": false,
          "internalType": "address",
          "name": "recipient",
          "type": "address"
        }
      ],
      "name": "Hess_Buy",
      "type": "event"
    },
    {
      "anonymous": false,
      "inputs": [
        {
          "indexed": false,
          "internalType": "address",
          "name": "F1",
          "type": "address"
        },
        {
          "indexed": false,
          "internalType": "address",
          "name": "F2",
          "type": "address"
        },
        {
          "indexed": false,
          "internalType": "uint256",
          "name": "nftid1",
          "type": "uint256"
        },
        {
          "indexed": false,
          "internalType": "uint256",
          "name": "nftid2",
          "type": "uint256"
        },
        {
          "indexed": false,
          "internalType": "uint256",
          "name": "Gameid",
          "type": "uint256"
        }
      ],
      "name": "NFT_STAKE",
      "type": "event"
    },
    {
      "anonymous": false,
      "inputs": [
        {
          "indexed": false,
          "internalType": "address",
          "name": "winner",
          "type": "address"
        },
        {
          "indexed": false,
          "internalType": "address",
          "name": "loser",
          "type": "address"
        },
        {
          "indexed": false,
          "internalType": "uint256",
          "name": "nftid1",
          "type": "uint256"
        },
        {
          "indexed": false,
          "internalType": "uint256",
          "name": "nftid2",
          "type": "uint256"
        },
        {
          "indexed": false,
          "internalType": "uint256",
          "name": "Gameid",
          "type": "uint256"
        }
      ],
      "name": "NFT_win",
      "type": "event"
    },
    {
      "anonymous": false,
      "inputs": [
        {
          "indexed": false,
          "internalType": "uint256",
          "name": "NFTID",
          "type": "uint256"
        },
        {
          "indexed": false,
          "internalType": "uint256",
          "name": "buyprice",
          "type": "uint256"
        },
        {
          "indexed": false,
          "internalType": "address",
          "name": "NFTowner",
          "type": "address"
        }
      ],
      "name": "NFTowner",
      "type": "event"
    },
    {
      "anonymous": false,
      "inputs": [
        {
          "indexed": true,
          "internalType": "address",
          "name": "previousOwner",
          "type": "address"
        },
        {
          "indexed": true,
          "internalType": "address",
          "name": "newOwner",
          "type": "address"
        }
      ],
      "name": "OwnershipTransferred",
      "type": "event"
    },
    {
      "anonymous": false,
      "inputs": [
        {
          "indexed": false,
          "internalType": "address",
          "name": "F1",
          "type": "address"
        },
        {
          "indexed": false,
          "internalType": "address",
          "name": "F2",
          "type": "address"
        },
        {
          "indexed": false,
          "internalType": "uint256",
          "name": "amt",
          "type": "uint256"
        },
        {
          "indexed": false,
          "internalType": "uint256",
          "name": "Gameid",
          "type": "uint256"
        }
      ],
      "name": "TOKEN_staking",
      "type": "event"
    },
    {
      "anonymous": false,
      "inputs": [
        {
          "indexed": false,
          "internalType": "address",
          "name": "winner",
          "type": "address"
        },
        {
          "indexed": false,
          "internalType": "address",
          "name": "loser",
          "type": "address"
        },
        {
          "indexed": false,
          "internalType": "uint256",
          "name": "amt",
          "type": "uint256"
        },
        {
          "indexed": false,
          "internalType": "uint256",
          "name": "Gameid",
          "type": "uint256"
        }
      ],
      "name": "TOKEN_win",
      "type": "event"
    },
    {
      "anonymous": false,
      "inputs": [
        {
          "indexed": true,
          "internalType": "address",
          "name": "operator",
          "type": "address"
        },
        {
          "indexed": true,
          "internalType": "address",
          "name": "from",
          "type": "address"
        },
        {
          "indexed": true,
          "internalType": "address",
          "name": "to",
          "type": "address"
        },
        {
          "indexed": false,
          "internalType": "uint256[]",
          "name": "ids",
          "type": "uint256[]"
        },
        {
          "indexed": false,
          "internalType": "uint256[]",
          "name": "values",
          "type": "uint256[]"
        }
      ],
      "name": "TransferBatch",
      "type": "event"
    },
    {
      "anonymous": false,
      "inputs": [
        {
          "indexed": true,
          "internalType": "address",
          "name": "operator",
          "type": "address"
        },
        {
          "indexed": true,
          "internalType": "address",
          "name": "from",
          "type": "address"
        },
        {
          "indexed": true,
          "internalType": "address",
          "name": "to",
          "type": "address"
        },
        {
          "indexed": false,
          "internalType": "uint256",
          "name": "id",
          "type": "uint256"
        },
        {
          "indexed": false,
          "internalType": "uint256",
          "name": "value",
          "type": "uint256"
        }
      ],
      "name": "TransferSingle",
      "type": "event"
    },
    {
      "anonymous": false,
      "inputs": [
        {
          "indexed": false,
          "internalType": "string",
          "name": "value",
          "type": "string"
        },
        {
          "indexed": true,
          "internalType": "uint256",
          "name": "id",
          "type": "uint256"
        }
      ],
      "name": "URI",
      "type": "event"
    },
    {
      "anonymous": false,
      "inputs": [
        {
          "indexed": false,
          "internalType": "uint256",
          "name": "NFTID",
          "type": "uint256"
        },
        {
          "indexed": false,
          "internalType": "uint256",
          "name": "amt",
          "type": "uint256"
        },
        {
          "indexed": false,
          "internalType": "address",
          "name": "Bidder",
          "type": "address"
        }
      ],
      "name": "bid_change",
      "type": "event"
    },
    {
      "anonymous": false,
      "inputs": [
        {
          "indexed": false,
          "internalType": "uint256",
          "name": "NFTid",
          "type": "uint256"
        },
        {
          "indexed": false,
          "internalType": "address",
          "name": "To",
          "type": "address"
        },
        {
          "indexed": false,
          "internalType": "address",
          "name": "From",
          "type": "address"
        },
        {
          "indexed": false,
          "internalType": "uint256",
          "name": "buy_price",
          "type": "uint256"
        }
      ],
      "name": "ex_NFT",
      "type": "event"
    },
    {
      "anonymous": false,
      "inputs": [
        {
          "indexed": false,
          "internalType": "uint256",
          "name": "ethAMT",
          "type": "uint256"
        },
        {
          "indexed": false,
          "internalType": "address",
          "name": "recipient",
          "type": "address"
        }
      ],
      "name": "ex_eth_hess",
      "type": "event"
    },
    {
      "anonymous": false,
      "inputs": [
        {
          "indexed": false,
          "internalType": "address",
          "name": "TO",
          "type": "address"
        },
        {
          "indexed": false,
          "internalType": "uint256",
          "name": "NFTid",
          "type": "uint256"
        },
        {
          "indexed": false,
          "internalType": "uint256",
          "name": "amt",
          "type": "uint256"
        }
      ],
      "name": "mint_NFT",
      "type": "event"
    },
    {
      "anonymous": false,
      "inputs": [
        {
          "indexed": false,
          "internalType": "uint256",
          "name": "AMT",
          "type": "uint256"
        }
      ],
      "name": "mint_token",
      "type": "event"
    },
    {
      "inputs": [
        {
          "internalType": "uint256",
          "name": "",
          "type": "uint256"
        }
      ],
      "name": "GameID",
      "outputs": [
        {
          "internalType": "address",
          "name": "P1",
          "type": "address"
        },
        {
          "internalType": "address",
          "name": "P2",
          "type": "address"
        },
        {
          "internalType": "uint256",
          "name": "amt",
          "type": "uint256"
        },
        {
          "internalType": "uint256",
          "name": "nft_t1",
          "type": "uint256"
        },
        {
          "internalType": "uint256",
          "name": "nft_t2",
          "type": "uint256"
        }
      ],
      "stateMutability": "view",
      "type": "function"
    },
    {
      "inputs": [
        {
          "internalType": "uint256",
          "name": "",
          "type": "uint256"
        }
      ],
      "name": "auctionStart",
      "outputs": [
        {
          "internalType": "bool",
          "name": "",
          "type": "bool"
        }
      ],
      "stateMutability": "view",
      "type": "function"
    },
    {
      "inputs": [
        {
          "internalType": "address",
          "name": "account",
          "type": "address"
        },
        {
          "internalType": "uint256",
          "name": "id",
          "type": "uint256"
        }
      ],
      "name": "balanceOf",
      "outputs": [
        {
          "internalType": "uint256",
          "name": "",
          "type": "uint256"
        }
      ],
      "stateMutability": "view",
      "type": "function"
    },
    {
      "inputs": [
        {
          "internalType": "address[]",
          "name": "accounts",
          "type": "address[]"
        },
        {
          "internalType": "uint256[]",
          "name": "ids",
          "type": "uint256[]"
        }
      ],
      "name": "balanceOfBatch",
      "outputs": [
        {
          "internalType": "uint256[]",
          "name": "",
          "type": "uint256[]"
        }
      ],
      "stateMutability": "view",
      "type": "function"
    },
    {
      "inputs": [
        {
          "internalType": "uint256",
          "name": "",
          "type": "uint256"
        }
      ],
      "name": "bidder",
      "outputs": [
        {
          "internalType": "uint256",
          "name": "amount",
          "type": "uint256"
        },
        {
          "internalType": "address",
          "name": "highestbidder",
          "type": "address"
        }
      ],
      "stateMutability": "view",
      "type": "function"
    },
    {
      "inputs": [
        {
          "internalType": "address",
          "name": "account",
          "type": "address"
        },
        {
          "internalType": "address",
          "name": "operator",
          "type": "address"
        }
      ],
      "name": "isApprovedForAll",
      "outputs": [
        {
          "internalType": "bool",
          "name": "",
          "type": "bool"
        }
      ],
      "stateMutability": "view",
      "type": "function"
    },
    {
      "inputs": [
        {
          "internalType": "address",
          "name": "",
          "type": "address"
        },
        {
          "internalType": "address",
          "name": "",
          "type": "address"
        },
        {
          "internalType": "uint256[]",
          "name": "",
          "type": "uint256[]"
        },
        {
          "internalType": "uint256[]",
          "name": "",
          "type": "uint256[]"
        },
        {
          "internalType": "bytes",
          "name": "",
          "type": "bytes"
        }
      ],
      "name": "onERC1155BatchReceived",
      "outputs": [
        {
          "internalType": "bytes4",
          "name": "",
          "type": "bytes4"
        }
      ],
      "stateMutability": "nonpayable",
      "type": "function"
    },
    {
      "inputs": [
        {
          "internalType": "address",
          "name": "",
          "type": "address"
        },
        {
          "internalType": "address",
          "name": "",
          "type": "address"
        },
        {
          "internalType": "uint256",
          "name": "",
          "type": "uint256"
        },
        {
          "internalType": "uint256",
          "name": "",
          "type": "uint256"
        },
        {
          "internalType": "bytes",
          "name": "",
          "type": "bytes"
        }
      ],
      "name": "onERC1155Received",
      "outputs": [
        {
          "internalType": "bytes4",
          "name": "",
          "type": "bytes4"
        }
      ],
      "stateMutability": "nonpayable",
      "type": "function"
    },
    {
      "inputs": [],
      "name": "owner",
      "outputs": [
        {
          "internalType": "address",
          "name": "",
          "type": "address"
        }
      ],
      "stateMutability": "view",
      "type": "function"
    },
    {
      "inputs": [],
      "name": "renounceOwnership",
      "outputs": [],
      "stateMutability": "nonpayable",
      "type": "function"
    },
    {
      "inputs": [
        {
          "internalType": "address",
          "name": "from",
          "type": "address"
        },
        {
          "internalType": "address",
          "name": "to",
          "type": "address"
        },
        {
          "internalType": "uint256[]",
          "name": "ids",
          "type": "uint256[]"
        },
        {
          "internalType": "uint256[]",
          "name": "amounts",
          "type": "uint256[]"
        },
        {
          "internalType": "bytes",
          "name": "data",
          "type": "bytes"
        }
      ],
      "name": "safeBatchTransferFrom",
      "outputs": [],
      "stateMutability": "nonpayable",
      "type": "function"
    },
    {
      "inputs": [
        {
          "internalType": "address",
          "name": "from",
          "type": "address"
        },
        {
          "internalType": "address",
          "name": "to",
          "type": "address"
        },
        {
          "internalType": "uint256",
          "name": "id",
          "type": "uint256"
        },
        {
          "internalType": "uint256",
          "name": "amount",
          "type": "uint256"
        },
        {
          "internalType": "bytes",
          "name": "data",
          "type": "bytes"
        }
      ],
      "name": "safeTransferFrom",
      "outputs": [],
      "stateMutability": "nonpayable",
      "type": "function"
    },
    {
      "inputs": [
        {
          "internalType": "address",
          "name": "operator",
          "type": "address"
        },
        {
          "internalType": "bool",
          "name": "approved",
          "type": "bool"
        }
      ],
      "name": "setApprovalForAll",
      "outputs": [],
      "stateMutability": "nonpayable",
      "type": "function"
    },
    {
      "inputs": [
        {
          "internalType": "bytes4",
          "name": "interfaceId",
          "type": "bytes4"
        }
      ],
      "name": "supportsInterface",
      "outputs": [
        {
          "internalType": "bool",
          "name": "",
          "type": "bool"
        }
      ],
      "stateMutability": "view",
      "type": "function"
    },
    {
      "inputs": [
        {
          "internalType": "address",
          "name": "newOwner",
          "type": "address"
        }
      ],
      "name": "transferOwnership",
      "outputs": [],
      "stateMutability": "nonpayable",
      "type": "function"
    },
    {
      "inputs": [
        {
          "internalType": "uint256",
          "name": "tokenId",
          "type": "uint256"
        }
      ],
      "name": "uri",
      "outputs": [
        {
          "internalType": "string",
          "name": "",
          "type": "string"
        }
      ],
      "stateMutability": "view",
      "type": "function"
    },
    {
      "inputs": [],
      "name": "buy_hess",
      "outputs": [],
      "stateMutability": "payable",
      "type": "function"
    },
    {
      "inputs": [
        {
          "internalType": "uint256",
          "name": "hesstoken",
          "type": "uint256"
        }
      ],
      "name": "exchange_eth",
      "outputs": [],
      "stateMutability": "payable",
      "type": "function"
    },
    {
      "inputs": [
        {
          "internalType": "uint256",
          "name": "NFTid",
          "type": "uint256"
        }
      ],
      "name": "cal_Endtime",
      "outputs": [
        {
          "internalType": "uint256",
          "name": "",
          "type": "uint256"
        }
      ],
      "stateMutability": "nonpayable",
      "type": "function"
    },
    {
      "inputs": [
        {
          "internalType": "uint256",
          "name": "NFTid",
          "type": "uint256"
        },
        {
          "internalType": "uint256",
          "name": "_amount",
          "type": "uint256"
        }
      ],
      "name": "bid",
      "outputs": [],
      "stateMutability": "nonpayable",
      "type": "function"
    },
    {
      "inputs": [
        {
          "internalType": "uint256",
          "name": "tokenId",
          "type": "uint256"
        },
        {
          "internalType": "address",
          "name": "_to",
          "type": "address"
        },
        {
          "internalType": "address",
          "name": "_from",
          "type": "address"
        },
        {
          "internalType": "uint256",
          "name": "amt",
          "type": "uint256"
        }
      ],
      "name": "NFT_tran",
      "outputs": [],
      "stateMutability": "nonpayable",
      "type": "function"
    },
    {
      "inputs": [
        {
          "internalType": "uint256",
          "name": "Amount",
          "type": "uint256"
        }
      ],
      "name": "minttoken",
      "outputs": [],
      "stateMutability": "nonpayable",
      "type": "function"
    },
    {
      "inputs": [
        {
          "internalType": "address",
          "name": "p1",
          "type": "address"
        },
        {
          "internalType": "address",
          "name": "p2",
          "type": "address"
        },
        {
          "internalType": "uint256",
          "name": "am1",
          "type": "uint256"
        },
        {
          "internalType": "uint256",
          "name": "am2",
          "type": "uint256"
        }
      ],
      "name": "Token_staking",
      "outputs": [],
      "stateMutability": "nonpayable",
      "type": "function"
    },
    {
      "inputs": [
        {
          "internalType": "uint256",
          "name": "_gameID",
          "type": "uint256"
        },
        {
          "internalType": "uint256",
          "name": "gstatus",
          "type": "uint256"
        }
      ],
      "name": "win_TokenStaking",
      "outputs": [],
      "stateMutability": "nonpayable",
      "type": "function"
    },
    {
      "inputs": [
        {
          "internalType": "address",
          "name": "p1",
          "type": "address"
        },
        {
          "internalType": "address",
          "name": "p2",
          "type": "address"
        },
        {
          "internalType": "uint256",
          "name": "id1",
          "type": "uint256"
        },
        {
          "internalType": "uint256",
          "name": "id2",
          "type": "uint256"
        }
      ],
      "name": "NFT_staking",
      "outputs": [],
      "stateMutability": "nonpayable",
      "type": "function"
    },
    {
      "inputs": [
        {
          "internalType": "uint256",
          "name": "_gameID",
          "type": "uint256"
        },
        {
          "internalType": "uint256",
          "name": "gstatus",
          "type": "uint256"
        }
      ],
      "name": "win_NFTStaking",
      "outputs": [],
      "stateMutability": "nonpayable",
      "type": "function"
    },
    {
      "inputs": [],
      "name": "Get_My_MONEY",
      "outputs": [],
      "stateMutability": "nonpayable",
      "type": "function"
    }
  ],
  "bytecode": "0x60806040526023600755620186a0600855620151806009553480156200002457600080fd5b50604051806020016040528060008152506200004d6301ffc9a760e01b6200027f60201b60201c565b6200006e63bc197c8160e01b63f23a6e6160e01b186200027f60201b60201c565b6200007f816200038860201b60201c565b6200009763d9b67a2660e01b6200027f60201b60201c565b620000af630e89341c60e01b6200027f60201b60201c565b506000620000c2620003a460201b60201c565b905080600460006101000a81548173ffffffffffffffffffffffffffffffffffffffff021916908373ffffffffffffffffffffffffffffffffffffffff1602179055508073ffffffffffffffffffffffffffffffffffffffff16600073ffffffffffffffffffffffffffffffffffffffff167f8be0079c531659141344cd1fd0a4f28419497f9722a3daafe3b4186f6b6457e060405160405180910390a35033600560006101000a81548173ffffffffffffffffffffffffffffffffffffffff021916908373ffffffffffffffffffffffffffffffffffffffff160217905550620001cf30600068056bc75e2d6310000060405180602001604052806000815250620003ac60201b60201c565b6000600190505b60075481116200027057620002043082600160405180602001604052806000815250620003ac60201b60201c565b7fcf95f9df95497fe756383ec3ad622e091407c965209a07b6f3a81c61f7908fcd30826000604051808473ffffffffffffffffffffffffffffffffffffffff168152602001838152602001828152602001935050505060405180910390a18080600101915050620001d6565b506000600c8190555062000bbc565b63ffffffff60e01b817bffffffffffffffffffffffffffffffffffffffffffffffffffffffff191614156200031c576040517f08c379a000000000000000000000000000000000000000000000000000000000815260040180806020018281038252601c8152602001807f4552433136353a20696e76616c696420696e746572666163652069640000000081525060200191505060405180910390fd5b6001600080837bffffffffffffffffffffffffffffffffffffffffffffffffffffffff19167bffffffffffffffffffffffffffffffffffffffffffffffffffffffff1916815260200190815260200160002060006101000a81548160ff02191690831515021790555050565b8060039080519060200190620003a092919062000a24565b5050565b600033905090565b600073ffffffffffffffffffffffffffffffffffffffff168473ffffffffffffffffffffffffffffffffffffffff16141562000434576040517f08c379a000000000000000000000000000000000000000000000000000000000815260040180806020018281038252602181526020018062005a236021913960400191505060405180910390fd5b600062000446620003a460201b60201c565b90506200047f816000876200046188620005e060201b60201c565b6200047288620005e060201b60201c565b876200065460201b60201c565b620004e9836001600087815260200190815260200160002060008873ffffffffffffffffffffffffffffffffffffffff1673ffffffffffffffffffffffffffffffffffffffff168152602001908152602001600020546200065c60201b62003d8f1790919060201c565b6001600086815260200190815260200160002060008773ffffffffffffffffffffffffffffffffffffffff1673ffffffffffffffffffffffffffffffffffffffff168152602001908152602001600020819055508473ffffffffffffffffffffffffffffffffffffffff16600073ffffffffffffffffffffffffffffffffffffffff168273ffffffffffffffffffffffffffffffffffffffff167fc3d58168c5ae7397731d063d5bbf3d657854427343f4c083240f7aacaa2d0f628787604051808381526020018281526020019250505060405180910390a4620005d981600087878787620006e560201b60201c565b5050505050565b60606000600167ffffffffffffffff81118015620005fd57600080fd5b506040519080825280602002602001820160405280156200062d5781602001602082028036833780820191505090505b50905082816000815181106200063f57fe5b60200260200101818152505080915050919050565b505050505050565b600080828401905083811015620006db576040517f08c379a000000000000000000000000000000000000000000000000000000000815260040180806020018281038252601b8152602001807f536166654d6174683a206164646974696f6e206f766572666c6f77000000000081525060200191505060405180910390fd5b8091505092915050565b620007118473ffffffffffffffffffffffffffffffffffffffff1662000a1160201b62003e171760201c565b1562000a09578373ffffffffffffffffffffffffffffffffffffffff1663f23a6e6187878686866040518663ffffffff1660e01b8152600401808673ffffffffffffffffffffffffffffffffffffffff1681526020018573ffffffffffffffffffffffffffffffffffffffff16815260200184815260200183815260200180602001828103825283818151815260200191508051906020019080838360005b83811015620007cd578082015181840152602081019050620007b0565b50505050905090810190601f168015620007fb5780820380516001836020036101000a031916815260200191505b509650505050505050602060405180830381600087803b1580156200081f57600080fd5b505af19250505080156200085557506040513d60208110156200084157600080fd5b810190808051906020019092919050505060015b62000968576200086462000af8565b8062000871575062000916565b806040517f08c379a00000000000000000000000000000000000000000000000000000000081526004018080602001828103825283818151815260200191508051906020019080838360005b83811015620008da578082015181840152602081019050620008bd565b50505050905090810190601f168015620009085780820380516001836020036101000a031916815260200191505b509250505060405180910390fd5b6040517f08c379a0000000000000000000000000000000000000000000000000000000008152600401808060200182810382526034815260200180620059c76034913960400191505060405180910390fd5b63f23a6e6160e01b7bffffffffffffffffffffffffffffffffffffffffffffffffffffffff1916817bffffffffffffffffffffffffffffffffffffffffffffffffffffffff19161462000a07576040517f08c379a0000000000000000000000000000000000000000000000000000000008152600401808060200182810382526028815260200180620059fb6028913960400191505060405180910390fd5b505b505050505050565b600080823b905060008111915050919050565b828054600181600116156101000203166002900490600052602060002090601f01602090048101928262000a5c576000855562000aa8565b82601f1062000a7757805160ff191683800117855562000aa8565b8280016001018555821562000aa8579182015b8281111562000aa757825182559160200191906001019062000a8a565b5b50905062000ab7919062000abb565b5090565b5b8082111562000ad657600081600090555060010162000abc565b5090565b6000601f19601f8301169050919050565b60008160e01c9050919050565b600060443d101562000b0a5762000bb9565b60046000803e62000b1d60005162000aeb565b6308c379a0811462000b30575062000bb9565b60405160043d036004823e80513d602482011167ffffffffffffffff8211171562000b5e5750505062000bb9565b808201805167ffffffffffffffff81111562000b7f57505050505062000bb9565b8060208301013d850181111562000b9c5750505050505062000bb9565b62000ba78262000ada565b60208401016040528296505050505050505b90565b614dfb8062000bcc6000396000f3fe60806040526004361061019b5760003560e01c80638b3a5fd9116100ec578063bc197c811161008a578063e985e9c511610064578063e985e9c514610eb4578063f23a6e6114610f3b578063f242432a1461108a578063f2fde38b146111a65761019b565b8063bc197c8114610bc5578063d4f7329e14610e28578063e21bcb7a14610e635761019b565b8063a22cb465116100c6578063a22cb46514610aca578063b5561d4214610b27578063b5db411914610b6c578063b8da335414610b765761019b565b80638b3a5fd9146109865780638da5cb5b146109f2578063a1fd246014610a335761019b565b80634e1273f411610159578063598647f811610133578063598647f8146108b7578063715018a6146108fc5780637bd28fdf14610913578063824a6ba7146109415761019b565b80634e1273f4146105ff5780635420bf47146107ad5780635979f75b146108325761019b565b8062fdd58e146101a057806301ffc9a71461020f5780630e89341c1461027f5780630f17bc75146103335780632eb2c2d61461034a57806336cccb4f1461057a575b600080fd5b3480156101ac57600080fd5b506101f9600480360360408110156101c357600080fd5b81019080803573ffffffffffffffffffffffffffffffffffffffff169060200190929190803590602001909291905050506111f7565b6040518082815260200191505060405180910390f35b34801561021b57600080fd5b506102676004803603602081101561023257600080fd5b8101908080357bffffffffffffffffffffffffffffffffffffffffffffffffffffffff191690602001909291905050506112d7565b60405180821515815260200191505060405180910390f35b34801561028b57600080fd5b506102b8600480360360208110156102a257600080fd5b810190808035906020019092919050505061133e565b6040518080602001828103825283818151815260200191508051906020019080838360005b838110156102f85780820151818401526020810190506102dd565b50505050905090810190601f1680156103255780820380516001836020036101000a031916815260200191505b509250505060405180910390f35b34801561033f57600080fd5b506103486113ed565b005b34801561035657600080fd5b50610578600480360360a081101561036d57600080fd5b81019080803573ffffffffffffffffffffffffffffffffffffffff169060200190929190803573ffffffffffffffffffffffffffffffffffffffff169060200190929190803590602001906401000000008111156103ca57600080fd5b8201836020820111156103dc57600080fd5b803590602001918460208302840111640100000000831117156103fe57600080fd5b919080806020026020016040519081016040528093929190818152602001838360200280828437600081840152601f19601f8201169050808301925050505050505091929192908035906020019064010000000081111561045e57600080fd5b82018360208201111561047057600080fd5b8035906020019184602083028401116401000000008311171561049257600080fd5b919080806020026020016040519081016040528093929190818152602001838360200280828437600081840152601f19601f820116905080830192505050505050509192919290803590602001906401000000008111156104f257600080fd5b82018360208201111561050457600080fd5b8035906020019184600183028401116401000000008311171561052657600080fd5b91908080601f016020809104026020016040519081016040528093929190818152602001838380828437600081840152601f19601f8201169050808301925050505050505091929192905050506114e5565b005b34801561058657600080fd5b506105fd6004803603608081101561059d57600080fd5b81019080803573ffffffffffffffffffffffffffffffffffffffff169060200190929190803573ffffffffffffffffffffffffffffffffffffffff1690602001909291908035906020019092919080359060200190929190505050611970565b005b34801561060b57600080fd5b506107566004803603604081101561062257600080fd5b810190808035906020019064010000000081111561063f57600080fd5b82018360208201111561065157600080fd5b8035906020019184602083028401116401000000008311171561067357600080fd5b919080806020026020016040519081016040528093929190818152602001838360200280828437600081840152601f19601f820116905080830192505050505050509192919290803590602001906401000000008111156106d357600080fd5b8201836020820111156106e557600080fd5b8035906020019184602083028401116401000000008311171561070757600080fd5b919080806020026020016040519081016040528093929190818152602001838360200280828437600081840152601f19601f820116905080830192505050505050509192919290505050611b75565b6040518080602001828103825283818151815260200191508051906020019060200280838360005b8381101561079957808201518184015260208101905061077e565b505050509050019250505060405180910390f35b3480156107b957600080fd5b50610830600480360360808110156107d057600080fd5b81019080803573ffffffffffffffffffffffffffffffffffffffff169060200190929190803573ffffffffffffffffffffffffffffffffffffffff1690602001909291908035906020019092919080359060200190929190505050611c87565b005b34801561083e57600080fd5b506108b56004803603608081101561085557600080fd5b8101908080359060200190929190803573ffffffffffffffffffffffffffffffffffffffff169060200190929190803573ffffffffffffffffffffffffffffffffffffffff16906020019092919080359060200190929190505050611f43565b005b3480156108c357600080fd5b506108fa600480360360408110156108da57600080fd5b81019080803590602001909291908035906020019092919050505061219e565b005b34801561090857600080fd5b5061091161253a565b005b61093f6004803603602081101561092957600080fd5b81019080803590602001909291905050506126aa565b005b34801561094d57600080fd5b506109846004803603604081101561096457600080fd5b8101908080359060200190929190803590602001909291905050506127f8565b005b34801561099257600080fd5b506109bf600480360360208110156109a957600080fd5b8101908080359060200190929190505050612c6b565b604051808381526020018273ffffffffffffffffffffffffffffffffffffffff1681526020019250505060405180910390f35b3480156109fe57600080fd5b50610a07612caf565b604051808273ffffffffffffffffffffffffffffffffffffffff16815260200191505060405180910390f35b348015610a3f57600080fd5b50610a6c60048036036020811015610a5657600080fd5b8101908080359060200190929190505050612cd9565b604051808673ffffffffffffffffffffffffffffffffffffffff1681526020018573ffffffffffffffffffffffffffffffffffffffff1681526020018481526020018381526020018281526020019550505050505060405180910390f35b348015610ad657600080fd5b50610b2560048036036040811015610aed57600080fd5b81019080803573ffffffffffffffffffffffffffffffffffffffff169060200190929190803515159060200190929190505050612d4f565b005b348015610b3357600080fd5b50610b6a60048036036040811015610b4a57600080fd5b810190808035906020019092919080359060200190929190505050612ee8565b005b610b746135ef565b005b348015610b8257600080fd5b50610baf60048036036020811015610b9957600080fd5b8101908080359060200190929190505050613678565b6040518082815260200191505060405180910390f35b348015610bd157600080fd5b50610df3600480360360a0811015610be857600080fd5b81019080803573ffffffffffffffffffffffffffffffffffffffff169060200190929190803573ffffffffffffffffffffffffffffffffffffffff16906020019092919080359060200190640100000000811115610c4557600080fd5b820183602082011115610c5757600080fd5b80359060200191846020830284011164010000000083111715610c7957600080fd5b919080806020026020016040519081016040528093929190818152602001838360200280828437600081840152601f19601f82011690508083019250505050505050919291929080359060200190640100000000811115610cd957600080fd5b820183602082011115610ceb57600080fd5b80359060200191846020830284011164010000000083111715610d0d57600080fd5b919080806020026020016040519081016040528093929190818152602001838360200280828437600081840152601f19601f82011690508083019250505050505050919291929080359060200190640100000000811115610d6d57600080fd5b820183602082011115610d7f57600080fd5b80359060200191846001830284011164010000000083111715610da157600080fd5b91908080601f016020809104026020016040519081016040528093929190818152602001838380828437600081840152601f19601f8201169050808301925050505050505091929192905050506136e5565b60405180827bffffffffffffffffffffffffffffffffffffffffffffffffffffffff1916815260200191505060405180910390f35b348015610e3457600080fd5b50610e6160048036036020811015610e4b57600080fd5b81019080803590602001909291905050506136fa565b005b348015610e6f57600080fd5b50610e9c60048036036020811015610e8657600080fd5b81019080803590602001909291905050506137ff565b60405180821515815260200191505060405180910390f35b348015610ec057600080fd5b50610f2360048036036040811015610ed757600080fd5b81019080803573ffffffffffffffffffffffffffffffffffffffff169060200190929190803573ffffffffffffffffffffffffffffffffffffffff16906020019092919050505061381f565b60405180821515815260200191505060405180910390f35b348015610f4757600080fd5b50611055600480360360a0811015610f5e57600080fd5b81019080803573ffffffffffffffffffffffffffffffffffffffff169060200190929190803573ffffffffffffffffffffffffffffffffffffffff169060200190929190803590602001909291908035906020019092919080359060200190640100000000811115610fcf57600080fd5b820183602082011115610fe157600080fd5b8035906020019184600183028401116401000000008311171561100357600080fd5b91908080601f016020809104026020016040519081016040528093929190818152602001838380828437600081840152601f19601f8201169050808301925050505050505091929192905050506138b3565b60405180827bffffffffffffffffffffffffffffffffffffffffffffffffffffffff1916815260200191505060405180910390f35b34801561109657600080fd5b506111a4600480360360a08110156110ad57600080fd5b81019080803573ffffffffffffffffffffffffffffffffffffffff169060200190929190803573ffffffffffffffffffffffffffffffffffffffff16906020019092919080359060200190929190803590602001909291908035906020019064010000000081111561111e57600080fd5b82018360208201111561113057600080fd5b8035906020019184600183028401116401000000008311171561115257600080fd5b91908080601f016020809104026020016040519081016040528093929190818152602001838380828437600081840152601f19601f8201169050808301925050505050505091929192905050506138c8565b005b3480156111b257600080fd5b506111f5600480360360208110156111c957600080fd5b81019080803573ffffffffffffffffffffffffffffffffffffffff169060200190929190505050613b9a565b005b60008073ffffffffffffffffffffffffffffffffffffffff168373ffffffffffffffffffffffffffffffffffffffff16141561127e576040517f08c379a000000000000000000000000000000000000000000000000000000000815260040180806020018281038252602b815260200180614b94602b913960400191505060405180910390fd5b6001600083815260200190815260200160002060008473ffffffffffffffffffffffffffffffffffffffff1673ffffffffffffffffffffffffffffffffffffffff16815260200190815260200160002054905092915050565b6000806000837bffffffffffffffffffffffffffffffffffffffffffffffffffffffff19167bffffffffffffffffffffffffffffffffffffffffffffffffffffffff1916815260200190815260200160002060009054906101000a900460ff169050919050565b606061134982613e2a565b6040516020018080614c876053913960530182805190602001908083835b6020831061138a5780518252602082019150602081019050602083039250611367565b6001836020036101000a038019825116818451168082178552505050505050905001807f2e6a736f6e0000000000000000000000000000000000000000000000000000008152506005019150506040516020818303038152906040529050919050565b6113f5613f7a565b73ffffffffffffffffffffffffffffffffffffffff16611413612caf565b73ffffffffffffffffffffffffffffffffffffffff161461149c576040517f08c379a00000000000000000000000000000000000000000000000000000000081526004018080602001828103825260208152602001807f4f776e61626c653a2063616c6c6572206973206e6f7420746865206f776e657281525060200191505060405180910390fd5b3373ffffffffffffffffffffffffffffffffffffffff166108fc479081150290604051600060405180830381858888f193505050501580156114e2573d6000803e3d6000fd5b50565b815183511461153f576040517f08c379a0000000000000000000000000000000000000000000000000000000008152600401808060200182810382526028815260200180614d4f6028913960400191505060405180910390fd5b600073ffffffffffffffffffffffffffffffffffffffff168473ffffffffffffffffffffffffffffffffffffffff1614156115c5576040517f08c379a0000000000000000000000000000000000000000000000000000000008152600401808060200182810382526025815260200180614be56025913960400191505060405180910390fd5b6115cd613f7a565b73ffffffffffffffffffffffffffffffffffffffff168573ffffffffffffffffffffffffffffffffffffffff16148061161357506116128561160d613f7a565b61381f565b5b611668576040517f08c379a0000000000000000000000000000000000000000000000000000000008152600401808060200182810382526032815260200180614c0a6032913960400191505060405180910390fd5b6000611672613f7a565b9050611682818787878787613f82565b60005b845181101561185357600085828151811061169c57fe5b6020026020010151905060008583815181106116b457fe5b6020026020010151905061173b816040518060600160405280602a8152602001614c3c602a91396001600086815260200190815260200160002060008d73ffffffffffffffffffffffffffffffffffffffff1673ffffffffffffffffffffffffffffffffffffffff16815260200190815260200160002054613f8a9092919063ffffffff16565b6001600084815260200190815260200160002060008b73ffffffffffffffffffffffffffffffffffffffff1673ffffffffffffffffffffffffffffffffffffffff168152602001908152602001600020819055506117f2816001600085815260200190815260200160002060008b73ffffffffffffffffffffffffffffffffffffffff1673ffffffffffffffffffffffffffffffffffffffff16815260200190815260200160002054613d8f90919063ffffffff16565b6001600084815260200190815260200160002060008a73ffffffffffffffffffffffffffffffffffffffff1673ffffffffffffffffffffffffffffffffffffffff168152602001908152602001600020819055505050806001019050611685565b508473ffffffffffffffffffffffffffffffffffffffff168673ffffffffffffffffffffffffffffffffffffffff168273ffffffffffffffffffffffffffffffffffffffff167f4a39dc06d4c0dbc64b70af90fd698a233a518aa5d07e595d983b8c0526c8f7fb8787604051808060200180602001838103835285818151815260200191508051906020019060200280838360005b838110156119035780820151818401526020810190506118e8565b50505050905001838103825284818151815260200191508051906020019060200280838360005b8381101561194557808201518184015260208101905061192a565b5050505090500194505050505060405180910390a4611968818787878787614044565b505050505050565b6119b384308460016040518060400160405280600481526020017f30783030000000000000000000000000000000000000000000000000000000008152506138c8565b6119f683308360016040518060400160405280600481526020017f30783030000000000000000000000000000000000000000000000000000000008152506138c8565b6001600c5401600c8190555083600b6000600c54815260200190815260200160002060000160006101000a81548173ffffffffffffffffffffffffffffffffffffffff021916908373ffffffffffffffffffffffffffffffffffffffff16021790555082600b6000600c54815260200190815260200160002060010160006101000a81548173ffffffffffffffffffffffffffffffffffffffff021916908373ffffffffffffffffffffffffffffffffffffffff16021790555081600b6000600c5481526020019081526020016000206003018190555080600b6000600c548152602001908152602001600020600401819055507fe8e48f965359347b53e35c68f47141bbd4ddb8fe03babb3552ef646d63195a2e84848484600c54604051808673ffffffffffffffffffffffffffffffffffffffff1681526020018573ffffffffffffffffffffffffffffffffffffffff1681526020018481526020018381526020018281526020019550505050505060405180910390a150505050565b60608151835114611bd1576040517f08c379a0000000000000000000000000000000000000000000000000000000008152600401808060200182810382526029815260200180614d266029913960400191505060405180910390fd5b6000835167ffffffffffffffff81118015611beb57600080fd5b50604051908082528060200260200182016040528015611c1a5781602001602082028036833780820191505090505b50905060005b8451811015611c7c57611c59858281518110611c3857fe5b6020026020010151858381518110611c4c57fe5b60200260200101516111f7565b828281518110611c6557fe5b602002602001018181525050806001019050611c20565b508091505092915050565b6103e782118015611c9957506103e781115b611d0b576040517f08c379a000000000000000000000000000000000000000000000000000000000815260040180806020018281038252601b8152602001807f5374616b6520616d6f75756e74206d6f7265207468616e20313030000000000081525060200191505060405180910390fd5b808214611d63576040517f08c379a0000000000000000000000000000000000000000000000000000000008152600401808060200182810382526023815260200180614cda6023913960400191505060405180910390fd5b611da684306000856040518060400160405280600481526020017f30783030000000000000000000000000000000000000000000000000000000008152506138c8565b611de983306000856040518060400160405280600481526020017f30783030000000000000000000000000000000000000000000000000000000008152506138c8565b6001600c5401600c8190555083600b6000600c54815260200190815260200160002060000160006101000a81548173ffffffffffffffffffffffffffffffffffffffff021916908373ffffffffffffffffffffffffffffffffffffffff16021790555082600b6000600c54815260200190815260200160002060010160006101000a81548173ffffffffffffffffffffffffffffffffffffffff021916908373ffffffffffffffffffffffffffffffffffffffff16021790555081600b6000600c548152602001908152602001600020600201819055507f232d5eca77eb4f9f8975d79eaf3bba23160bc74474119a5740e68a4c9e0b4411848484600c54604051808573ffffffffffffffffffffffffffffffffffffffff1681526020018473ffffffffffffffffffffffffffffffffffffffff16815260200183815260200182815260200194505050505060405180910390a150505050565b8173ffffffffffffffffffffffffffffffffffffffff163373ffffffffffffffffffffffffffffffffffffffff1614611fe4576040517f08c379a000000000000000000000000000000000000000000000000000000000815260040180806020018281038252601c8152602001807f596f7520617265206e6f7420746865206f776e6572206f66204e46540000000081525060200191505060405180910390fd5b80611ff08460006111f7565b1015612064576040517f08c379a00000000000000000000000000000000000000000000000000000000081526004018080602001828103825260148152602001807f20496e737566666963656e742062616c616e636500000000000000000000000081525060200191505060405180910390fd5b600161207083866111f7565b146120e3576040517f08c379a000000000000000000000000000000000000000000000000000000000815260040180806020018281038252601e8152602001807f204164647265737320646f6573206e6f74206f776e2074686973204e4654000081525060200191505060405180910390fd5b6121008284866001604051806020016040528060008152506138c8565b61211d8383600084604051806020016040528060008152506138c8565b7fbdb900ec31711d524dee34be70e14d497b8281561cd9ac5ae8841ff5742b0c2e84848484604051808581526020018473ffffffffffffffffffffffffffffffffffffffff1681526020018373ffffffffffffffffffffffffffffffffffffffff16815260200182815260200194505050505060405180910390a150505050565b60248210612214576040517f08c379a00000000000000000000000000000000000000000000000000000000081526004018080602001828103825260158152602001807f456e74657220612076616c696420746f6b656e4944000000000000000000000081525060200191505060405180910390fd5b600061221f83613678565b905080421115612340577f9d8bf96ba61e08b7a2aba2e162f4d70fa08020e2448aa3996afd07c842a2009283600d600086815260200190815260200160002060000154600d600087815260200190815260200160002060010160009054906101000a900473ffffffffffffffffffffffffffffffffffffffff16604051808481526020018381526020018273ffffffffffffffffffffffffffffffffffffffff168152602001935050505060405180910390a16040517f08c379a000000000000000000000000000000000000000000000000000000000815260040180806020018281038252601e8152602001807f41756374696f6e20666f722074686973204e46742068617320656e646564000081525060200191505060405180910390fd5b81600854106123b7576040517f08c379a000000000000000000000000000000000000000000000000000000000815260040180806020018281038252601c8152602001807f53656e64206d6f7265207468616e204d696e696d756d2070726963650000000081525060200191505060405180910390fd5b81600d60008581526020019081526020016000206000015410612425576040517f08c379a000000000000000000000000000000000000000000000000000000000815260040180806020018281038252602e815260200180614d98602e913960400191505060405180910390fd5b61246830336000856040518060400160405280600481526020017f30783030000000000000000000000000000000000000000000000000000000008152506138c8565b33600d600085815260200190815260200160002060010160006101000a81548173ffffffffffffffffffffffffffffffffffffffff021916908373ffffffffffffffffffffffffffffffffffffffff16021790555081600d6000858152602001908152602001600020600001819055507f491a61925fe814e3c6a2edb453b31d8ef115669d8b40977fa683c00cf3f6eaa5838333604051808481526020018381526020018273ffffffffffffffffffffffffffffffffffffffff168152602001935050505060405180910390a1505050565b612542613f7a565b73ffffffffffffffffffffffffffffffffffffffff16612560612caf565b73ffffffffffffffffffffffffffffffffffffffff16146125e9576040517f08c379a00000000000000000000000000000000000000000000000000000000081526004018080602001828103825260208152602001807f4f776e61626c653a2063616c6c6572206973206e6f7420746865206f776e657281525060200191505060405180910390fd5b600073ffffffffffffffffffffffffffffffffffffffff16600460009054906101000a900473ffffffffffffffffffffffffffffffffffffffff1673ffffffffffffffffffffffffffffffffffffffff167f8be0079c531659141344cd1fd0a4f28419497f9722a3daafe3b4186f6b6457e060405160405180910390a36000600460006101000a81548173ffffffffffffffffffffffffffffffffffffffff021916908373ffffffffffffffffffffffffffffffffffffffff160217905550565b6201869f8111612722576040517f08c379a000000000000000000000000000000000000000000000000000000000815260040180806020018281038252601e8152602001807f204e6f742073756666696369656e742068657373746f6b656e2073656e74000081525060200191505060405180910390fd5b61273f3330600084604051806020016040528060008152506138c8565b600061275661274f83600b6143d3565b600a61445c565b90503373ffffffffffffffffffffffffffffffffffffffff166108fc829081150290604051600060405180830381858888f1935050505015801561279e573d6000803e3d6000fd5b507f24921ecb06cf8e1553b7087749aa21be99f88e10db60f351fb2d57e62fa8b8198233604051808381526020018273ffffffffffffffffffffffffffffffffffffffff1681526020019250505060405180910390a15050565b600081101580156128095750600381105b61287b576040517f08c379a00000000000000000000000000000000000000000000000000000000081526004018080602001828103825260158152602001807f57726f6e67207374617475732070726f7669646564000000000000000000000081525060200191505060405180910390fd5b600080600183141561299057600b600085815260200190815260200160002060000160009054906101000a900473ffffffffffffffffffffffffffffffffffffffff169150600b600085815260200190815260200160002060010160009054906101000a900473ffffffffffffffffffffffffffffffffffffffff16905061298b30600b600087815260200190815260200160002060000160009054906101000a900473ffffffffffffffffffffffffffffffffffffffff1660006002600b60008a815260200190815260200160002060020154026040518060400160405280600481526020017f30783030000000000000000000000000000000000000000000000000000000008152506138c8565b612bd4565b6002831415612aa257600b600085815260200190815260200160002060010160009054906101000a900473ffffffffffffffffffffffffffffffffffffffff169150600b600085815260200190815260200160002060000160009054906101000a900473ffffffffffffffffffffffffffffffffffffffff169050612a9d30600b600087815260200190815260200160002060010160009054906101000a900473ffffffffffffffffffffffffffffffffffffffff1660006002600b60008a815260200190815260200160002060020154026040518060400160405280600481526020017f30783030000000000000000000000000000000000000000000000000000000008152506138c8565b612bd3565b6000831415612bd2576000915060009050612b4230600b600087815260200190815260200160002060000160009054906101000a900473ffffffffffffffffffffffffffffffffffffffff166000600b6000898152602001908152602001600020600201546040518060400160405280600481526020017f30783030000000000000000000000000000000000000000000000000000000008152506138c8565b612bd130600b600087815260200190815260200160002060010160009054906101000a900473ffffffffffffffffffffffffffffffffffffffff166000600b6000898152602001908152602001600020600201546040518060400160405280600481526020017f30783030000000000000000000000000000000000000000000000000000000008152506138c8565b5b5b5b7f0f3cc43a4905a7e594860f94088da702a0d44a0a348aec2e6a7461b35970edc78282600b60008881526020019081526020016000206002015487604051808573ffffffffffffffffffffffffffffffffffffffff1681526020018473ffffffffffffffffffffffffffffffffffffffff16815260200183815260200182815260200194505050505060405180910390a150505050565b600d6020528060005260406000206000915090508060000154908060010160009054906101000a900473ffffffffffffffffffffffffffffffffffffffff16905082565b6000600460009054906101000a900473ffffffffffffffffffffffffffffffffffffffff16905090565b600b6020528060005260406000206000915090508060000160009054906101000a900473ffffffffffffffffffffffffffffffffffffffff16908060010160009054906101000a900473ffffffffffffffffffffffffffffffffffffffff16908060020154908060030154908060040154905085565b8173ffffffffffffffffffffffffffffffffffffffff16612d6e613f7a565b73ffffffffffffffffffffffffffffffffffffffff161415612ddb576040517f08c379a0000000000000000000000000000000000000000000000000000000008152600401808060200182810382526029815260200180614cfd6029913960400191505060405180910390fd5b8060026000612de8613f7a565b73ffffffffffffffffffffffffffffffffffffffff1673ffffffffffffffffffffffffffffffffffffffff16815260200190815260200160002060008473ffffffffffffffffffffffffffffffffffffffff1673ffffffffffffffffffffffffffffffffffffffff16815260200190815260200160002060006101000a81548160ff0219169083151502179055508173ffffffffffffffffffffffffffffffffffffffff16612e95613f7a565b73ffffffffffffffffffffffffffffffffffffffff167f17307eab39ab6107e8899845ad3d59bd9653f200f220920489ca2b5937696c318360405180821515815260200191505060405180910390a35050565b60008110158015612ef95750600381105b612f6b576040517f08c379a00000000000000000000000000000000000000000000000000000000081526004018080602001828103825260158152602001807f57726f6e67207374617475732070726f7669646564000000000000000000000081525060200191505060405180910390fd5b60008060018314156131bb57600b600085815260200190815260200160002060000160009054906101000a900473ffffffffffffffffffffffffffffffffffffffff169150600b600085815260200190815260200160002060010160009054906101000a900473ffffffffffffffffffffffffffffffffffffffff16905061307830600b600087815260200190815260200160002060000160009054906101000a900473ffffffffffffffffffffffffffffffffffffffff16600b60008881526020019081526020016000206003015460016040518060400160405280600481526020017f30783030000000000000000000000000000000000000000000000000000000008152506138c8565b61310730600b600087815260200190815260200160002060000160009054906101000a900473ffffffffffffffffffffffffffffffffffffffff16600b60008881526020019081526020016000206004015460016040518060400160405280600481526020017f30783030000000000000000000000000000000000000000000000000000000008152506138c8565b7f66d52dfddb65a7d01d9130a16e70bdcbb5a7328995bd7130f6423bffb67b17588282600b600088815260200190815260200160002060030154600b60008981526020019081526020016000206004015488604051808673ffffffffffffffffffffffffffffffffffffffff1681526020018573ffffffffffffffffffffffffffffffffffffffff1681526020018481526020018381526020018281526020019550505050505060405180910390a16135e9565b600283141561340857600b600085815260200190815260200160002060010160009054906101000a900473ffffffffffffffffffffffffffffffffffffffff169150600b600085815260200190815260200160002060000160009054906101000a900473ffffffffffffffffffffffffffffffffffffffff1690506132c530600b600087815260200190815260200160002060010160009054906101000a900473ffffffffffffffffffffffffffffffffffffffff16600b60008881526020019081526020016000206003015460016040518060400160405280600481526020017f30783030000000000000000000000000000000000000000000000000000000008152506138c8565b61335430600b600087815260200190815260200160002060010160009054906101000a900473ffffffffffffffffffffffffffffffffffffffff16600b60008881526020019081526020016000206004015460016040518060400160405280600481526020017f30783030000000000000000000000000000000000000000000000000000000008152506138c8565b7f66d52dfddb65a7d01d9130a16e70bdcbb5a7328995bd7130f6423bffb67b17588282600b600088815260200190815260200160002060040154600b60008981526020019081526020016000206003015488604051808673ffffffffffffffffffffffffffffffffffffffff1681526020018573ffffffffffffffffffffffffffffffffffffffff1681526020018481526020018381526020018281526020019550505050505060405180910390a16135e8565b60008314156135e75760009150600090506134a830600b600087815260200190815260200160002060000160009054906101000a900473ffffffffffffffffffffffffffffffffffffffff16600b60008881526020019081526020016000206003015460016040518060400160405280600481526020017f30783030000000000000000000000000000000000000000000000000000000008152506138c8565b61353730600b600087815260200190815260200160002060010160009054906101000a900473ffffffffffffffffffffffffffffffffffffffff16600b60008881526020019081526020016000206004015460016040518060400160405280600481526020017f30783030000000000000000000000000000000000000000000000000000000008152506138c8565b7f66d52dfddb65a7d01d9130a16e70bdcbb5a7328995bd7130f6423bffb67b17588282600b600088815260200190815260200160002060030154600b60008981526020019081526020016000206004015488604051808673ffffffffffffffffffffffffffffffffffffffff1681526020018573ffffffffffffffffffffffffffffffffffffffff1681526020018481526020018381526020018281526020019550505050505060405180910390a15b5b5b50505050565b600061360134655af3107a40006143d3565b90506136203033600084604051806020016040528060008152506138c8565b7f2fd2c792f325a4c215c4cfa8f99030ab35a3987e16a5ef438f94c668ff7333848133604051808381526020018273ffffffffffffffffffffffffffffffffffffffff1681526020019250505060405180910390a150565b60008060001515600e600085815260200190815260200160002060009054906101000a900460ff16151514156136dc576001600e600085815260200190815260200160002060006101000a81548160ff021916908315150217905550600954420190505b80915050919050565b600063bc197c8160e01b905095945050505050565b613702613f7a565b73ffffffffffffffffffffffffffffffffffffffff16613720612caf565b73ffffffffffffffffffffffffffffffffffffffff16146137a9576040517f08c379a00000000000000000000000000000000000000000000000000000000081526004018080602001828103825260208152602001807f4f776e61626c653a2063616c6c6572206973206e6f7420746865206f776e657281525060200191505060405180910390fd5b6137c530600083604051806020016040528060008152506144e2565b7f4f96a7142ed083515e4b1d9465c6aed73305b4a9c4aa4559edadeb098439ed5c816040518082815260200191505060405180910390a150565b600e6020528060005260406000206000915054906101000a900460ff1681565b6000600260008473ffffffffffffffffffffffffffffffffffffffff1673ffffffffffffffffffffffffffffffffffffffff16815260200190815260200160002060008373ffffffffffffffffffffffffffffffffffffffff1673ffffffffffffffffffffffffffffffffffffffff16815260200190815260200160002060009054906101000a900460ff16905092915050565b600063f23a6e6160e01b905095945050505050565b600073ffffffffffffffffffffffffffffffffffffffff168473ffffffffffffffffffffffffffffffffffffffff16141561394e576040517f08c379a0000000000000000000000000000000000000000000000000000000008152600401808060200182810382526025815260200180614be56025913960400191505060405180910390fd5b6000613958613f7a565b9050613978818787613969886146e5565b613972886146e5565b87613f82565b6139f5836040518060600160405280602a8152602001614c3c602a91396001600088815260200190815260200160002060008a73ffffffffffffffffffffffffffffffffffffffff1673ffffffffffffffffffffffffffffffffffffffff16815260200190815260200160002054613f8a9092919063ffffffff16565b6001600086815260200190815260200160002060008873ffffffffffffffffffffffffffffffffffffffff1673ffffffffffffffffffffffffffffffffffffffff16815260200190815260200160002081905550613aac836001600087815260200190815260200160002060008873ffffffffffffffffffffffffffffffffffffffff1673ffffffffffffffffffffffffffffffffffffffff16815260200190815260200160002054613d8f90919063ffffffff16565b6001600086815260200190815260200160002060008773ffffffffffffffffffffffffffffffffffffffff1673ffffffffffffffffffffffffffffffffffffffff168152602001908152602001600020819055508473ffffffffffffffffffffffffffffffffffffffff168673ffffffffffffffffffffffffffffffffffffffff168273ffffffffffffffffffffffffffffffffffffffff167fc3d58168c5ae7397731d063d5bbf3d657854427343f4c083240f7aacaa2d0f628787604051808381526020018281526020019250505060405180910390a4613b92818787878787614756565b505050505050565b613ba2613f7a565b73ffffffffffffffffffffffffffffffffffffffff16613bc0612caf565b73ffffffffffffffffffffffffffffffffffffffff1614613c49576040517f08c379a00000000000000000000000000000000000000000000000000000000081526004018080602001828103825260208152602001807f4f776e61626c653a2063616c6c6572206973206e6f7420746865206f776e657281525060200191505060405180910390fd5b600073ffffffffffffffffffffffffffffffffffffffff168173ffffffffffffffffffffffffffffffffffffffff161415613ccf576040517f08c379a0000000000000000000000000000000000000000000000000000000008152600401808060200182810382526026815260200180614bbf6026913960400191505060405180910390fd5b8073ffffffffffffffffffffffffffffffffffffffff16600460009054906101000a900473ffffffffffffffffffffffffffffffffffffffff1673ffffffffffffffffffffffffffffffffffffffff167f8be0079c531659141344cd1fd0a4f28419497f9722a3daafe3b4186f6b6457e060405160405180910390a380600460006101000a81548173ffffffffffffffffffffffffffffffffffffffff021916908373ffffffffffffffffffffffffffffffffffffffff16021790555050565b600080828401905083811015613e0d576040517f08c379a000000000000000000000000000000000000000000000000000000000815260040180806020018281038252601b8152602001807f536166654d6174683a206164646974696f6e206f766572666c6f77000000000081525060200191505060405180910390fd5b8091505092915050565b600080823b905060008111915050919050565b60606000821415613e72576040518060400160405280600181526020017f30000000000000000000000000000000000000000000000000000000000000008152509050613f75565b600082905060005b60008214613e9c578080600101915050600a8281613e9457fe5b049150613e7a565b60008167ffffffffffffffff81118015613eb557600080fd5b506040519080825280601f01601f191660200182016040528015613ee85781602001600182028036833780820191505090505b50905060008290505b60008614613f6d576001810390506000600a808881613f0c57fe5b04028703603001905060008160f81b905080848481518110613f2a57fe5b60200101907effffffffffffffffffffffffffffffffffffffffffffffffffffffffffffff1916908160001a905350600a8881613f6357fe5b0497505050613ef1565b819450505050505b919050565b600033905090565b505050505050565b6000838311158290614037576040517f08c379a00000000000000000000000000000000000000000000000000000000081526004018080602001828103825283818151815260200191508051906020019080838360005b83811015613ffc578082015181840152602081019050613fe1565b50505050905090810190601f1680156140295780820380516001836020036101000a031916815260200191505b509250505060405180910390fd5b5082840390509392505050565b6140638473ffffffffffffffffffffffffffffffffffffffff16613e17565b156143cb578373ffffffffffffffffffffffffffffffffffffffff1663bc197c8187878686866040518663ffffffff1660e01b8152600401808673ffffffffffffffffffffffffffffffffffffffff1681526020018573ffffffffffffffffffffffffffffffffffffffff168152602001806020018060200180602001848103845287818151815260200191508051906020019060200280838360005b8381101561411b578082015181840152602081019050614100565b50505050905001848103835286818151815260200191508051906020019060200280838360005b8381101561415d578082015181840152602081019050614142565b50505050905001848103825285818151815260200191508051906020019080838360005b8381101561419c578082015181840152602081019050614181565b50505050905090810190601f1680156141c95780820380516001836020036101000a031916815260200191505b5098505050505050505050602060405180830381600087803b1580156141ee57600080fd5b505af192505050801561422257506040513d602081101561420e57600080fd5b810190808051906020019092919050505060015b61432c5761422e614a81565b8061423957506142db565b806040517f08c379a00000000000000000000000000000000000000000000000000000000081526004018080602001828103825283818151815260200191508051906020019080838360005b838110156142a0578082015181840152602081019050614285565b50505050905090810190601f1680156142cd5780820380516001836020036101000a031916815260200191505b509250505060405180910390fd5b6040517f08c379a0000000000000000000000000000000000000000000000000000000008152600401808060200182810382526034815260200180614b386034913960400191505060405180910390fd5b63bc197c8160e01b7bffffffffffffffffffffffffffffffffffffffffffffffffffffffff1916817bffffffffffffffffffffffffffffffffffffffffffffffffffffffff1916146143c9576040517f08c379a0000000000000000000000000000000000000000000000000000000008152600401808060200182810382526028815260200180614b6c6028913960400191505060405180910390fd5b505b505050505050565b600080821161444a576040517f08c379a000000000000000000000000000000000000000000000000000000000815260040180806020018281038252601a8152602001807f536166654d6174683a206469766973696f6e206279207a65726f00000000000081525060200191505060405180910390fd5b81838161445357fe5b04905092915050565b60008083141561446f57600090506144dc565b600082840290508284828161448057fe5b04146144d7576040517f08c379a0000000000000000000000000000000000000000000000000000000008152600401808060200182810382526021815260200180614c666021913960400191505060405180910390fd5b809150505b92915050565b600073ffffffffffffffffffffffffffffffffffffffff168473ffffffffffffffffffffffffffffffffffffffff161415614568576040517f08c379a0000000000000000000000000000000000000000000000000000000008152600401808060200182810382526021815260200180614d776021913960400191505060405180910390fd5b6000614572613f7a565b905061459381600087614584886146e5565b61458d886146e5565b87613f82565b6145f6836001600087815260200190815260200160002060008873ffffffffffffffffffffffffffffffffffffffff1673ffffffffffffffffffffffffffffffffffffffff16815260200190815260200160002054613d8f90919063ffffffff16565b6001600086815260200190815260200160002060008773ffffffffffffffffffffffffffffffffffffffff1673ffffffffffffffffffffffffffffffffffffffff168152602001908152602001600020819055508473ffffffffffffffffffffffffffffffffffffffff16600073ffffffffffffffffffffffffffffffffffffffff168273ffffffffffffffffffffffffffffffffffffffff167fc3d58168c5ae7397731d063d5bbf3d657854427343f4c083240f7aacaa2d0f628787604051808381526020018281526020019250505060405180910390a46146de81600087878787614756565b5050505050565b60606000600167ffffffffffffffff8111801561470157600080fd5b506040519080825280602002602001820160405280156147305781602001602082028036833780820191505090505b509050828160008151811061474157fe5b60200260200101818152505080915050919050565b6147758473ffffffffffffffffffffffffffffffffffffffff16613e17565b15614a5b578373ffffffffffffffffffffffffffffffffffffffff1663f23a6e6187878686866040518663ffffffff1660e01b8152600401808673ffffffffffffffffffffffffffffffffffffffff1681526020018573ffffffffffffffffffffffffffffffffffffffff16815260200184815260200183815260200180602001828103825283818151815260200191508051906020019080838360005b8381101561482e578082015181840152602081019050614813565b50505050905090810190601f16801561485b5780820380516001836020036101000a031916815260200191505b509650505050505050602060405180830381600087803b15801561487e57600080fd5b505af19250505080156148b257506040513d602081101561489e57600080fd5b810190808051906020019092919050505060015b6149bc576148be614a81565b806148c9575061496b565b806040517f08c379a00000000000000000000000000000000000000000000000000000000081526004018080602001828103825283818151815260200191508051906020019080838360005b83811015614930578082015181840152602081019050614915565b50505050905090810190601f16801561495d5780820380516001836020036101000a031916815260200191505b509250505060405180910390fd5b6040517f08c379a0000000000000000000000000000000000000000000000000000000008152600401808060200182810382526034815260200180614b386034913960400191505060405180910390fd5b63f23a6e6160e01b7bffffffffffffffffffffffffffffffffffffffffffffffffffffffff1916817bffffffffffffffffffffffffffffffffffffffffffffffffffffffff191614614a59576040517f08c379a0000000000000000000000000000000000000000000000000000000008152600401808060200182810382526028815260200180614b6c6028913960400191505060405180910390fd5b505b505050505050565b6000601f19601f8301169050919050565b60008160e01c9050919050565b600060443d1015614a9157614b34565b60046000803e614aa2600051614a74565b6308c379a08114614ab35750614b34565b60405160043d036004823e80513d602482011167ffffffffffffffff82111715614adf57505050614b34565b808201805167ffffffffffffffff811115614afe575050505050614b34565b8060208301013d8501811115614b1957505050505050614b34565b614b2282614a63565b60208401016040528296505050505050505b9056fe455243313135353a207472616e7366657220746f206e6f6e2045524331313535526563656976657220696d706c656d656e746572455243313135353a204552433131353552656365697665722072656a656374656420746f6b656e73455243313135353a2062616c616e636520717565727920666f7220746865207a65726f20616464726573734f776e61626c653a206e6577206f776e657220697320746865207a65726f2061646472657373455243313135353a207472616e7366657220746f20746865207a65726f2061646472657373455243313135353a207472616e736665722063616c6c6572206973206e6f74206f776e6572206e6f7220617070726f766564455243313135353a20696e73756666696369656e742062616c616e636520666f72207472616e73666572536166654d6174683a206d756c7469706c69636174696f6e206f766572666c6f7768747470733a2f2f62616679626569623570716e377a346c33736878686a6836373478673374766169706261346a6576326a656772756d7974756d77776732666b71652e697066732e647765622e6c696e6b2f426f74682068617665206e6f74207374616b65642073696d696c617220616d6f756e74455243313135353a2073657474696e6720617070726f76616c2073746174757320666f722073656c66455243313135353a206163636f756e747320616e6420696473206c656e677468206d69736d61746368455243313135353a2069647320616e6420616d6f756e7473206c656e677468206d69736d61746368455243313135353a206d696e7420746f20746865207a65726f2061646472657373426964206f6620657175616c20616d6f756e74206f66204772656174657220616c72656164792070726573656e74a2646970667358221220f95795997295f19b2cb89a13109c796a0ccdeb0921f38846d77f715f65ff844b64736f6c63430007060033455243313135353a207472616e7366657220746f206e6f6e2045524331313535526563656976657220696d706c656d656e746572455243313135353a204552433131353552656365697665722072656a656374656420746f6b656e73455243313135353a206d696e7420746f20746865207a65726f2061646472657373",
  "immutableReferences": {},
  "source": "// SPDX-License-Identifier: MIT\n\npragma solidity >=0.6.0 <0.8.0;\n\n/**\n *\n * @dev Implementation of the basic standard multi-token.\n * See https://eips.ethereum.org/EIPS/eip-1155\n * Originally based on code by Enjin: https://github.com/enjin/erc-1155\n *\n * _Available since v3.1._\n */\n\n\n\n pragma solidity >=0.6.2 <0.8.0;\n\n /**\n  * @dev Collection of functions related to the address type\n  */\n library Address {\n     /**\n      * @dev Returns true if `account` is a contract.\n      *\n      * [IMPORTANT]\n      * ====\n      * It is unsafe to assume that an address for which this function returns\n      * false is an externally-owned account (EOA) and not a contract.\n      *\n      * Among others, `isContract` will return false for the following\n      * types of addresses:\n      *\n      *  - an externally-owned account\n      *  - a contract in construction\n      *  - an address where a contract will be created\n      *  - an address where a contract lived, but was destroyed\n      * ====\n      */\n     function isContract(address account) internal view returns (bool) {\n         // This method relies on extcodesize, which returns 0 for contracts in\n         // construction, since the code is only stored at the end of the\n         // constructor execution.\n\n         uint256 size;\n         // solhint-disable-next-line no-inline-assembly\n         assembly { size := extcodesize(account) }\n         return size > 0;\n     }\n\n     /**\n      * @dev Replacement for Solidity's `transfer`: sends `amount` wei to\n      * `recipient`, forwarding all available gas and reverting on errors.\n      *\n      * https://eips.ethereum.org/EIPS/eip-1884[EIP1884] increases the gas cost\n      * of certain opcodes, possibly making contracts go over the 2300 gas limit\n      * imposed by `transfer`, making them unable to receive funds via\n      * `transfer`. {sendValue} removes this limitation.\n      *\n      * https://diligence.consensys.net/posts/2019/09/stop-using-soliditys-transfer-now/[Learn more].\n      *\n      * IMPORTANT: because control is transferred to `recipient`, care must be\n      * taken to not create reentrancy vulnerabilities. Consider using\n      * {ReentrancyGuard} or the\n      * https://solidity.readthedocs.io/en/v0.5.11/security-considerations.html#use-the-checks-effects-interactions-pattern[checks-effects-interactions pattern].\n      */\n     function sendValue(address payable recipient, uint256 amount) internal {\n         require(address(this).balance >= amount, \"Address: insufficient balance\");\n\n         // solhint-disable-next-line avoid-low-level-calls, avoid-call-value\n         (bool success, ) = recipient.call{ value: amount }(\"\");\n         require(success, \"Address: unable to send value, recipient may have reverted\");\n     }\n\n     /**\n      * @dev Performs a Solidity function call using a low level `call`. A\n      * plain`call` is an unsafe replacement for a function call: use this\n      * function instead.\n      *\n      * If `target` reverts with a revert reason, it is bubbled up by this\n      * function (like regular Solidity function calls).\n      *\n      * Returns the raw returned data. To convert to the expected return value,\n      * use https://solidity.readthedocs.io/en/latest/units-and-global-variables.html?highlight=abi.decode#abi-encoding-and-decoding-functions[`abi.decode`].\n      *\n      * Requirements:\n      *\n      * - `target` must be a contract.\n      * - calling `target` with `data` must not revert.\n      *\n      * _Available since v3.1._\n      */\n     function functionCall(address target, bytes memory data) internal returns (bytes memory) {\n       return functionCall(target, data, \"Address: low-level call failed\");\n     }\n\n     /**\n      * @dev Same as {xref-Address-functionCall-address-bytes-}[`functionCall`], but with\n      * `errorMessage` as a fallback revert reason when `target` reverts.\n      *\n      * _Available since v3.1._\n      */\n     function functionCall(address target, bytes memory data, string memory errorMessage) internal returns (bytes memory) {\n         return functionCallWithValue(target, data, 0, errorMessage);\n     }\n\n     /**\n      * @dev Same as {xref-Address-functionCall-address-bytes-}[`functionCall`],\n      * but also transferring `value` wei to `target`.\n      *\n      * Requirements:\n      *\n      * - the calling contract must have an ETH balance of at least `value`.\n      * - the called Solidity function must be `payable`.\n      *\n      * _Available since v3.1._\n      */\n     function functionCallWithValue(address target, bytes memory data, uint256 value) internal returns (bytes memory) {\n         return functionCallWithValue(target, data, value, \"Address: low-level call with value failed\");\n     }\n\n     /**\n      * @dev Same as {xref-Address-functionCallWithValue-address-bytes-uint256-}[`functionCallWithValue`], but\n      * with `errorMessage` as a fallback revert reason when `target` reverts.\n      *\n      * _Available since v3.1._\n      */\n     function functionCallWithValue(address target, bytes memory data, uint256 value, string memory errorMessage) internal returns (bytes memory) {\n         require(address(this).balance >= value, \"Address: insufficient balance for call\");\n         require(isContract(target), \"Address: call to non-contract\");\n\n         // solhint-disable-next-line avoid-low-level-calls\n         (bool success, bytes memory returndata) = target.call{ value: value }(data);\n         return _verifyCallResult(success, returndata, errorMessage);\n     }\n\n     /**\n      * @dev Same as {xref-Address-functionCall-address-bytes-}[`functionCall`],\n      * but performing a static call.\n      *\n      * _Available since v3.3._\n      */\n     function functionStaticCall(address target, bytes memory data) internal view returns (bytes memory) {\n         return functionStaticCall(target, data, \"Address: low-level static call failed\");\n     }\n\n     /**\n      * @dev Same as {xref-Address-functionCall-address-bytes-string-}[`functionCall`],\n      * but performing a static call.\n      *\n      * _Available since v3.3._\n      */\n     function functionStaticCall(address target, bytes memory data, string memory errorMessage) internal view returns (bytes memory) {\n         require(isContract(target), \"Address: static call to non-contract\");\n\n         // solhint-disable-next-line avoid-low-level-calls\n         (bool success, bytes memory returndata) = target.staticcall(data);\n         return _verifyCallResult(success, returndata, errorMessage);\n     }\n\n     /**\n      * @dev Same as {xref-Address-functionCall-address-bytes-}[`functionCall`],\n      * but performing a delegate call.\n      *\n      * _Available since v3.4._\n      */\n     function functionDelegateCall(address target, bytes memory data) internal returns (bytes memory) {\n         return functionDelegateCall(target, data, \"Address: low-level delegate call failed\");\n     }\n\n     /**\n      * @dev Same as {xref-Address-functionCall-address-bytes-string-}[`functionCall`],\n      * but performing a delegate call.\n      *\n      * _Available since v3.4._\n      */\n     function functionDelegateCall(address target, bytes memory data, string memory errorMessage) internal returns (bytes memory) {\n         require(isContract(target), \"Address: delegate call to non-contract\");\n\n         // solhint-disable-next-line avoid-low-level-calls\n         (bool success, bytes memory returndata) = target.delegatecall(data);\n         return _verifyCallResult(success, returndata, errorMessage);\n     }\n\n     function _verifyCallResult(bool success, bytes memory returndata, string memory errorMessage) private pure returns(bytes memory) {\n         if (success) {\n             return returndata;\n         } else {\n             // Look for revert reason and bubble it up if present\n             if (returndata.length > 0) {\n                 // The easiest way to bubble the revert reason is using memory via assembly\n\n                 // solhint-disable-next-line no-inline-assembly\n                 assembly {\n                     let returndata_size := mload(returndata)\n                     revert(add(32, returndata), returndata_size)\n                 }\n             } else {\n                 revert(errorMessage);\n             }\n         }\n     }\n }\n\n pragma solidity >=0.6.0 <0.8.0;\n\n /*\n  * @dev Provides information about the current execution context, including the\n  * sender of the transaction and its data. While these are generally available\n  * via msg.sender and msg.data, they should not be accessed in such a direct\n  * manner, since when dealing with GSN meta-transactions the account sending and\n  * paying for execution may not be the actual sender (as far as an application\n  * is concerned).\n  *\n  * This contract is only required for intermediate, library-like contracts.\n  */\n abstract contract Context {\n     function _msgSender() internal view virtual returns (address payable) {\n         return msg.sender;\n     }\n\n     function _msgData() internal view virtual returns (bytes memory) {\n         this; // silence state mutability warning without generating bytecode - see https://github.com/ethereum/solidity/issues/2691\n         return msg.data;\n     }\n }\n pragma solidity >=0.6.0 <0.8.0;\n\n /**\n  * @dev Interface of the ERC165 standard, as defined in the\n  * https://eips.ethereum.org/EIPS/eip-165[EIP].\n  *\n  * Implementers can declare support of contract interfaces, which can then be\n  * queried by others ({ERC165Checker}).\n  *\n  * For an implementation, see {ERC165}.\n  */\n interface IERC165 {\n     /**\n      * @dev Returns true if this contract implements the interface defined by\n      * `interfaceId`. See the corresponding\n      * https://eips.ethereum.org/EIPS/eip-165#how-interfaces-are-identified[EIP section]\n      * to learn more about how these ids are created.\n      *\n      * This function call must use less than 30 000 gas.\n      */\n     function supportsInterface(bytes4 interfaceId) external view returns (bool);\n }\n pragma solidity >=0.6.2 <0.8.0;\n\n /**\n  * @dev Required interface of an ERC1155 compliant contract, as defined in the\n  * https://eips.ethereum.org/EIPS/eip-1155[EIP].\n  *\n  * _Available since v3.1._\n  */\n interface IERC1155 is IERC165 {\n     /**\n      * @dev Emitted when `value` tokens of token type `id` are transferred from `from` to `to` by `operator`.\n      */\n     event TransferSingle(address indexed operator, address indexed from, address indexed to, uint256 id, uint256 value);\n\n     /**\n      * @dev Equivalent to multiple {TransferSingle} events, where `operator`, `from` and `to` are the same for all\n      * transfers.\n      */\n     event TransferBatch(address indexed operator, address indexed from, address indexed to, uint256[] ids, uint256[] values);\n\n     /**\n      * @dev Emitted when `account` grants or revokes permission to `operator` to transfer their tokens, according to\n      * `approved`.\n      */\n     event ApprovalForAll(address indexed account, address indexed operator, bool approved);\n\n     /**\n      * @dev Emitted when the URI for token type `id` changes to `value`, if it is a non-programmatic URI.\n      *\n      * If an {URI} event was emitted for `id`, the standard\n      * https://eips.ethereum.org/EIPS/eip-1155#metadata-extensions[guarantees] that `value` will equal the value\n      * returned by {IERC1155MetadataURI-uri}.\n      */\n     event URI(string value, uint256 indexed id);\n\n     /**\n      * @dev Returns the amount of tokens of token type `id` owned by `account`.\n      *\n      * Requirements:\n      *\n      * - `account` cannot be the zero address.\n      */\n     function balanceOf(address account, uint256 id) external view returns (uint256);\n\n     /**\n      * @dev xref:ROOT:erc1155.adoc#batch-operations[Batched] version of {balanceOf}.\n      *\n      * Requirements:\n      *\n      * - `accounts` and `ids` must have the same length.\n      */\n     function balanceOfBatch(address[] calldata accounts, uint256[] calldata ids) external view returns (uint256[] memory);\n\n     /**\n      * @dev Grants or revokes permission to `operator` to transfer the caller's tokens, according to `approved`,\n      *\n      * Emits an {ApprovalForAll} event.\n      *\n      * Requirements:\n      *\n      * - `operator` cannot be the caller.\n      */\n     function setApprovalForAll(address operator, bool approved) external;\n\n     /**\n      * @dev Returns true if `operator` is approved to transfer ``account``'s tokens.\n      *\n      * See {setApprovalForAll}.\n      */\n     function isApprovedForAll(address account, address operator) external view returns (bool);\n\n     /**\n      * @dev Transfers `amount` tokens of token type `id` from `from` to `to`.\n      *\n      * Emits a {TransferSingle} event.\n      *\n      * Requirements:\n      *\n      * - `to` cannot be the zero address.\n      * - If the caller is not `from`, it must be have been approved to spend ``from``'s tokens via {setApprovalForAll}.\n      * - `from` must have a balance of tokens of type `id` of at least `amount`.\n      * - If `to` refers to a smart contract, it must implement {IERC1155Receiver-onERC1155Received} and return the\n      * acceptance magic value.\n      */\n     function safeTransferFrom(address from, address to, uint256 id, uint256 amount, bytes calldata data) external;\n\n     /**\n      * @dev xref:ROOT:erc1155.adoc#batch-operations[Batched] version of {safeTransferFrom}.\n      *\n      * Emits a {TransferBatch} event.\n      *\n      * Requirements:\n      *\n      * - `ids` and `amounts` must have the same length.\n      * - If `to` refers to a smart contract, it must implement {IERC1155Receiver-onERC1155BatchReceived} and return the\n      * acceptance magic value.\n      */\n     function safeBatchTransferFrom(address from, address to, uint256[] calldata ids, uint256[] calldata amounts, bytes calldata data) external;\n }\n pragma solidity >=0.6.2 <0.8.0;\n\n /**\n  * @dev Interface of the optional ERC1155MetadataExtension interface, as defined\n  * in the https://eips.ethereum.org/EIPS/eip-1155#metadata-extensions[EIP].\n  *\n  * _Available since v3.1._\n  */\n interface IERC1155MetadataURI is IERC1155 {\n     /**\n      * @dev Returns the URI for token type `id`.\n      *\n      * If the `\\{id\\}` substring is present in the URI, it must be replaced by\n      * clients with the actual token type ID.\n      */\n     function uri(uint256 id) external view returns (string memory);\n }\n\n pragma solidity >=0.6.0 <0.8.0;\n\n\n\n /**\n  * @dev Implementation of the {IERC165} interface.\n  *\n  * Contracts may inherit from this and call {_registerInterface} to declare\n  * their support of an interface.\n  */\n abstract contract ERC165 is IERC165 {\n     /*\n      * bytes4(keccak256('supportsInterface(bytes4)')) == 0x01ffc9a7\n      */\n     bytes4 private constant _INTERFACE_ID_ERC165 = 0x01ffc9a7;\n\n     /**\n      * @dev Mapping of interface ids to whether or not it's supported.\n      */\n     mapping(bytes4 => bool) private _supportedInterfaces;\n\n     constructor () internal {\n         // Derived contracts need only register support for their own interfaces,\n         // we register support for ERC165 itself here\n         _registerInterface(_INTERFACE_ID_ERC165);\n     }\n\n     /**\n      * @dev See {IERC165-supportsInterface}.\n      *\n      * Time complexity O(1), guaranteed to always use less than 30 000 gas.\n      */\n     function supportsInterface(bytes4 interfaceId) public view virtual override returns (bool) {\n         return _supportedInterfaces[interfaceId];\n     }\n\n     /**\n      * @dev Registers the contract as an implementer of the interface defined by\n      * `interfaceId`. Support of the actual ERC165 interface is automatic and\n      * registering its interface id is not required.\n      *\n      * See {IERC165-supportsInterface}.\n      *\n      * Requirements:\n      *\n      * - `interfaceId` cannot be the ERC165 invalid interface (`0xffffffff`).\n      */\n     function _registerInterface(bytes4 interfaceId) internal virtual {\n         require(interfaceId != 0xffffffff, \"ERC165: invalid interface id\");\n         _supportedInterfaces[interfaceId] = true;\n     }\n }\n\n pragma solidity >=0.6.0 <0.8.0;\n\n\n\n /**\n  * _Available since v3.1._\n  */\n interface IERC1155Receiver is IERC165 {\n\n     /**\n         @dev Handles the receipt of a single ERC1155 token type. This function is\n         called at the end of a `safeTransferFrom` after the balance has been updated.\n         To accept the transfer, this must return\n         `bytes4(keccak256(\"onERC1155Received(address,address,uint256,uint256,bytes)\"))`\n         (i.e. 0xf23a6e61, or its own function selector).\n         @param operator The address which initiated the transfer (i.e. msg.sender)\n         @param from The address which previously owned the token\n         @param id The ID of the token being transferred\n         @param value The amount of tokens being transferred\n         @param data Additional data with no specified format\n         @return `bytes4(keccak256(\"onERC1155Received(address,address,uint256,uint256,bytes)\"))` if transfer is allowed\n     */\n     function onERC1155Received(\n         address operator,\n         address from,\n         uint256 id,\n         uint256 value,\n         bytes calldata data\n     )\n         external\n         returns(bytes4);\n\n     /**\n         @dev Handles the receipt of a multiple ERC1155 token types. This function\n         is called at the end of a `safeBatchTransferFrom` after the balances have\n         been updated. To accept the transfer(s), this must return\n         `bytes4(keccak256(\"onERC1155BatchReceived(address,address,uint256[],uint256[],bytes)\"))`\n         (i.e. 0xbc197c81, or its own function selector).\n         @param operator The address which initiated the batch transfer (i.e. msg.sender)\n         @param from The address which previously owned the token\n         @param ids An array containing ids of each token being transferred (order and length must match values array)\n         @param values An array containing amounts of each token being transferred (order and length must match ids array)\n         @param data Additional data with no specified format\n         @return `bytes4(keccak256(\"onERC1155BatchReceived(address,address,uint256[],uint256[],bytes)\"))` if transfer is allowed\n     */\n     function onERC1155BatchReceived(\n         address operator,\n         address from,\n         uint256[] calldata ids,\n         uint256[] calldata values,\n         bytes calldata data\n     )\n         external\n         returns(bytes4);\n }\n\n pragma solidity >=0.6.0 <0.8.0;\n\n\n /**\n  * @dev _Available since v3.1._\n  */\n abstract contract ERC1155Receiver is ERC165, IERC1155Receiver {\n     constructor() internal {\n         _registerInterface(\n             ERC1155Receiver(address(0)).onERC1155Received.selector ^\n             ERC1155Receiver(address(0)).onERC1155BatchReceived.selector\n         );\n     }\n }\n pragma solidity >=0.6.0 <0.8.0;\n\n\n\n /**\n  * @dev _Available since v3.1._\n  */\n contract ERC1155Holder is ERC1155Receiver {\n     function onERC1155Received(address, address, uint256, uint256, bytes memory) public virtual override returns (bytes4) {\n         return this.onERC1155Received.selector;\n     }\n\n     function onERC1155BatchReceived(address, address, uint256[] memory, uint256[] memory, bytes memory) public virtual override returns (bytes4) {\n         return this.onERC1155BatchReceived.selector;\n     }\n }\n pragma solidity >=0.6.0 <0.8.0;\n\n /**\n  * @dev Wrappers over Solidity's arithmetic operations with added overflow\n  * checks.\n  *\n  * Arithmetic operations in Solidity wrap on overflow. This can easily result\n  * in bugs, because programmers usually assume that an overflow raises an\n  * error, which is the standard behavior in high level programming languages.\n  * `SafeMath` restores this intuition by reverting the transaction when an\n  * operation overflows.\n  *\n  * Using this library instead of the unchecked operations eliminates an entire\n  * class of bugs, so it's recommended to use it always.\n  */\n library SafeMath {\n     /**\n      * @dev Returns the addition of two unsigned integers, with an overflow flag.\n      *\n      * _Available since v3.4._\n      */\n     function tryAdd(uint256 a, uint256 b) internal pure returns (bool, uint256) {\n         uint256 c = a + b;\n         if (c < a) return (false, 0);\n         return (true, c);\n     }\n\n     /**\n      * @dev Returns the substraction of two unsigned integers, with an overflow flag.\n      *\n      * _Available since v3.4._\n      */\n     function trySub(uint256 a, uint256 b) internal pure returns (bool, uint256) {\n         if (b > a) return (false, 0);\n         return (true, a - b);\n     }\n\n     /**\n      * @dev Returns the multiplication of two unsigned integers, with an overflow flag.\n      *\n      * _Available since v3.4._\n      */\n     function tryMul(uint256 a, uint256 b) internal pure returns (bool, uint256) {\n         // Gas optimization: this is cheaper than requiring 'a' not being zero, but the\n         // benefit is lost if 'b' is also tested.\n         // See: https://github.com/OpenZeppelin/openzeppelin-contracts/pull/522\n         if (a == 0) return (true, 0);\n         uint256 c = a * b;\n         if (c / a != b) return (false, 0);\n         return (true, c);\n     }\n\n     /**\n      * @dev Returns the division of two unsigned integers, with a division by zero flag.\n      *\n      * _Available since v3.4._\n      */\n     function tryDiv(uint256 a, uint256 b) internal pure returns (bool, uint256) {\n         if (b == 0) return (false, 0);\n         return (true, a / b);\n     }\n\n     /**\n      * @dev Returns the remainder of dividing two unsigned integers, with a division by zero flag.\n      *\n      * _Available since v3.4._\n      */\n     function tryMod(uint256 a, uint256 b) internal pure returns (bool, uint256) {\n         if (b == 0) return (false, 0);\n         return (true, a % b);\n     }\n\n     /**\n      * @dev Returns the addition of two unsigned integers, reverting on\n      * overflow.\n      *\n      * Counterpart to Solidity's `+` operator.\n      *\n      * Requirements:\n      *\n      * - Addition cannot overflow.\n      */\n     function add(uint256 a, uint256 b) internal pure returns (uint256) {\n         uint256 c = a + b;\n         require(c >= a, \"SafeMath: addition overflow\");\n         return c;\n     }\n\n     /**\n      * @dev Returns the subtraction of two unsigned integers, reverting on\n      * overflow (when the result is negative).\n      *\n      * Counterpart to Solidity's `-` operator.\n      *\n      * Requirements:\n      *\n      * - Subtraction cannot overflow.\n      */\n     function sub(uint256 a, uint256 b) internal pure returns (uint256) {\n         require(b <= a, \"SafeMath: subtraction overflow\");\n         return a - b;\n     }\n\n     /**\n      * @dev Returns the multiplication of two unsigned integers, reverting on\n      * overflow.\n      *\n      * Counterpart to Solidity's `*` operator.\n      *\n      * Requirements:\n      *\n      * - Multiplication cannot overflow.\n      */\n     function mul(uint256 a, uint256 b) internal pure returns (uint256) {\n         if (a == 0) return 0;\n         uint256 c = a * b;\n         require(c / a == b, \"SafeMath: multiplication overflow\");\n         return c;\n     }\n\n     /**\n      * @dev Returns the integer division of two unsigned integers, reverting on\n      * division by zero. The result is rounded towards zero.\n      *\n      * Counterpart to Solidity's `/` operator. Note: this function uses a\n      * `revert` opcode (which leaves remaining gas untouched) while Solidity\n      * uses an invalid opcode to revert (consuming all remaining gas).\n      *\n      * Requirements:\n      *\n      * - The divisor cannot be zero.\n      */\n     function div(uint256 a, uint256 b) internal pure returns (uint256) {\n         require(b > 0, \"SafeMath: division by zero\");\n         return a / b;\n     }\n\n     /**\n      * @dev Returns the remainder of dividing two unsigned integers. (unsigned integer modulo),\n      * reverting when dividing by zero.\n      *\n      * Counterpart to Solidity's `%` operator. This function uses a `revert`\n      * opcode (which leaves remaining gas untouched) while Solidity uses an\n      * invalid opcode to revert (consuming all remaining gas).\n      *\n      * Requirements:\n      *\n      * - The divisor cannot be zero.\n      */\n     function mod(uint256 a, uint256 b) internal pure returns (uint256) {\n         require(b > 0, \"SafeMath: modulo by zero\");\n         return a % b;\n     }\n\n     /**\n      * @dev Returns the subtraction of two unsigned integers, reverting with custom message on\n      * overflow (when the result is negative).\n      *\n      * CAUTION: This function is deprecated because it requires allocating memory for the error\n      * message unnecessarily. For custom revert reasons use {trySub}.\n      *\n      * Counterpart to Solidity's `-` operator.\n      *\n      * Requirements:\n      *\n      * - Subtraction cannot overflow.\n      */\n     function sub(uint256 a, uint256 b, string memory errorMessage) internal pure returns (uint256) {\n         require(b <= a, errorMessage);\n         return a - b;\n     }\n\n     /**\n      * @dev Returns the integer division of two unsigned integers, reverting with custom message on\n      * division by zero. The result is rounded towards zero.\n      *\n      * CAUTION: This function is deprecated because it requires allocating memory for the error\n      * message unnecessarily. For custom revert reasons use {tryDiv}.\n      *\n      * Counterpart to Solidity's `/` operator. Note: this function uses a\n      * `revert` opcode (which leaves remaining gas untouched) while Solidity\n      * uses an invalid opcode to revert (consuming all remaining gas).\n      *\n      * Requirements:\n      *\n      * - The divisor cannot be zero.\n      */\n     function div(uint256 a, uint256 b, string memory errorMessage) internal pure returns (uint256) {\n         require(b > 0, errorMessage);\n         return a / b;\n     }\n\n     /**\n      * @dev Returns the remainder of dividing two unsigned integers. (unsigned integer modulo),\n      * reverting with custom message when dividing by zero.\n      *\n      * CAUTION: This function is deprecated because it requires allocating memory for the error\n      * message unnecessarily. For custom revert reasons use {tryMod}.\n      *\n      * Counterpart to Solidity's `%` operator. This function uses a `revert`\n      * opcode (which leaves remaining gas untouched) while Solidity uses an\n      * invalid opcode to revert (consuming all remaining gas).\n      *\n      * Requirements:\n      *\n      * - The divisor cannot be zero.\n      */\n     function mod(uint256 a, uint256 b, string memory errorMessage) internal pure returns (uint256) {\n         require(b > 0, errorMessage);\n         return a % b;\n     }\n }\npragma solidity >=0.6.0 <0.8.0;\n\n\n /**\n  * @dev Contract module which provides a basic access control mechanism, where\n  * there is an account (an owner) that can be granted exclusive access to\n  * specific functions.\n  *\n  * By default, the owner account will be the one that deploys the contract. This\n  * can later be changed with {transferOwnership}.\n  *\n  * This module is used through inheritance. It will make available the modifier\n  * `onlyOwner`, which can be applied to your functions to restrict their use to\n  * the owner.\n  */\n abstract contract Ownable is Context {\n     address private _owner;\n\n     event OwnershipTransferred(address indexed previousOwner, address indexed newOwner);\n\n     /**\n      * @dev Initializes the contract setting the deployer as the initial owner.\n      */\n     constructor () internal {\n         address msgSender = _msgSender();\n         _owner = msgSender;\n         emit OwnershipTransferred(address(0), msgSender);\n     }\n\n     /**\n      * @dev Returns the address of the current owner.\n      */\n     function owner() public view virtual returns (address) {\n         return _owner;\n     }\n\n     /**\n      * @dev Throws if called by any account other than the owner.\n      */\n     modifier onlyOwner() {\n         require(owner() == _msgSender(), \"Ownable: caller is not the owner\");\n         _;\n     }\n\n     /**\n      * @dev Leaves the contract without owner. It will not be possible to call\n      * `onlyOwner` functions anymore. Can only be called by the current owner.\n      *\n      * NOTE: Renouncing ownership will leave the contract without an owner,\n      * thereby removing any functionality that is only available to the owner.\n      */\n     function renounceOwnership() public virtual onlyOwner {\n         emit OwnershipTransferred(_owner, address(0));\n         _owner = address(0);\n     }\n\n     /**\n      * @dev Transfers ownership of the contract to a new account (`newOwner`).\n      * Can only be called by the current owner.\n      */\n     function transferOwnership(address newOwner) public virtual onlyOwner {\n         require(newOwner != address(0), \"Ownable: new owner is the zero address\");\n         emit OwnershipTransferred(_owner, newOwner);\n         _owner = newOwner;\n     }\n }\n\n\n\n\n\n\ncontract ERC1155 is Context, ERC165, IERC1155, IERC1155MetadataURI, IERC1155Receiver, ERC1155Holder {\n    using SafeMath for uint256;\n    using Address for address;\n\n    // Mapping from token ID to account balances\n    mapping (uint256 => mapping(address => uint256)) private _balances;\n\n    // Mapping from account to operator approvals\n    mapping (address => mapping(address => bool)) private _operatorApprovals;\n\n    // Used as the URI for all token types by relying on ID substitution, e.g. https://token-cdn-domain/{id}.json\n    string private _uri;\n\n    /*\n     *     bytes4(keccak256('balanceOf(address,uint256)')) == 0x00fdd58e\n     *     bytes4(keccak256('balanceOfBatch(address[],uint256[])')) == 0x4e1273f4\n     *     bytes4(keccak256('setApprovalForAll(address,bool)')) == 0xa22cb465\n     *     bytes4(keccak256('isApprovedForAll(address,address)')) == 0xe985e9c5\n     *     bytes4(keccak256('safeTransferFrom(address,address,uint256,uint256,bytes)')) == 0xf242432a\n     *     bytes4(keccak256('safeBatchTransferFrom(address,address,uint256[],uint256[],bytes)')) == 0x2eb2c2d6\n     *\n     *     => 0x00fdd58e ^ 0x4e1273f4 ^ 0xa22cb465 ^\n     *        0xe985e9c5 ^ 0xf242432a ^ 0x2eb2c2d6 == 0xd9b67a26\n     */\n    bytes4 private constant _INTERFACE_ID_ERC1155 = 0xd9b67a26;\n\n    /*\n     *     bytes4(keccak256('uri(uint256)')) == 0x0e89341c\n     */\n    bytes4 private constant _INTERFACE_ID_ERC1155_METADATA_URI = 0x0e89341c;\n\n    /**\n     * @dev See {_setURI}.\n     */\n    constructor (string memory uri_) public {\n        _setURI(uri_);\n\n        // register the supported interfaces to conform to ERC1155 via ERC165\n        _registerInterface(_INTERFACE_ID_ERC1155);\n\n        // register the supported interfaces to conform to ERC1155MetadataURI via ERC165\n        _registerInterface(_INTERFACE_ID_ERC1155_METADATA_URI);\n    }\n\n    /**\n     * @dev See {IERC1155MetadataURI-uri}.\n     *\n     * This implementation returns the same URI for *all* token types. It relies\n     * on the token type ID substitution mechanism\n     * https://eips.ethereum.org/EIPS/eip-1155#metadata[defined in the EIP].\n     *\n     * Clients calling this function must replace the `\\{id\\}` substring with the\n     * actual token type ID.\n     */\n    function uri(uint256) external view virtual override returns (string memory) {\n        return _uri;\n    }\n\n    /**\n     * @dev See {IERC1155-balanceOf}.\n     *\n     * Requirements:\n     *\n     * - `account` cannot be the zero address.\n     */\n    function balanceOf(address account, uint256 id) public view virtual override returns (uint256) {\n        require(account != address(0), \"ERC1155: balance query for the zero address\");\n        return _balances[id][account];\n    }\n\n    /**\n     * @dev See {IERC1155-balanceOfBatch}.\n     *\n     * Requirements:\n     *\n     * - `accounts` and `ids` must have the same length.\n     */\n    function balanceOfBatch(\n        address[] memory accounts,\n        uint256[] memory ids\n    )\n        public\n        view\n        virtual\n        override\n        returns (uint256[] memory)\n    {\n        require(accounts.length == ids.length, \"ERC1155: accounts and ids length mismatch\");\n\n        uint256[] memory batchBalances = new uint256[](accounts.length);\n\n        for (uint256 i = 0; i < accounts.length; ++i) {\n            batchBalances[i] = balanceOf(accounts[i], ids[i]);\n        }\n\n        return batchBalances;\n    }\n\n    /**\n     * @dev See {IERC1155-setApprovalForAll}.\n     */\n    function setApprovalForAll(address operator, bool approved) public virtual override {\n        require(_msgSender() != operator, \"ERC1155: setting approval status for self\");\n\n        _operatorApprovals[_msgSender()][operator] = approved;\n        emit ApprovalForAll(_msgSender(), operator, approved);\n    }\n\n    /**\n     * @dev See {IERC1155-isApprovedForAll}.\n     */\n    function isApprovedForAll(address account, address operator) public view virtual override returns (bool) {\n        return _operatorApprovals[account][operator];\n    }\n\n    /**\n     * @dev See {IERC1155-safeTransferFrom}.\n     */\n    function safeTransferFrom(\n        address from,\n        address to,\n        uint256 id,\n        uint256 amount,\n        bytes memory data\n    )\n        public\n        virtual\n        override\n    {\n        require(to != address(0), \"ERC1155: transfer to the zero address\");\n\n\n        address operator = _msgSender();\n\n        _beforeTokenTransfer(operator, from, to, _asSingletonArray(id), _asSingletonArray(amount), data);\n\n        _balances[id][from] = _balances[id][from].sub(amount, \"ERC1155: insufficient balance for transfer\");\n        _balances[id][to] = _balances[id][to].add(amount);\n\n        emit TransferSingle(operator, from, to, id, amount);\n\n        _doSafeTransferAcceptanceCheck(operator, from, to, id, amount, data);\n    }\n\n    /**\n     * @dev See {IERC1155-safeBatchTransferFrom}.\n     */\n    function safeBatchTransferFrom(\n        address from,\n        address to,\n        uint256[] memory ids,\n        uint256[] memory amounts,\n        bytes memory data\n    )\n        public\n        virtual\n        override\n    {\n        require(ids.length == amounts.length, \"ERC1155: ids and amounts length mismatch\");\n        require(to != address(0), \"ERC1155: transfer to the zero address\");\n        require(\n            from == _msgSender() || isApprovedForAll(from, _msgSender()),\n            \"ERC1155: transfer caller is not owner nor approved\"\n        );\n\n        address operator = _msgSender();\n\n        _beforeTokenTransfer(operator, from, to, ids, amounts, data);\n\n        for (uint256 i = 0; i < ids.length; ++i) {\n            uint256 id = ids[i];\n            uint256 amount = amounts[i];\n\n            _balances[id][from] = _balances[id][from].sub(\n                amount,\n                \"ERC1155: insufficient balance for transfer\"\n            );\n            _balances[id][to] = _balances[id][to].add(amount);\n        }\n\n        emit TransferBatch(operator, from, to, ids, amounts);\n\n        _doSafeBatchTransferAcceptanceCheck(operator, from, to, ids, amounts, data);\n    }\n\n    /**\n     * @dev Sets a new URI for all token types, by relying on the token type ID\n     * substitution mechanism\n     * https://eips.ethereum.org/EIPS/eip-1155#metadata[defined in the EIP].\n     *\n     * By this mechanism, any occurrence of the `\\{id\\}` substring in either the\n     * URI or any of the amounts in the JSON file at said URI will be replaced by\n     * clients with the token type ID.\n     *\n     * For example, the `https://token-cdn-domain/\\{id\\}.json` URI would be\n     * interpreted by clients as\n     * `https://token-cdn-domain/000000000000000000000000000000000000000000000000000000000004cce0.json`\n     * for token type ID 0x4cce0.\n     *\n     * See {uri}.\n     *\n     * Because these URIs cannot be meaningfully represented by the {URI} event,\n     * this function emits no events.\n     */\n    function _setURI(string memory newuri) internal virtual {\n        _uri = newuri;\n    }\n\n    /**\n     * @dev Creates `amount` tokens of token type `id`, and assigns them to `account`.\n     *\n     * Emits a {TransferSingle} event.\n     *\n     * Requirements:\n     *\n     * - `account` cannot be the zero address.\n     * - If `account` refers to a smart contract, it must implement {IERC1155Receiver-onERC1155Received} and return the\n     * acceptance magic value.\n     */\n    function _mint(address account, uint256 id, uint256 amount, bytes memory data) internal virtual {\n        require(account != address(0), \"ERC1155: mint to the zero address\");\n\n        address operator = _msgSender();\n\n        _beforeTokenTransfer(operator, address(0), account, _asSingletonArray(id), _asSingletonArray(amount), data);\n\n        _balances[id][account] = _balances[id][account].add(amount);\n        emit TransferSingle(operator, address(0), account, id, amount);\n\n        _doSafeTransferAcceptanceCheck(operator, address(0), account, id, amount, data);\n    }\n\n    /**\n     * @dev xref:ROOT:erc1155.adoc#batch-operations[Batched] version of {_mint}.\n     *\n     * Requirements:\n     *\n     * - `ids` and `amounts` must have the same length.\n     * - If `to` refers to a smart contract, it must implement {IERC1155Receiver-onERC1155BatchReceived} and return the\n     * acceptance magic value.\n     */\n    function _mintBatch(address to, uint256[] memory ids, uint256[] memory amounts, bytes memory data) internal virtual {\n        require(to != address(0), \"ERC1155: mint to the zero address\");\n        require(ids.length == amounts.length, \"ERC1155: ids and amounts length mismatch\");\n\n        address operator = _msgSender();\n\n        _beforeTokenTransfer(operator, address(0), to, ids, amounts, data);\n\n        for (uint i = 0; i < ids.length; i++) {\n            _balances[ids[i]][to] = amounts[i].add(_balances[ids[i]][to]);\n        }\n\n        emit TransferBatch(operator, address(0), to, ids, amounts);\n\n        _doSafeBatchTransferAcceptanceCheck(operator, address(0), to, ids, amounts, data);\n    }\n\n    /**\n     * @dev Destroys `amount` tokens of token type `id` from `account`\n     *\n     * Requirements:\n     *\n     * - `account` cannot be the zero address.\n     * - `account` must have at least `amount` tokens of token type `id`.\n     */\n    function _burn(address account, uint256 id, uint256 amount) internal virtual {\n        require(account != address(0), \"ERC1155: burn from the zero address\");\n\n        address operator = _msgSender();\n\n        _beforeTokenTransfer(operator, account, address(0), _asSingletonArray(id), _asSingletonArray(amount), \"\");\n\n        _balances[id][account] = _balances[id][account].sub(\n            amount,\n            \"ERC1155: burn amount exceeds balance\"\n        );\n\n        emit TransferSingle(operator, account, address(0), id, amount);\n    }\n\n    /**\n     * @dev xref:ROOT:erc1155.adoc#batch-operations[Batched] version of {_burn}.\n     *\n     * Requirements:\n     *\n     * - `ids` and `amounts` must have the same length.\n     */\n    function _burnBatch(address account, uint256[] memory ids, uint256[] memory amounts) internal virtual {\n        require(account != address(0), \"ERC1155: burn from the zero address\");\n        require(ids.length == amounts.length, \"ERC1155: ids and amounts length mismatch\");\n\n        address operator = _msgSender();\n\n        _beforeTokenTransfer(operator, account, address(0), ids, amounts, \"\");\n\n        for (uint i = 0; i < ids.length; i++) {\n            _balances[ids[i]][account] = _balances[ids[i]][account].sub(\n                amounts[i],\n                \"ERC1155: burn amount exceeds balance\"\n            );\n        }\n\n        emit TransferBatch(operator, account, address(0), ids, amounts);\n    }\n\n    /**\n     * @dev Hook that is called before any token transfer. This includes minting\n     * and burning, as well as batched variants.\n     *\n     * The same hook is called on both single and batched variants. For single\n     * transfers, the length of the `id` and `amount` arrays will be 1.\n     *\n     * Calling conditions (for each `id` and `amount` pair):\n     *\n     * - When `from` and `to` are both non-zero, `amount` of ``from``'s tokens\n     * of token type `id` will be  transferred to `to`.\n     * - When `from` is zero, `amount` tokens of token type `id` will be minted\n     * for `to`.\n     * - when `to` is zero, `amount` of ``from``'s tokens of token type `id`\n     * will be burned.\n     * - `from` and `to` are never both zero.\n     * - `ids` and `amounts` have the same, non-zero length.\n     *\n     * To learn more about hooks, head to xref:ROOT:extending-contracts.adoc#using-hooks[Using Hooks].\n     */\n    function _beforeTokenTransfer(\n        address operator,\n        address from,\n        address to,\n        uint256[] memory ids,\n        uint256[] memory amounts,\n        bytes memory data\n    )\n        internal\n        virtual\n    { }\n\n    function _doSafeTransferAcceptanceCheck(\n        address operator,\n        address from,\n        address to,\n        uint256 id,\n        uint256 amount,\n        bytes memory data\n    )\n        private\n    {\n        if (to.isContract()) {\n            try IERC1155Receiver(to).onERC1155Received(operator, from, id, amount, data) returns (bytes4 response) {\n                if (response != IERC1155Receiver(to).onERC1155Received.selector) {\n                    revert(\"ERC1155: ERC1155Receiver rejected tokens\");\n                }\n            } catch Error(string memory reason) {\n                revert(reason);\n            } catch {\n                revert(\"ERC1155: transfer to non ERC1155Receiver implementer\");\n            }\n        }\n    }\n\n    function _doSafeBatchTransferAcceptanceCheck(\n        address operator,\n        address from,\n        address to,\n        uint256[] memory ids,\n        uint256[] memory amounts,\n        bytes memory data\n    )\n        private\n    {\n        if (to.isContract()) {\n            try IERC1155Receiver(to).onERC1155BatchReceived(operator, from, ids, amounts, data) returns (bytes4 response) {\n                if (response != IERC1155Receiver(to).onERC1155BatchReceived.selector) {\n                    revert(\"ERC1155: ERC1155Receiver rejected tokens\");\n                }\n            } catch Error(string memory reason) {\n                revert(reason);\n            } catch {\n                revert(\"ERC1155: transfer to non ERC1155Receiver implementer\");\n            }\n        }\n    }\n\n    function _asSingletonArray(uint256 element) private pure returns (uint256[] memory) {\n        uint256[] memory array = new uint256[](1);\n        array[0] = element;\n\n        return array;\n    }\n}\n\ncontract polyhess is ERC1155, Ownable {\n     using SafeMath for uint256;\n     uint8 winner;\n     address _owner;\n     uint tokencounter;\n     uint maxnft=35;\n     uint NFTPrice=100000; //0.1 eth\n    uint biddingtime = 86400;\n    mapping (uint256 => string) private _uris;\n\n    struct game {\n        address P1;\n        address P2;\n        uint amt;\n        uint nft_t1;\n        uint nft_t2;\n    }\n    mapping (uint=>game) public GameID;\n    uint gameID;\n\n    event mint_NFT(\n        address TO,\n        uint NFTid,\n        uint amt\n        );\n\n\n    constructor() public ERC1155(\"\") {\n        _owner = msg.sender;\n        _mint (address(this), 0, 10**20, \"\");\n        for (uint i=1;i<=maxnft;i++){\n            _mint(address(this), i, 1,\"\");\n            emit mint_NFT(address(this), i ,0);\n        }\n\n        gameID=0;\n    }\n    function uint2str(uint _i) internal pure returns (string memory _uintAsString) {\n        if (_i == 0) {\n            return \"0\";\n        }\n        uint j = _i;\n        uint len;\n        while (j != 0) {\n            len++;\n            j /= 10;\n        }\n        bytes memory bstr = new bytes(len);\n        uint k = len;\n        while (_i != 0) {\n            k = k-1;\n            uint8 temp = (48 + uint8(_i - _i / 10 * 10));\n            bytes1 b1 = bytes1(temp);\n            bstr[k] = b1;\n            _i /= 10;\n        }\n        return string(bstr);\n    }\n\n        function uri(uint256 tokenId) override public view returns(string memory){\n          return(\n            string(abi.encodePacked(\n              \"https://bafybeib5pqn7z4l3shxhjh674xg3tvaipba4jev2jegrumytumwwg2fkqe.ipfs.dweb.link/\",\n              uint2str(tokenId),\".json\"\n              ))\n\n            );\n        }\n\n    // Events\n      event bid_change(\n        uint NFTID,\n        uint amt,\n        address Bidder\n    );\n    event NFTowner(\n        uint NFTID,\n        uint buyprice,\n        address NFTowner\n    );\n      event Hess_Buy(\n        uint ethAMT,\n        address recipient\n        );\n      event ex_eth_hess(\n        uint ethAMT,\n        address recipient\n        );\n      event ex_NFT(\n        uint NFTid,\n        address To,\n        address From,\n        uint buy_price\n        );\n\n      event mint_token(\n        uint AMT\n        );\n      event TOKEN_staking(\n        address F1,\n        address F2,\n        uint amt,\n        uint Gameid\n        );\n      event NFT_STAKE(\n        address F1,\n        address F2,\n        uint nftid1,\n        uint nftid2,\n        uint Gameid\n        );\n      event TOKEN_win(\n        address winner,\n        address loser,\n        uint amt,\n        uint Gameid\n        );\n      event NFT_win(\n        address winner,\n        address loser,\n        uint nftid1,\n        uint nftid2,\n        uint Gameid\n        );\n\n\n    // Functions\n      // To buy tokens from ethereum\n    function buy_hess()public payable{\n        uint amt = SafeMath.div(msg.value,100000000000000);\n        safeTransferFrom(address(this), msg.sender, 0, amt, \"\" );\n        emit Hess_Buy(amt, msg.sender);\n      }\n      // To exchange tokens from ethereum\n\n    function exchange_eth(uint hesstoken)public payable{\n        require(hesstoken > 99999, \" Not sufficient hesstoken sent\" );\n        safeTransferFrom(msg.sender, address(this), 0, hesstoken, \"\" );\n        uint amt = SafeMath.mul(SafeMath.div(hesstoken, 11), 10);\n\n        ((msg.sender).transfer)(amt);\n        emit ex_eth_hess(hesstoken, msg.sender);\n      }\n\n    struct HighestBidder{\n    uint amount;\n    address highestbidder;\n   }\n    mapping (uint => HighestBidder) public bidder;\n\n    mapping (uint => bool ) public auctionStart;\n\n    function cal_Endtime(uint NFTid)public returns(uint){\n        uint Endtime;\n        if(auctionStart[NFTid]== false) {\n            auctionStart[NFTid] = true;\n             Endtime = block.timestamp+biddingtime;}\n\n            return Endtime;\n    }\n\n    function bid (uint NFTid, uint _amount) public {\n        require(NFTid<36,\"Enter a valid tokenID\");\n        uint auction_end_time = cal_Endtime(NFTid);\n        if(block.timestamp > auction_end_time){\n            emit NFTowner( NFTid ,bidder[NFTid].amount,bidder[NFTid].highestbidder );\n            revert(\"Auction for this NFt has ended\");\n        }\n        require(NFTPrice< _amount,\"Send more than Minimum price\");\n        require(bidder[NFTid].amount<_amount, \"Bid of equal amount of Greater already present\");\n        safeTransferFrom(address(this), msg.sender, 0, _amount, \"0x00\");\n        bidder[NFTid].highestbidder = msg.sender;\n        bidder[NFTid].amount = _amount;\n        emit bid_change( NFTid, _amount, msg.sender);\n    }\n\n    function NFT_tran(uint256 tokenId, address _to, address _from, uint amt)public{\n        require(msg.sender==_from, \"You are not the owner of NFT\");\n        require(balanceOf(_to, 0)>=amt, \" Insufficent balance\");\n        require(balanceOf(_from, tokenId)==1, \" Address does not own this NFT\");\n        safeTransferFrom(_from, _to, tokenId, 1, \"\");\n        safeTransferFrom(_to, _from, 0, amt, \"\");\n        emit ex_NFT(tokenId, _to, _from, amt);\n      }\n    function minttoken(uint256 Amount) public  onlyOwner{\n        _mint(address(this), 0, Amount, \"\");\n        emit mint_token(Amount);\n    }\n\n\n      function Token_staking(address p1, address p2, uint am1, uint am2) public {\n          require(am1>999&&am2>999, \"Stake amouunt more than 100\");\n          require( am1== am2,\"Both have not staked similar amount\");\n\n          safeTransferFrom(p1, address(this), 0, am1, \"0x00\");\n          safeTransferFrom(p2, address(this), 0, am1, \"0x00\");\n          gameID= gameID+1;\n          GameID[gameID].P1 = p1;\n          GameID[gameID].P2 = p2;\n          GameID[gameID].amt = am1;\n          emit TOKEN_staking( p1, p2, am1, gameID);\n      }\n      function win_TokenStaking(uint256 _gameID, uint gstatus) public {\n          require(gstatus>=0&&gstatus<3, \"Wrong status provided\");\n          address WINNER;\n          address LOSER;\n           if(gstatus==1){\n              WINNER = GameID[_gameID].P1;\n              LOSER = GameID[_gameID].P2;\n              safeTransferFrom(address(this), GameID[_gameID].P1, 0, (GameID[_gameID].amt)*2, \"0x00\");\n          }\n          else if(gstatus==2){\n              WINNER = GameID[_gameID].P2;\n              LOSER = GameID[_gameID].P1;\n\n              safeTransferFrom(address(this), GameID[_gameID].P2, 0, (GameID[_gameID].amt)*2, \"0x00\");\n          }\n          else if (gstatus==0){\n              WINNER = 0x0000000000000000000000000000000000000000;\n              LOSER =  0x0000000000000000000000000000000000000000;\n              safeTransferFrom(address(this), GameID[_gameID].P1, 0, GameID[_gameID].amt, \"0x00\");\n              safeTransferFrom(address(this), GameID[_gameID].P2, 0, GameID[_gameID].amt, \"0x00\");\n          }\n          emit TOKEN_win(WINNER, LOSER, GameID[_gameID].amt, _gameID);\n      }\n\n\n      function NFT_staking(address p1, address p2, uint id1, uint id2) public {\n          safeTransferFrom(p1, address(this), id1, 1, \"0x00\");\n          safeTransferFrom(p2, address(this), id2, 1, \"0x00\");\n          gameID= gameID+1;\n          GameID[gameID].P1 = p1;\n          GameID[gameID].P2 = p2;\n          GameID[gameID].nft_t1 = id1;\n          GameID[gameID].nft_t2 = id2;\n          emit NFT_STAKE( p1, p2, id1, id2, gameID);\n      }\n      function win_NFTStaking(uint256 _gameID, uint gstatus) public {\n          require(gstatus>=0&&gstatus<3, \"Wrong status provided\");\n           address WINNER;\n           address LOSER;\n           if(gstatus==1){\n              WINNER = GameID[_gameID].P1;\n              LOSER = GameID[_gameID].P2;\n              safeTransferFrom(address(this), GameID[_gameID].P1, GameID[_gameID].nft_t1, 1, \"0x00\");\n              safeTransferFrom(address(this), GameID[_gameID].P1, GameID[_gameID].nft_t2, 1, \"0x00\");\n               emit NFT_win(WINNER, LOSER, GameID[_gameID].nft_t1, GameID[_gameID].nft_t2, _gameID);\n          }\n          else if(gstatus==2){\n             WINNER = GameID[_gameID].P2;\n               LOSER = GameID[_gameID].P1;\n             safeTransferFrom(address(this), GameID[_gameID].P2, GameID[_gameID].nft_t1, 1, \"0x00\");\n             safeTransferFrom(address(this), GameID[_gameID].P2, GameID[_gameID].nft_t2, 1, \"0x00\");\n              emit NFT_win(WINNER, LOSER, GameID[_gameID].nft_t2, GameID[_gameID].nft_t1, _gameID);\n          }\n          else if (gstatus==0){\n              WINNER = 0x0000000000000000000000000000000000000000;\n              LOSER = 0x0000000000000000000000000000000000000000;\n              safeTransferFrom(address(this), GameID[_gameID].P1, GameID[_gameID].nft_t1, 1, \"0x00\");\n              safeTransferFrom(address(this), GameID[_gameID].P2, GameID[_gameID].nft_t2, 1, \"0x00\");\n               emit NFT_win(WINNER, LOSER, GameID[_gameID].nft_t1, GameID[_gameID].nft_t2, _gameID);\n          }\n\n      }\n\n      function Get_My_MONEY() public onlyOwner{\n          ((msg.sender).transfer)(address(this).balance);\n      }\n\n\n\n\n\n}\n",
  "sourcePath": "/Users/deepika/Desktop/ADITYA/polyess/contracts/SimpleStorage.sol",
  "compiler": {
    "name": "solc",
    "version": "0.7.6+commit.7338295f.Emscripten.clang"
  },
  "schemaVersion": "3.2.3",
  "updatedAt": "2021-12-14T17:28:49.161Z",
  "devdoc": {
    "kind": "dev",
    "methods": {
      "balanceOf(address,uint256)": {
        "details": "See {IERC1155-balanceOf}. Requirements: - `account` cannot be the zero address."
      },
      "balanceOfBatch(address[],uint256[])": {
        "details": "See {IERC1155-balanceOfBatch}. Requirements: - `accounts` and `ids` must have the same length."
      },
      "isApprovedForAll(address,address)": {
        "details": "See {IERC1155-isApprovedForAll}."
      },
      "owner()": {
        "details": "Returns the address of the current owner."
      },
      "renounceOwnership()": {
        "details": "Leaves the contract without owner. It will not be possible to call `onlyOwner` functions anymore. Can only be called by the current owner. NOTE: Renouncing ownership will leave the contract without an owner, thereby removing any functionality that is only available to the owner."
      },
      "safeBatchTransferFrom(address,address,uint256[],uint256[],bytes)": {
        "details": "See {IERC1155-safeBatchTransferFrom}."
      },
      "safeTransferFrom(address,address,uint256,uint256,bytes)": {
        "details": "See {IERC1155-safeTransferFrom}."
      },
      "setApprovalForAll(address,bool)": {
        "details": "See {IERC1155-setApprovalForAll}."
      },
      "supportsInterface(bytes4)": {
        "details": "See {IERC165-supportsInterface}. Time complexity O(1), guaranteed to always use less than 30 000 gas."
      },
      "transferOwnership(address)": {
        "details": "Transfers ownership of the contract to a new account (`newOwner`). Can only be called by the current owner."
      }
    },
    "version": 1
  },
  "userdoc": {
    "kind": "user",
    "methods": {},
    "version": 1
  }
}