{
  "contractName": "polyhess",
  "abi": [
    {
      "inputs": [],
      "stateMutability": "nonpayable",
      "type": "constructor"
    },
    {
      "anonymous": false,
      "inputs": [
        {
          "indexed": true,
          "internalType": "address",
          "name": "account",
          "type": "address"
        },
        {
          "indexed": true,
          "internalType": "address",
          "name": "operator",
          "type": "address"
        },
        {
          "indexed": false,
          "internalType": "bool",
          "name": "approved",
          "type": "bool"
        }
      ],
      "name": "ApprovalForAll",
      "type": "event"
    },
    {
      "anonymous": false,
      "inputs": [
        {
          "indexed": false,
          "internalType": "uint256",
          "name": "ethAMT",
          "type": "uint256"
        },
        {
          "indexed": false,
          "internalType": "address",
          "name": "recipient",
          "type": "address"
        }
      ],
      "name": "Hess_Buy",
      "type": "event"
    },
    {
      "anonymous": false,
      "inputs": [
        {
          "indexed": false,
          "internalType": "address",
          "name": "F1",
          "type": "address"
        },
        {
          "indexed": false,
          "internalType": "address",
          "name": "F2",
          "type": "address"
        },
        {
          "indexed": false,
          "internalType": "uint256",
          "name": "nftid1",
          "type": "uint256"
        },
        {
          "indexed": false,
          "internalType": "uint256",
          "name": "nftid2",
          "type": "uint256"
        }
      ],
      "name": "NFT_STAKE",
      "type": "event"
    },
    {
      "anonymous": false,
      "inputs": [
        {
          "indexed": false,
          "internalType": "address",
          "name": "winner",
          "type": "address"
        },
        {
          "indexed": false,
          "internalType": "uint256",
          "name": "nftid1",
          "type": "uint256"
        },
        {
          "indexed": false,
          "internalType": "uint256",
          "name": "nftid2",
          "type": "uint256"
        }
      ],
      "name": "NFT_win",
      "type": "event"
    },
    {
      "anonymous": false,
      "inputs": [
        {
          "indexed": true,
          "internalType": "address",
          "name": "previousOwner",
          "type": "address"
        },
        {
          "indexed": true,
          "internalType": "address",
          "name": "newOwner",
          "type": "address"
        }
      ],
      "name": "OwnershipTransferred",
      "type": "event"
    },
    {
      "anonymous": false,
      "inputs": [
        {
          "indexed": false,
          "internalType": "address",
          "name": "F1",
          "type": "address"
        },
        {
          "indexed": false,
          "internalType": "address",
          "name": "F2",
          "type": "address"
        },
        {
          "indexed": false,
          "internalType": "uint256",
          "name": "amt",
          "type": "uint256"
        }
      ],
      "name": "TOKEN_staking",
      "type": "event"
    },
    {
      "anonymous": false,
      "inputs": [
        {
          "indexed": false,
          "internalType": "address",
          "name": "winner",
          "type": "address"
        },
        {
          "indexed": false,
          "internalType": "uint256",
          "name": "amt",
          "type": "uint256"
        }
      ],
      "name": "TOKEN_win",
      "type": "event"
    },
    {
      "anonymous": false,
      "inputs": [
        {
          "indexed": true,
          "internalType": "address",
          "name": "operator",
          "type": "address"
        },
        {
          "indexed": true,
          "internalType": "address",
          "name": "from",
          "type": "address"
        },
        {
          "indexed": true,
          "internalType": "address",
          "name": "to",
          "type": "address"
        },
        {
          "indexed": false,
          "internalType": "uint256[]",
          "name": "ids",
          "type": "uint256[]"
        },
        {
          "indexed": false,
          "internalType": "uint256[]",
          "name": "values",
          "type": "uint256[]"
        }
      ],
      "name": "TransferBatch",
      "type": "event"
    },
    {
      "anonymous": false,
      "inputs": [
        {
          "indexed": true,
          "internalType": "address",
          "name": "operator",
          "type": "address"
        },
        {
          "indexed": true,
          "internalType": "address",
          "name": "from",
          "type": "address"
        },
        {
          "indexed": true,
          "internalType": "address",
          "name": "to",
          "type": "address"
        },
        {
          "indexed": false,
          "internalType": "uint256",
          "name": "id",
          "type": "uint256"
        },
        {
          "indexed": false,
          "internalType": "uint256",
          "name": "value",
          "type": "uint256"
        }
      ],
      "name": "TransferSingle",
      "type": "event"
    },
    {
      "anonymous": false,
      "inputs": [
        {
          "indexed": false,
          "internalType": "string",
          "name": "value",
          "type": "string"
        },
        {
          "indexed": true,
          "internalType": "uint256",
          "name": "id",
          "type": "uint256"
        }
      ],
      "name": "URI",
      "type": "event"
    },
    {
      "anonymous": false,
      "inputs": [
        {
          "indexed": false,
          "internalType": "uint256",
          "name": "NFTid",
          "type": "uint256"
        },
        {
          "indexed": false,
          "internalType": "address",
          "name": "To",
          "type": "address"
        },
        {
          "indexed": false,
          "internalType": "address",
          "name": "From",
          "type": "address"
        },
        {
          "indexed": false,
          "internalType": "uint256",
          "name": "buy_price",
          "type": "uint256"
        }
      ],
      "name": "ex_NFT",
      "type": "event"
    },
    {
      "anonymous": false,
      "inputs": [
        {
          "indexed": false,
          "internalType": "uint256",
          "name": "ethAMT",
          "type": "uint256"
        },
        {
          "indexed": false,
          "internalType": "address",
          "name": "recipient",
          "type": "address"
        }
      ],
      "name": "ex_eth_hess",
      "type": "event"
    },
    {
      "anonymous": false,
      "inputs": [
        {
          "indexed": false,
          "internalType": "address",
          "name": "TO",
          "type": "address"
        },
        {
          "indexed": false,
          "internalType": "uint256",
          "name": "NFTid",
          "type": "uint256"
        },
        {
          "indexed": false,
          "internalType": "uint256",
          "name": "amt",
          "type": "uint256"
        }
      ],
      "name": "mint_NFT",
      "type": "event"
    },
    {
      "anonymous": false,
      "inputs": [
        {
          "indexed": false,
          "internalType": "uint256",
          "name": "AMT",
          "type": "uint256"
        }
      ],
      "name": "mint_token",
      "type": "event"
    },
    {
      "inputs": [
        {
          "internalType": "uint256",
          "name": "",
          "type": "uint256"
        }
      ],
      "name": "GameID",
      "outputs": [
        {
          "internalType": "address",
          "name": "P1",
          "type": "address"
        },
        {
          "internalType": "address",
          "name": "P2",
          "type": "address"
        },
        {
          "internalType": "uint256",
          "name": "amt",
          "type": "uint256"
        },
        {
          "internalType": "uint256",
          "name": "nft_t1",
          "type": "uint256"
        },
        {
          "internalType": "uint256",
          "name": "nft_t2",
          "type": "uint256"
        }
      ],
      "stateMutability": "view",
      "type": "function"
    },
    {
      "inputs": [
        {
          "internalType": "address",
          "name": "account",
          "type": "address"
        },
        {
          "internalType": "uint256",
          "name": "id",
          "type": "uint256"
        }
      ],
      "name": "balanceOf",
      "outputs": [
        {
          "internalType": "uint256",
          "name": "",
          "type": "uint256"
        }
      ],
      "stateMutability": "view",
      "type": "function"
    },
    {
      "inputs": [
        {
          "internalType": "address[]",
          "name": "accounts",
          "type": "address[]"
        },
        {
          "internalType": "uint256[]",
          "name": "ids",
          "type": "uint256[]"
        }
      ],
      "name": "balanceOfBatch",
      "outputs": [
        {
          "internalType": "uint256[]",
          "name": "",
          "type": "uint256[]"
        }
      ],
      "stateMutability": "view",
      "type": "function"
    },
    {
      "inputs": [
        {
          "internalType": "address",
          "name": "account",
          "type": "address"
        },
        {
          "internalType": "address",
          "name": "operator",
          "type": "address"
        }
      ],
      "name": "isApprovedForAll",
      "outputs": [
        {
          "internalType": "bool",
          "name": "",
          "type": "bool"
        }
      ],
      "stateMutability": "view",
      "type": "function"
    },
    {
      "inputs": [
        {
          "internalType": "address",
          "name": "",
          "type": "address"
        },
        {
          "internalType": "address",
          "name": "",
          "type": "address"
        },
        {
          "internalType": "uint256[]",
          "name": "",
          "type": "uint256[]"
        },
        {
          "internalType": "uint256[]",
          "name": "",
          "type": "uint256[]"
        },
        {
          "internalType": "bytes",
          "name": "",
          "type": "bytes"
        }
      ],
      "name": "onERC1155BatchReceived",
      "outputs": [
        {
          "internalType": "bytes4",
          "name": "",
          "type": "bytes4"
        }
      ],
      "stateMutability": "nonpayable",
      "type": "function"
    },
    {
      "inputs": [
        {
          "internalType": "address",
          "name": "",
          "type": "address"
        },
        {
          "internalType": "address",
          "name": "",
          "type": "address"
        },
        {
          "internalType": "uint256",
          "name": "",
          "type": "uint256"
        },
        {
          "internalType": "uint256",
          "name": "",
          "type": "uint256"
        },
        {
          "internalType": "bytes",
          "name": "",
          "type": "bytes"
        }
      ],
      "name": "onERC1155Received",
      "outputs": [
        {
          "internalType": "bytes4",
          "name": "",
          "type": "bytes4"
        }
      ],
      "stateMutability": "nonpayable",
      "type": "function"
    },
    {
      "inputs": [],
      "name": "owner",
      "outputs": [
        {
          "internalType": "address",
          "name": "",
          "type": "address"
        }
      ],
      "stateMutability": "view",
      "type": "function"
    },
    {
      "inputs": [],
      "name": "renounceOwnership",
      "outputs": [],
      "stateMutability": "nonpayable",
      "type": "function"
    },
    {
      "inputs": [
        {
          "internalType": "address",
          "name": "from",
          "type": "address"
        },
        {
          "internalType": "address",
          "name": "to",
          "type": "address"
        },
        {
          "internalType": "uint256[]",
          "name": "ids",
          "type": "uint256[]"
        },
        {
          "internalType": "uint256[]",
          "name": "amounts",
          "type": "uint256[]"
        },
        {
          "internalType": "bytes",
          "name": "data",
          "type": "bytes"
        }
      ],
      "name": "safeBatchTransferFrom",
      "outputs": [],
      "stateMutability": "nonpayable",
      "type": "function"
    },
    {
      "inputs": [
        {
          "internalType": "address",
          "name": "from",
          "type": "address"
        },
        {
          "internalType": "address",
          "name": "to",
          "type": "address"
        },
        {
          "internalType": "uint256",
          "name": "id",
          "type": "uint256"
        },
        {
          "internalType": "uint256",
          "name": "amount",
          "type": "uint256"
        },
        {
          "internalType": "bytes",
          "name": "data",
          "type": "bytes"
        }
      ],
      "name": "safeTransferFrom",
      "outputs": [],
      "stateMutability": "nonpayable",
      "type": "function"
    },
    {
      "inputs": [
        {
          "internalType": "address",
          "name": "operator",
          "type": "address"
        },
        {
          "internalType": "bool",
          "name": "approved",
          "type": "bool"
        }
      ],
      "name": "setApprovalForAll",
      "outputs": [],
      "stateMutability": "nonpayable",
      "type": "function"
    },
    {
      "inputs": [
        {
          "internalType": "bytes4",
          "name": "interfaceId",
          "type": "bytes4"
        }
      ],
      "name": "supportsInterface",
      "outputs": [
        {
          "internalType": "bool",
          "name": "",
          "type": "bool"
        }
      ],
      "stateMutability": "view",
      "type": "function"
    },
    {
      "inputs": [
        {
          "internalType": "address",
          "name": "newOwner",
          "type": "address"
        }
      ],
      "name": "transferOwnership",
      "outputs": [],
      "stateMutability": "nonpayable",
      "type": "function"
    },
    {
      "inputs": [
        {
          "internalType": "uint256",
          "name": "ethamount",
          "type": "uint256"
        }
      ],
      "name": "buy_hess",
      "outputs": [],
      "stateMutability": "payable",
      "type": "function"
    },
    {
      "inputs": [
        {
          "internalType": "uint256",
          "name": "hesstoken",
          "type": "uint256"
        }
      ],
      "name": "exchange_eth",
      "outputs": [],
      "stateMutability": "payable",
      "type": "function"
    },
    {
      "inputs": [
        {
          "internalType": "uint256",
          "name": "tokenId",
          "type": "uint256"
        }
      ],
      "name": "uri",
      "outputs": [
        {
          "internalType": "string",
          "name": "",
          "type": "string"
        }
      ],
      "stateMutability": "view",
      "type": "function"
    },
    {
      "inputs": [
        {
          "internalType": "uint256",
          "name": "tokenId",
          "type": "uint256"
        },
        {
          "internalType": "string",
          "name": "uri",
          "type": "string"
        }
      ],
      "name": "setTokenUri",
      "outputs": [],
      "stateMutability": "nonpayable",
      "type": "function"
    },
    {
      "inputs": [
        {
          "internalType": "uint256",
          "name": "tokenId",
          "type": "uint256"
        },
        {
          "internalType": "address",
          "name": "_to",
          "type": "address"
        },
        {
          "internalType": "address",
          "name": "_from",
          "type": "address"
        },
        {
          "internalType": "uint256",
          "name": "amt",
          "type": "uint256"
        }
      ],
      "name": "NFT_tran",
      "outputs": [],
      "stateMutability": "nonpayable",
      "type": "function"
    },
    {
      "inputs": [
        {
          "internalType": "uint256",
          "name": "Amount",
          "type": "uint256"
        }
      ],
      "name": "minttoken",
      "outputs": [],
      "stateMutability": "nonpayable",
      "type": "function"
    },
    {
      "inputs": [
        {
          "internalType": "uint256",
          "name": "amount",
          "type": "uint256"
        }
      ],
      "name": "mintNFT",
      "outputs": [],
      "stateMutability": "nonpayable",
      "type": "function"
    },
    {
      "inputs": [
        {
          "internalType": "address",
          "name": "p1",
          "type": "address"
        },
        {
          "internalType": "address",
          "name": "p2",
          "type": "address"
        },
        {
          "internalType": "uint256",
          "name": "am1",
          "type": "uint256"
        },
        {
          "internalType": "uint256",
          "name": "am2",
          "type": "uint256"
        }
      ],
      "name": "Token_staking",
      "outputs": [],
      "stateMutability": "nonpayable",
      "type": "function"
    },
    {
      "inputs": [
        {
          "internalType": "uint256",
          "name": "_gameID",
          "type": "uint256"
        },
        {
          "internalType": "uint256",
          "name": "gstatus",
          "type": "uint256"
        }
      ],
      "name": "win_TokenStaking",
      "outputs": [],
      "stateMutability": "nonpayable",
      "type": "function"
    },
    {
      "inputs": [
        {
          "internalType": "address",
          "name": "p1",
          "type": "address"
        },
        {
          "internalType": "address",
          "name": "p2",
          "type": "address"
        },
        {
          "internalType": "uint256",
          "name": "id1",
          "type": "uint256"
        },
        {
          "internalType": "uint256",
          "name": "id2",
          "type": "uint256"
        }
      ],
      "name": "NFT_staking",
      "outputs": [],
      "stateMutability": "nonpayable",
      "type": "function"
    },
    {
      "inputs": [
        {
          "internalType": "uint256",
          "name": "_gameID",
          "type": "uint256"
        },
        {
          "internalType": "uint256",
          "name": "gstatus",
          "type": "uint256"
        }
      ],
      "name": "win_NFTStaking",
      "outputs": [],
      "stateMutability": "nonpayable",
      "type": "function"
    },
    {
      "inputs": [],
      "name": "Get_My_MONEY",
      "outputs": [],
      "stateMutability": "nonpayable",
      "type": "function"
    }
  ],
  "bytecode": "0x6080604052604b6007556127106008553480156200001c57600080fd5b5060405180602001604052806000815250620000456301ffc9a760e01b620001dd60201b60201c565b6200006663bc197c8160e01b63f23a6e6160e01b18620001dd60201b60201c565b6200007781620002e660201b60201c565b6200008f63d9b67a2660e01b620001dd60201b60201c565b620000a7630e89341c60e01b620001dd60201b60201c565b506000620000ba6200030260201b60201c565b905080600460006101000a81548173ffffffffffffffffffffffffffffffffffffffff021916908373ffffffffffffffffffffffffffffffffffffffff1602179055508073ffffffffffffffffffffffffffffffffffffffff16600073ffffffffffffffffffffffffffffffffffffffff167f8be0079c531659141344cd1fd0a4f28419497f9722a3daafe3b4186f6b6457e060405160405180910390a35033600560006101000a81548173ffffffffffffffffffffffffffffffffffffffff021916908373ffffffffffffffffffffffffffffffffffffffff160217905550620001c730600068056bc75e2d63100000604051806020016040528060008152506200030a60201b60201c565b60016006819055506000600b8190555062000b1a565b63ffffffff60e01b817bffffffffffffffffffffffffffffffffffffffffffffffffffffffff191614156200027a576040517f08c379a000000000000000000000000000000000000000000000000000000000815260040180806020018281038252601c8152602001807f4552433136353a20696e76616c696420696e746572666163652069640000000081525060200191505060405180910390fd5b6001600080837bffffffffffffffffffffffffffffffffffffffffffffffffffffffff19167bffffffffffffffffffffffffffffffffffffffffffffffffffffffff1916815260200190815260200160002060006101000a81548160ff02191690831515021790555050565b8060039080519060200190620002fe92919062000982565b5050565b600033905090565b600073ffffffffffffffffffffffffffffffffffffffff168473ffffffffffffffffffffffffffffffffffffffff16141562000392576040517f08c379a0000000000000000000000000000000000000000000000000000000008152600401808060200182810382526021815260200180620053df6021913960400191505060405180910390fd5b6000620003a46200030260201b60201c565b9050620003dd81600087620003bf886200053e60201b60201c565b620003d0886200053e60201b60201c565b87620005b260201b60201c565b62000447836001600087815260200190815260200160002060008873ffffffffffffffffffffffffffffffffffffffff1673ffffffffffffffffffffffffffffffffffffffff16815260200190815260200160002054620005ba60201b62003a431790919060201c565b6001600086815260200190815260200160002060008773ffffffffffffffffffffffffffffffffffffffff1673ffffffffffffffffffffffffffffffffffffffff168152602001908152602001600020819055508473ffffffffffffffffffffffffffffffffffffffff16600073ffffffffffffffffffffffffffffffffffffffff168273ffffffffffffffffffffffffffffffffffffffff167fc3d58168c5ae7397731d063d5bbf3d657854427343f4c083240f7aacaa2d0f628787604051808381526020018281526020019250505060405180910390a462000537816000878787876200064360201b60201c565b5050505050565b60606000600167ffffffffffffffff811180156200055b57600080fd5b506040519080825280602002602001820160405280156200058b5781602001602082028036833780820191505090505b50905082816000815181106200059d57fe5b60200260200101818152505080915050919050565b505050505050565b60008082840190508381101562000639576040517f08c379a000000000000000000000000000000000000000000000000000000000815260040180806020018281038252601b8152602001807f536166654d6174683a206164646974696f6e206f766572666c6f77000000000081525060200191505060405180910390fd5b8091505092915050565b6200066f8473ffffffffffffffffffffffffffffffffffffffff166200096f60201b62003acb1760201c565b1562000967578373ffffffffffffffffffffffffffffffffffffffff1663f23a6e6187878686866040518663ffffffff1660e01b8152600401808673ffffffffffffffffffffffffffffffffffffffff1681526020018573ffffffffffffffffffffffffffffffffffffffff16815260200184815260200183815260200180602001828103825283818151815260200191508051906020019080838360005b838110156200072b5780820151818401526020810190506200070e565b50505050905090810190601f168015620007595780820380516001836020036101000a031916815260200191505b509650505050505050602060405180830381600087803b1580156200077d57600080fd5b505af1925050508015620007b357506040513d60208110156200079f57600080fd5b810190808051906020019092919050505060015b620008c657620007c262000a56565b80620007cf575062000874565b806040517f08c379a00000000000000000000000000000000000000000000000000000000081526004018080602001828103825283818151815260200191508051906020019080838360005b83811015620008385780820151818401526020810190506200081b565b50505050905090810190601f168015620008665780820380516001836020036101000a031916815260200191505b509250505060405180910390fd5b6040517f08c379a0000000000000000000000000000000000000000000000000000000008152600401808060200182810382526034815260200180620053836034913960400191505060405180910390fd5b63f23a6e6160e01b7bffffffffffffffffffffffffffffffffffffffffffffffffffffffff1916817bffffffffffffffffffffffffffffffffffffffffffffffffffffffff19161462000965576040517f08c379a0000000000000000000000000000000000000000000000000000000008152600401808060200182810382526028815260200180620053b76028913960400191505060405180910390fd5b505b505050505050565b600080823b905060008111915050919050565b828054600181600116156101000203166002900490600052602060002090601f016020900481019282620009ba576000855562000a06565b82601f10620009d557805160ff191683800117855562000a06565b8280016001018555821562000a06579182015b8281111562000a05578251825591602001919060010190620009e8565b5b50905062000a15919062000a19565b5090565b5b8082111562000a3457600081600090555060010162000a1a565b5090565b6000601f19601f8301169050919050565b60008160e01c9050919050565b600060443d101562000a685762000b17565b60046000803e62000a7b60005162000a49565b6308c379a0811462000a8e575062000b17565b60405160043d036004823e80513d602482011167ffffffffffffffff8211171562000abc5750505062000b17565b808201805167ffffffffffffffff81111562000add57505050505062000b17565b8060208301013d850181111562000afa5750505050505062000b17565b62000b058262000a38565b60208401016040528296505050505050505b90565b6148598062000b2a6000396000f3fe6080604052600436106101655760003560e01c80637bd28fdf116100d1578063b5561d421161008a578063e985e9c511610064578063e985e9c514610e5e578063f23a6e6114610ee5578063f242432a14611034578063f2fde38b1461115057610165565b8063b5561d4214610b7b578063bc197c8114610bc0578063d4f7329e14610e2357610165565b80637bd28fdf14610998578063824a6ba7146109c65780638da5cb5b14610a0b5780639264274414610a4c578063a1fd246014610a87578063a22cb46514610b1e57610165565b80634e1273f4116101235780634e1273f4146105c95780635420bf471461077757806357f7789e146107fc5780635979f75b146108ce5780635a3702f814610953578063715018a61461098157610165565b8062fdd58e1461016a57806301ffc9a7146101d95780630e89341c146102495780630f17bc75146102fd5780632eb2c2d61461031457806336cccb4f14610544575b600080fd5b34801561017657600080fd5b506101c36004803603604081101561018d57600080fd5b81019080803573ffffffffffffffffffffffffffffffffffffffff169060200190929190803590602001909291905050506111a1565b6040518082815260200191505060405180910390f35b3480156101e557600080fd5b50610231600480360360208110156101fc57600080fd5b8101908080357bffffffffffffffffffffffffffffffffffffffffffffffffffffffff19169060200190929190505050611281565b60405180821515815260200191505060405180910390f35b34801561025557600080fd5b506102826004803603602081101561026c57600080fd5b81019080803590602001909291905050506112e8565b6040518080602001828103825283818151815260200191508051906020019080838360005b838110156102c25780820151818401526020810190506102a7565b50505050905090810190601f1680156102ef5780820380516001836020036101000a031916815260200191505b509250505060405180910390f35b34801561030957600080fd5b5061031261139d565b005b34801561032057600080fd5b50610542600480360360a081101561033757600080fd5b81019080803573ffffffffffffffffffffffffffffffffffffffff169060200190929190803573ffffffffffffffffffffffffffffffffffffffff1690602001909291908035906020019064010000000081111561039457600080fd5b8201836020820111156103a657600080fd5b803590602001918460208302840111640100000000831117156103c857600080fd5b919080806020026020016040519081016040528093929190818152602001838360200280828437600081840152601f19601f8201169050808301925050505050505091929192908035906020019064010000000081111561042857600080fd5b82018360208201111561043a57600080fd5b8035906020019184602083028401116401000000008311171561045c57600080fd5b919080806020026020016040519081016040528093929190818152602001838360200280828437600081840152601f19601f820116905080830192505050505050509192919290803590602001906401000000008111156104bc57600080fd5b8201836020820111156104ce57600080fd5b803590602001918460018302840111640100000000831117156104f057600080fd5b91908080601f016020809104026020016040519081016040528093929190818152602001838380828437600081840152601f19601f820116905080830192505050505050509192919290505050611495565b005b34801561055057600080fd5b506105c76004803603608081101561056757600080fd5b81019080803573ffffffffffffffffffffffffffffffffffffffff169060200190929190803573ffffffffffffffffffffffffffffffffffffffff1690602001909291908035906020019092919080359060200190929190505050611920565b005b3480156105d557600080fd5b50610720600480360360408110156105ec57600080fd5b810190808035906020019064010000000081111561060957600080fd5b82018360208201111561061b57600080fd5b8035906020019184602083028401116401000000008311171561063d57600080fd5b919080806020026020016040519081016040528093929190818152602001838360200280828437600081840152601f19601f8201169050808301925050505050505091929192908035906020019064010000000081111561069d57600080fd5b8201836020820111156106af57600080fd5b803590602001918460208302840111640100000000831117156106d157600080fd5b919080806020026020016040519081016040528093929190818152602001838360200280828437600081840152601f19601f820116905080830192505050505050509192919290505050611b1b565b6040518080602001828103825283818151815260200191508051906020019060200280838360005b83811015610763578082015181840152602081019050610748565b505050509050019250505060405180910390f35b34801561078357600080fd5b506107fa6004803603608081101561079a57600080fd5b81019080803573ffffffffffffffffffffffffffffffffffffffff169060200190929190803573ffffffffffffffffffffffffffffffffffffffff1690602001909291908035906020019092919080359060200190929190505050611c2d565b005b34801561080857600080fd5b506108cc6004803603604081101561081f57600080fd5b81019080803590602001909291908035906020019064010000000081111561084657600080fd5b82018360208201111561085857600080fd5b8035906020019184600183028401116401000000008311171561087a57600080fd5b91908080601f016020809104026020016040519081016040528093929190818152602001838380828437600081840152601f19601f820116905080830192505050505050509192919290505050611edd565b005b3480156108da57600080fd5b50610951600480360360808110156108f157600080fd5b8101908080359060200190929190803573ffffffffffffffffffffffffffffffffffffffff169060200190929190803573ffffffffffffffffffffffffffffffffffffffff16906020019092919080359060200190929190505050612055565b005b61097f6004803603602081101561096957600080fd5b81019080803590602001909291905050506122b0565b005b34801561098d57600080fd5b506109966123a4565b005b6109c4600480360360208110156109ae57600080fd5b8101908080359060200190929190505050612514565b005b3480156109d257600080fd5b50610a09600480360360408110156109e957600080fd5b810190808035906020019092919080359060200190929190505050612658565b005b348015610a1757600080fd5b50610a20612a2c565b604051808273ffffffffffffffffffffffffffffffffffffffff16815260200191505060405180910390f35b348015610a5857600080fd5b50610a8560048036036020811015610a6f57600080fd5b8101908080359060200190929190505050612a56565b005b348015610a9357600080fd5b50610ac060048036036020811015610aaa57600080fd5b8101908080359060200190929190505050612ca0565b604051808673ffffffffffffffffffffffffffffffffffffffff1681526020018573ffffffffffffffffffffffffffffffffffffffff1681526020018481526020018381526020018281526020019550505050505060405180910390f35b348015610b2a57600080fd5b50610b7960048036036040811015610b4157600080fd5b81019080803573ffffffffffffffffffffffffffffffffffffffff169060200190929190803515159060200190929190505050612d16565b005b348015610b8757600080fd5b50610bbe60048036036040811015610b9e57600080fd5b810190808035906020019092919080359060200190929190505050612eaf565b005b348015610bcc57600080fd5b50610dee600480360360a0811015610be357600080fd5b81019080803573ffffffffffffffffffffffffffffffffffffffff169060200190929190803573ffffffffffffffffffffffffffffffffffffffff16906020019092919080359060200190640100000000811115610c4057600080fd5b820183602082011115610c5257600080fd5b80359060200191846020830284011164010000000083111715610c7457600080fd5b919080806020026020016040519081016040528093929190818152602001838360200280828437600081840152601f19601f82011690508083019250505050505050919291929080359060200190640100000000811115610cd457600080fd5b820183602082011115610ce657600080fd5b80359060200191846020830284011164010000000083111715610d0857600080fd5b919080806020026020016040519081016040528093929190818152602001838360200280828437600081840152601f19601f82011690508083019250505050505050919291929080359060200190640100000000811115610d6857600080fd5b820183602082011115610d7a57600080fd5b80359060200191846001830284011164010000000083111715610d9c57600080fd5b91908080601f016020809104026020016040519081016040528093929190818152602001838380828437600081840152601f19601f8201169050808301925050505050505091929192905050506133b9565b60405180827bffffffffffffffffffffffffffffffffffffffffffffffffffffffff1916815260200191505060405180910390f35b348015610e2f57600080fd5b50610e5c60048036036020811015610e4657600080fd5b81019080803590602001909291905050506133ce565b005b348015610e6a57600080fd5b50610ecd60048036036040811015610e8157600080fd5b81019080803573ffffffffffffffffffffffffffffffffffffffff169060200190929190803573ffffffffffffffffffffffffffffffffffffffff1690602001909291905050506134d3565b60405180821515815260200191505060405180910390f35b348015610ef157600080fd5b50610fff600480360360a0811015610f0857600080fd5b81019080803573ffffffffffffffffffffffffffffffffffffffff169060200190929190803573ffffffffffffffffffffffffffffffffffffffff169060200190929190803590602001909291908035906020019092919080359060200190640100000000811115610f7957600080fd5b820183602082011115610f8b57600080fd5b80359060200191846001830284011164010000000083111715610fad57600080fd5b91908080601f016020809104026020016040519081016040528093929190818152602001838380828437600081840152601f19601f820116905080830192505050505050509192919290505050613567565b60405180827bffffffffffffffffffffffffffffffffffffffffffffffffffffffff1916815260200191505060405180910390f35b34801561104057600080fd5b5061114e600480360360a081101561105757600080fd5b81019080803573ffffffffffffffffffffffffffffffffffffffff169060200190929190803573ffffffffffffffffffffffffffffffffffffffff1690602001909291908035906020019092919080359060200190929190803590602001906401000000008111156110c857600080fd5b8201836020820111156110da57600080fd5b803590602001918460018302840111640100000000831117156110fc57600080fd5b91908080601f016020809104026020016040519081016040528093929190818152602001838380828437600081840152601f19601f82011690508083019250505050505050919291929050505061357c565b005b34801561115c57600080fd5b5061119f6004803603602081101561117357600080fd5b81019080803573ffffffffffffffffffffffffffffffffffffffff16906020019092919050505061384e565b005b60008073ffffffffffffffffffffffffffffffffffffffff168373ffffffffffffffffffffffffffffffffffffffff161415611228576040517f08c379a000000000000000000000000000000000000000000000000000000000815260040180806020018281038252602b815260200180614694602b913960400191505060405180910390fd5b6001600083815260200190815260200160002060008473ffffffffffffffffffffffffffffffffffffffff1673ffffffffffffffffffffffffffffffffffffffff16815260200190815260200160002054905092915050565b6000806000837bffffffffffffffffffffffffffffffffffffffffffffffffffffffff19167bffffffffffffffffffffffffffffffffffffffffffffffffffffffff1916815260200190815260200160002060009054906101000a900460ff169050919050565b6060600960008381526020019081526020016000208054600181600116156101000203166002900480601f0160208091040260200160405190810160405280929190818152602001828054600181600116156101000203166002900480156113915780601f1061136657610100808354040283529160200191611391565b820191906000526020600020905b81548152906001019060200180831161137457829003601f168201915b50505050509050919050565b6113a5613ade565b73ffffffffffffffffffffffffffffffffffffffff166113c3612a2c565b73ffffffffffffffffffffffffffffffffffffffff161461144c576040517f08c379a00000000000000000000000000000000000000000000000000000000081526004018080602001828103825260208152602001807f4f776e61626c653a2063616c6c6572206973206e6f7420746865206f776e657281525060200191505060405180910390fd5b3373ffffffffffffffffffffffffffffffffffffffff166108fc479081150290604051600060405180830381858888f19350505050158015611492573d6000803e3d6000fd5b50565b81518351146114ef576040517f08c379a00000000000000000000000000000000000000000000000000000000081526004018080602001828103825260288152602001806147db6028913960400191505060405180910390fd5b600073ffffffffffffffffffffffffffffffffffffffff168473ffffffffffffffffffffffffffffffffffffffff161415611575576040517f08c379a00000000000000000000000000000000000000000000000000000000081526004018080602001828103825260258152602001806146e56025913960400191505060405180910390fd5b61157d613ade565b73ffffffffffffffffffffffffffffffffffffffff168573ffffffffffffffffffffffffffffffffffffffff1614806115c357506115c2856115bd613ade565b6134d3565b5b611618576040517f08c379a000000000000000000000000000000000000000000000000000000000815260040180806020018281038252603281526020018061470a6032913960400191505060405180910390fd5b6000611622613ade565b9050611632818787878787613ae6565b60005b845181101561180357600085828151811061164c57fe5b60200260200101519050600085838151811061166457fe5b602002602001015190506116eb816040518060600160405280602a815260200161473c602a91396001600086815260200190815260200160002060008d73ffffffffffffffffffffffffffffffffffffffff1673ffffffffffffffffffffffffffffffffffffffff16815260200190815260200160002054613aee9092919063ffffffff16565b6001600084815260200190815260200160002060008b73ffffffffffffffffffffffffffffffffffffffff1673ffffffffffffffffffffffffffffffffffffffff168152602001908152602001600020819055506117a2816001600085815260200190815260200160002060008b73ffffffffffffffffffffffffffffffffffffffff1673ffffffffffffffffffffffffffffffffffffffff16815260200190815260200160002054613a4390919063ffffffff16565b6001600084815260200190815260200160002060008a73ffffffffffffffffffffffffffffffffffffffff1673ffffffffffffffffffffffffffffffffffffffff168152602001908152602001600020819055505050806001019050611635565b508473ffffffffffffffffffffffffffffffffffffffff168673ffffffffffffffffffffffffffffffffffffffff168273ffffffffffffffffffffffffffffffffffffffff167f4a39dc06d4c0dbc64b70af90fd698a233a518aa5d07e595d983b8c0526c8f7fb8787604051808060200180602001838103835285818151815260200191508051906020019060200280838360005b838110156118b3578082015181840152602081019050611898565b50505050905001838103825284818151815260200191508051906020019060200280838360005b838110156118f55780820151818401526020810190506118da565b5050505090500194505050505060405180910390a4611918818787878787613ba8565b505050505050565b61196384308460016040518060400160405280600481526020017f307830300000000000000000000000000000000000000000000000000000000081525061357c565b6119a684308360016040518060400160405280600481526020017f307830300000000000000000000000000000000000000000000000000000000081525061357c565b6001600b5401600b8190555083600a6000600b54815260200190815260200160002060000160006101000a81548173ffffffffffffffffffffffffffffffffffffffff021916908373ffffffffffffffffffffffffffffffffffffffff16021790555082600a6000600b54815260200190815260200160002060010160006101000a81548173ffffffffffffffffffffffffffffffffffffffff021916908373ffffffffffffffffffffffffffffffffffffffff16021790555081600a6000600b5481526020019081526020016000206003018190555080600a6000600b548152602001908152602001600020600401819055507f7f5c186744b66c670b1e73b6162591aa09b4f3e51e164f40191559d6561b1a7084848484604051808573ffffffffffffffffffffffffffffffffffffffff1681526020018473ffffffffffffffffffffffffffffffffffffffff16815260200183815260200182815260200194505050505060405180910390a150505050565b60608151835114611b77576040517f08c379a00000000000000000000000000000000000000000000000000000000081526004018080602001828103825260298152602001806147b26029913960400191505060405180910390fd5b6000835167ffffffffffffffff81118015611b9157600080fd5b50604051908082528060200260200182016040528015611bc05781602001602082028036833780820191505090505b50905060005b8451811015611c2257611bff858281518110611bde57fe5b6020026020010151858381518110611bf257fe5b60200260200101516111a1565b828281518110611c0b57fe5b602002602001018181525050806001019050611bc6565b508091505092915050565b606382118015611c3d5750606381115b611caf576040517f08c379a000000000000000000000000000000000000000000000000000000000815260040180806020018281038252601b8152602001807f5374616b6520616d6f75756e74206d6f7265207468616e20313030000000000081525060200191505060405180910390fd5b808214611d07576040517f08c379a00000000000000000000000000000000000000000000000000000000081526004018080602001828103825260238152602001806147666023913960400191505060405180910390fd5b611d4a84306000856040518060400160405280600481526020017f307830300000000000000000000000000000000000000000000000000000000081525061357c565b611d8d83306000856040518060400160405280600481526020017f307830300000000000000000000000000000000000000000000000000000000081525061357c565b6001600b5401600b8190555083600a6000600b54815260200190815260200160002060000160006101000a81548173ffffffffffffffffffffffffffffffffffffffff021916908373ffffffffffffffffffffffffffffffffffffffff16021790555082600a6000600b54815260200190815260200160002060010160006101000a81548173ffffffffffffffffffffffffffffffffffffffff021916908373ffffffffffffffffffffffffffffffffffffffff16021790555081600a6000600b548152602001908152602001600020600201819055507f703f486bdc2aa4b4c62e0fda72c5be3baa195dc0e7883ca955da35d976d7fb23848484604051808473ffffffffffffffffffffffffffffffffffffffff1681526020018373ffffffffffffffffffffffffffffffffffffffff168152602001828152602001935050505060405180910390a150505050565b611ee5613ade565b73ffffffffffffffffffffffffffffffffffffffff16611f03612a2c565b73ffffffffffffffffffffffffffffffffffffffff1614611f8c576040517f08c379a00000000000000000000000000000000000000000000000000000000081526004018080602001828103825260208152602001807f4f776e61626c653a2063616c6c6572206973206e6f7420746865206f776e657281525060200191505060405180910390fd5b60006009600084815260200190815260200160002080546001816001161561010002031660029004905014612029576040517f08c379a00000000000000000000000000000000000000000000000000000000081526004018080602001828103825260148152602001807f43616e6e6f74207365742075726920747769636500000000000000000000000081525060200191505060405180910390fd5b806009600084815260200190815260200160002090805190602001906120509291906144b8565b505050565b8173ffffffffffffffffffffffffffffffffffffffff163373ffffffffffffffffffffffffffffffffffffffff16146120f6576040517f08c379a000000000000000000000000000000000000000000000000000000000815260040180806020018281038252601c8152602001807f596f7520617265206e6f7420746865206f776e6572206f66204e46540000000081525060200191505060405180910390fd5b806121028460006111a1565b1015612176576040517f08c379a00000000000000000000000000000000000000000000000000000000081526004018080602001828103825260148152602001807f20496e737566666963656e742062616c616e636500000000000000000000000081525060200191505060405180910390fd5b600161218284866111a1565b146121f5576040517f08c379a000000000000000000000000000000000000000000000000000000000815260040180806020018281038252601e8152602001807f204164647265737320646f6573206e6f74206f776e2074686973204e4654000081525060200191505060405180910390fd5b61221283838660016040518060200160405280600081525061357c565b61222f82846000846040518060200160405280600081525061357c565b7fbdb900ec31711d524dee34be70e14d497b8281561cd9ac5ae8841ff5742b0c2e84848484604051808581526020018473ffffffffffffffffffffffffffffffffffffffff1681526020018373ffffffffffffffffffffffffffffffffffffffff16815260200182815260200194505050505060405180910390a150505050565b80341015612326576040517f08c379a00000000000000000000000000000000000000000000000000000000081526004018080602001828103825260158152602001807f4e6f7420656e6f75676820746f6b656e2073656e74000000000000000000000081525060200191505060405180910390fd5b600060053402905061234b30336000846040518060200160405280600081525061357c565b7f2fd2c792f325a4c215c4cfa8f99030ab35a3987e16a5ef438f94c668ff7333848233604051808381526020018273ffffffffffffffffffffffffffffffffffffffff1681526020019250505060405180910390a15050565b6123ac613ade565b73ffffffffffffffffffffffffffffffffffffffff166123ca612a2c565b73ffffffffffffffffffffffffffffffffffffffff1614612453576040517f08c379a00000000000000000000000000000000000000000000000000000000081526004018080602001828103825260208152602001807f4f776e61626c653a2063616c6c6572206973206e6f7420746865206f776e657281525060200191505060405180910390fd5b600073ffffffffffffffffffffffffffffffffffffffff16600460009054906101000a900473ffffffffffffffffffffffffffffffffffffffff1673ffffffffffffffffffffffffffffffffffffffff167f8be0079c531659141344cd1fd0a4f28419497f9722a3daafe3b4186f6b6457e060405160405180910390a36000600460006101000a81548173ffffffffffffffffffffffffffffffffffffffff021916908373ffffffffffffffffffffffffffffffffffffffff160217905550565b6103e8811161258b576040517f08c379a000000000000000000000000000000000000000000000000000000000815260040180806020018281038252601e8152602001807f204e6f742073756666696369656e742068657373746f6b656e2073656e74000081525060200191505060405180910390fd5b6125a833306000846040518060200160405280600081525061357c565b600061022682816125b557fe5b0490503373ffffffffffffffffffffffffffffffffffffffff166108fc829081150290604051600060405180830381858888f193505050501580156125fe573d6000803e3d6000fd5b507f24921ecb06cf8e1553b7087749aa21be99f88e10db60f351fb2d57e62fa8b8198133604051808381526020018273ffffffffffffffffffffffffffffffffffffffff1681526020019250505060405180910390a15050565b6000811180156126685750600381105b6126da576040517f08c379a00000000000000000000000000000000000000000000000000000000081526004018080602001828103825260158152602001807f57726f6e67207374617475732070726f7669646564000000000000000000000081525060200191505060405180910390fd5b600060018214156127b557600a600084815260200190815260200160002060000160009054906101000a900473ffffffffffffffffffffffffffffffffffffffff1690506127b030600a600086815260200190815260200160002060000160009054906101000a900473ffffffffffffffffffffffffffffffffffffffff1660006002600a600089815260200190815260200160002060020154026040518060400160405280600481526020017f307830300000000000000000000000000000000000000000000000000000000081525061357c565b6129bc565b600282141561288e57600a600084815260200190815260200160002060010160009054906101000a900473ffffffffffffffffffffffffffffffffffffffff16905061288930600a600086815260200190815260200160002060010160009054906101000a900473ffffffffffffffffffffffffffffffffffffffff1660006002600a600089815260200190815260200160002060020154026040518060400160405280600481526020017f307830300000000000000000000000000000000000000000000000000000000081525061357c565b6129bb565b60008214156129ba576000905061292a30600a600086815260200190815260200160002060000160009054906101000a900473ffffffffffffffffffffffffffffffffffffffff166000600a6000888152602001908152602001600020600201546040518060400160405280600481526020017f307830300000000000000000000000000000000000000000000000000000000081525061357c565b6129b930600a600086815260200190815260200160002060010160009054906101000a900473ffffffffffffffffffffffffffffffffffffffff166000600a6000888152602001908152602001600020600201546040518060400160405280600481526020017f307830300000000000000000000000000000000000000000000000000000000081525061357c565b5b5b5b7f3489b1497bf9752c50c132286b1a6bc43c403a045b443e84cbeab2332633054e81600a600086815260200190815260200160002060020154604051808373ffffffffffffffffffffffffffffffffffffffff1681526020018281526020019250505060405180910390a1505050565b6000600460009054906101000a900473ffffffffffffffffffffffffffffffffffffffff16905090565b604b6006541115612acf576040517f08c379a00000000000000000000000000000000000000000000000000000000081526004018080602001828103825260138152602001807f416c6c204e46547320617265206d696e7465640000000000000000000000000081525060200191505060405180910390fd5b600854811015612b47576040517f08c379a000000000000000000000000000000000000000000000000000000000815260040180806020018281038252601c8152602001807f5072696365206f66204e4654206d6f7265207468616e20676976656e0000000081525060200191505060405180910390fd5b80612b533360006111a1565b1015612bc7576040517f08c379a000000000000000000000000000000000000000000000000000000000815260040180806020018281038252601f8152602001807f20496e737566666963656e742062616c616e636520696e206163636f756e740081525060200191505060405180910390fd5b612bd2306001612d16565b612c1133600560009054906101000a900473ffffffffffffffffffffffffffffffffffffffff166000846040518060200160405280600081525061357c565b612c2f33600654600160405180602001604052806000815250613f37565b6001600654016006819055507fcf95f9df95497fe756383ec3ad622e091407c965209a07b6f3a81c61f7908fcd3360016006540383604051808473ffffffffffffffffffffffffffffffffffffffff168152602001838152602001828152602001935050505060405180910390a150565b600a6020528060005260406000206000915090508060000160009054906101000a900473ffffffffffffffffffffffffffffffffffffffff16908060010160009054906101000a900473ffffffffffffffffffffffffffffffffffffffff16908060020154908060030154908060040154905085565b8173ffffffffffffffffffffffffffffffffffffffff16612d35613ade565b73ffffffffffffffffffffffffffffffffffffffff161415612da2576040517f08c379a00000000000000000000000000000000000000000000000000000000081526004018080602001828103825260298152602001806147896029913960400191505060405180910390fd5b8060026000612daf613ade565b73ffffffffffffffffffffffffffffffffffffffff1673ffffffffffffffffffffffffffffffffffffffff16815260200190815260200160002060008473ffffffffffffffffffffffffffffffffffffffff1673ffffffffffffffffffffffffffffffffffffffff16815260200190815260200160002060006101000a81548160ff0219169083151502179055508173ffffffffffffffffffffffffffffffffffffffff16612e5c613ade565b73ffffffffffffffffffffffffffffffffffffffff167f17307eab39ab6107e8899845ad3d59bd9653f200f220920489ca2b5937696c318360405180821515815260200191505060405180910390a35050565b600081118015612ebf5750600381105b612f31576040517f08c379a00000000000000000000000000000000000000000000000000000000081526004018080602001828103825260158152602001807f57726f6e67207374617475732070726f7669646564000000000000000000000081525060200191505060405180910390fd5b6000600182141561309857600a600084815260200190815260200160002060000160009054906101000a900473ffffffffffffffffffffffffffffffffffffffff16905061300430600a600086815260200190815260200160002060000160009054906101000a900473ffffffffffffffffffffffffffffffffffffffff16600a60008781526020019081526020016000206003015460016040518060400160405280600481526020017f307830300000000000000000000000000000000000000000000000000000000081525061357c565b61309330600a600086815260200190815260200160002060000160009054906101000a900473ffffffffffffffffffffffffffffffffffffffff16600a60008781526020019081526020016000206004015460016040518060400160405280600481526020017f307830300000000000000000000000000000000000000000000000000000000081525061357c565b61332b565b60028214156131fd57600a600084815260200190815260200160002060010160009054906101000a900473ffffffffffffffffffffffffffffffffffffffff16905061316930600a600086815260200190815260200160002060010160009054906101000a900473ffffffffffffffffffffffffffffffffffffffff16600a60008781526020019081526020016000206003015460016040518060400160405280600481526020017f307830300000000000000000000000000000000000000000000000000000000081525061357c565b6131f830600a600086815260200190815260200160002060010160009054906101000a900473ffffffffffffffffffffffffffffffffffffffff16600a60008781526020019081526020016000206004015460016040518060400160405280600481526020017f307830300000000000000000000000000000000000000000000000000000000081525061357c565b61332a565b6000821415613329576000905061329930600a600086815260200190815260200160002060000160009054906101000a900473ffffffffffffffffffffffffffffffffffffffff16600a60008781526020019081526020016000206003015460016040518060400160405280600481526020017f307830300000000000000000000000000000000000000000000000000000000081525061357c565b61332830600a600086815260200190815260200160002060010160009054906101000a900473ffffffffffffffffffffffffffffffffffffffff16600a60008781526020019081526020016000206004015460016040518060400160405280600481526020017f307830300000000000000000000000000000000000000000000000000000000081525061357c565b5b5b5b7ff201564bb44ce70aab874a23155f53c569e8a9715d9cdcb5ced81582ca72f6ab81600a600086815260200190815260200160002060030154600a600087815260200190815260200160002060030154604051808473ffffffffffffffffffffffffffffffffffffffff168152602001838152602001828152602001935050505060405180910390a1505050565b600063bc197c8160e01b905095945050505050565b6133d6613ade565b73ffffffffffffffffffffffffffffffffffffffff166133f4612a2c565b73ffffffffffffffffffffffffffffffffffffffff161461347d576040517f08c379a00000000000000000000000000000000000000000000000000000000081526004018080602001828103825260208152602001807f4f776e61626c653a2063616c6c6572206973206e6f7420746865206f776e657281525060200191505060405180910390fd5b6134993060008360405180602001604052806000815250613f37565b7f4f96a7142ed083515e4b1d9465c6aed73305b4a9c4aa4559edadeb098439ed5c816040518082815260200191505060405180910390a150565b6000600260008473ffffffffffffffffffffffffffffffffffffffff1673ffffffffffffffffffffffffffffffffffffffff16815260200190815260200160002060008373ffffffffffffffffffffffffffffffffffffffff1673ffffffffffffffffffffffffffffffffffffffff16815260200190815260200160002060009054906101000a900460ff16905092915050565b600063f23a6e6160e01b905095945050505050565b600073ffffffffffffffffffffffffffffffffffffffff168473ffffffffffffffffffffffffffffffffffffffff161415613602576040517f08c379a00000000000000000000000000000000000000000000000000000000081526004018080602001828103825260258152602001806146e56025913960400191505060405180910390fd5b600061360c613ade565b905061362c81878761361d8861413a565b6136268861413a565b87613ae6565b6136a9836040518060600160405280602a815260200161473c602a91396001600088815260200190815260200160002060008a73ffffffffffffffffffffffffffffffffffffffff1673ffffffffffffffffffffffffffffffffffffffff16815260200190815260200160002054613aee9092919063ffffffff16565b6001600086815260200190815260200160002060008873ffffffffffffffffffffffffffffffffffffffff1673ffffffffffffffffffffffffffffffffffffffff16815260200190815260200160002081905550613760836001600087815260200190815260200160002060008873ffffffffffffffffffffffffffffffffffffffff1673ffffffffffffffffffffffffffffffffffffffff16815260200190815260200160002054613a4390919063ffffffff16565b6001600086815260200190815260200160002060008773ffffffffffffffffffffffffffffffffffffffff1673ffffffffffffffffffffffffffffffffffffffff168152602001908152602001600020819055508473ffffffffffffffffffffffffffffffffffffffff168673ffffffffffffffffffffffffffffffffffffffff168273ffffffffffffffffffffffffffffffffffffffff167fc3d58168c5ae7397731d063d5bbf3d657854427343f4c083240f7aacaa2d0f628787604051808381526020018281526020019250505060405180910390a46138468187878787876141ab565b505050505050565b613856613ade565b73ffffffffffffffffffffffffffffffffffffffff16613874612a2c565b73ffffffffffffffffffffffffffffffffffffffff16146138fd576040517f08c379a00000000000000000000000000000000000000000000000000000000081526004018080602001828103825260208152602001807f4f776e61626c653a2063616c6c6572206973206e6f7420746865206f776e657281525060200191505060405180910390fd5b600073ffffffffffffffffffffffffffffffffffffffff168173ffffffffffffffffffffffffffffffffffffffff161415613983576040517f08c379a00000000000000000000000000000000000000000000000000000000081526004018080602001828103825260268152602001806146bf6026913960400191505060405180910390fd5b8073ffffffffffffffffffffffffffffffffffffffff16600460009054906101000a900473ffffffffffffffffffffffffffffffffffffffff1673ffffffffffffffffffffffffffffffffffffffff167f8be0079c531659141344cd1fd0a4f28419497f9722a3daafe3b4186f6b6457e060405160405180910390a380600460006101000a81548173ffffffffffffffffffffffffffffffffffffffff021916908373ffffffffffffffffffffffffffffffffffffffff16021790555050565b600080828401905083811015613ac1576040517f08c379a000000000000000000000000000000000000000000000000000000000815260040180806020018281038252601b8152602001807f536166654d6174683a206164646974696f6e206f766572666c6f77000000000081525060200191505060405180910390fd5b8091505092915050565b600080823b905060008111915050919050565b600033905090565b505050505050565b6000838311158290613b9b576040517f08c379a00000000000000000000000000000000000000000000000000000000081526004018080602001828103825283818151815260200191508051906020019080838360005b83811015613b60578082015181840152602081019050613b45565b50505050905090810190601f168015613b8d5780820380516001836020036101000a031916815260200191505b509250505060405180910390fd5b5082840390509392505050565b613bc78473ffffffffffffffffffffffffffffffffffffffff16613acb565b15613f2f578373ffffffffffffffffffffffffffffffffffffffff1663bc197c8187878686866040518663ffffffff1660e01b8152600401808673ffffffffffffffffffffffffffffffffffffffff1681526020018573ffffffffffffffffffffffffffffffffffffffff168152602001806020018060200180602001848103845287818151815260200191508051906020019060200280838360005b83811015613c7f578082015181840152602081019050613c64565b50505050905001848103835286818151815260200191508051906020019060200280838360005b83811015613cc1578082015181840152602081019050613ca6565b50505050905001848103825285818151815260200191508051906020019080838360005b83811015613d00578082015181840152602081019050613ce5565b50505050905090810190601f168015613d2d5780820380516001836020036101000a031916815260200191505b5098505050505050505050602060405180830381600087803b158015613d5257600080fd5b505af1925050508015613d8657506040513d6020811015613d7257600080fd5b810190808051906020019092919050505060015b613e9057613d92614581565b80613d9d5750613e3f565b806040517f08c379a00000000000000000000000000000000000000000000000000000000081526004018080602001828103825283818151815260200191508051906020019080838360005b83811015613e04578082015181840152602081019050613de9565b50505050905090810190601f168015613e315780820380516001836020036101000a031916815260200191505b509250505060405180910390fd5b6040517f08c379a00000000000000000000000000000000000000000000000000000000081526004018080602001828103825260348152602001806146386034913960400191505060405180910390fd5b63bc197c8160e01b7bffffffffffffffffffffffffffffffffffffffffffffffffffffffff1916817bffffffffffffffffffffffffffffffffffffffffffffffffffffffff191614613f2d576040517f08c379a000000000000000000000000000000000000000000000000000000000815260040180806020018281038252602881526020018061466c6028913960400191505060405180910390fd5b505b505050505050565b600073ffffffffffffffffffffffffffffffffffffffff168473ffffffffffffffffffffffffffffffffffffffff161415613fbd576040517f08c379a00000000000000000000000000000000000000000000000000000000081526004018080602001828103825260218152602001806148036021913960400191505060405180910390fd5b6000613fc7613ade565b9050613fe881600087613fd98861413a565b613fe28861413a565b87613ae6565b61404b836001600087815260200190815260200160002060008873ffffffffffffffffffffffffffffffffffffffff1673ffffffffffffffffffffffffffffffffffffffff16815260200190815260200160002054613a4390919063ffffffff16565b6001600086815260200190815260200160002060008773ffffffffffffffffffffffffffffffffffffffff1673ffffffffffffffffffffffffffffffffffffffff168152602001908152602001600020819055508473ffffffffffffffffffffffffffffffffffffffff16600073ffffffffffffffffffffffffffffffffffffffff168273ffffffffffffffffffffffffffffffffffffffff167fc3d58168c5ae7397731d063d5bbf3d657854427343f4c083240f7aacaa2d0f628787604051808381526020018281526020019250505060405180910390a4614133816000878787876141ab565b5050505050565b60606000600167ffffffffffffffff8111801561415657600080fd5b506040519080825280602002602001820160405280156141855781602001602082028036833780820191505090505b509050828160008151811061419657fe5b60200260200101818152505080915050919050565b6141ca8473ffffffffffffffffffffffffffffffffffffffff16613acb565b156144b0578373ffffffffffffffffffffffffffffffffffffffff1663f23a6e6187878686866040518663ffffffff1660e01b8152600401808673ffffffffffffffffffffffffffffffffffffffff1681526020018573ffffffffffffffffffffffffffffffffffffffff16815260200184815260200183815260200180602001828103825283818151815260200191508051906020019080838360005b83811015614283578082015181840152602081019050614268565b50505050905090810190601f1680156142b05780820380516001836020036101000a031916815260200191505b509650505050505050602060405180830381600087803b1580156142d357600080fd5b505af192505050801561430757506040513d60208110156142f357600080fd5b810190808051906020019092919050505060015b61441157614313614581565b8061431e57506143c0565b806040517f08c379a00000000000000000000000000000000000000000000000000000000081526004018080602001828103825283818151815260200191508051906020019080838360005b8381101561438557808201518184015260208101905061436a565b50505050905090810190601f1680156143b25780820380516001836020036101000a031916815260200191505b509250505060405180910390fd5b6040517f08c379a00000000000000000000000000000000000000000000000000000000081526004018080602001828103825260348152602001806146386034913960400191505060405180910390fd5b63f23a6e6160e01b7bffffffffffffffffffffffffffffffffffffffffffffffffffffffff1916817bffffffffffffffffffffffffffffffffffffffffffffffffffffffff1916146144ae576040517f08c379a000000000000000000000000000000000000000000000000000000000815260040180806020018281038252602881526020018061466c6028913960400191505060405180910390fd5b505b505050505050565b828054600181600116156101000203166002900490600052602060002090601f0160209004810192826144ee5760008555614535565b82601f1061450757805160ff1916838001178555614535565b82800160010185558215614535579182015b82811115614534578251825591602001919060010190614519565b5b5090506145429190614546565b5090565b5b8082111561455f576000816000905550600101614547565b5090565b6000601f19601f8301169050919050565b60008160e01c9050919050565b600060443d101561459157614634565b60046000803e6145a2600051614574565b6308c379a081146145b35750614634565b60405160043d036004823e80513d602482011167ffffffffffffffff821117156145df57505050614634565b808201805167ffffffffffffffff8111156145fe575050505050614634565b8060208301013d850181111561461957505050505050614634565b61462282614563565b60208401016040528296505050505050505b9056fe455243313135353a207472616e7366657220746f206e6f6e2045524331313535526563656976657220696d706c656d656e746572455243313135353a204552433131353552656365697665722072656a656374656420746f6b656e73455243313135353a2062616c616e636520717565727920666f7220746865207a65726f20616464726573734f776e61626c653a206e6577206f776e657220697320746865207a65726f2061646472657373455243313135353a207472616e7366657220746f20746865207a65726f2061646472657373455243313135353a207472616e736665722063616c6c6572206973206e6f74206f776e6572206e6f7220617070726f766564455243313135353a20696e73756666696369656e742062616c616e636520666f72207472616e73666572426f74682068617665206e6f74207374616b65642073696d696c617220616d6f756e74455243313135353a2073657474696e6720617070726f76616c2073746174757320666f722073656c66455243313135353a206163636f756e747320616e6420696473206c656e677468206d69736d61746368455243313135353a2069647320616e6420616d6f756e7473206c656e677468206d69736d61746368455243313135353a206d696e7420746f20746865207a65726f2061646472657373a2646970667358221220cf6aba44d57c381c94670df8bdd1204651c670162617a5eccbbcefda0532222764736f6c63430007060033455243313135353a207472616e7366657220746f206e6f6e2045524331313535526563656976657220696d706c656d656e746572455243313135353a204552433131353552656365697665722072656a656374656420746f6b656e73455243313135353a206d696e7420746f20746865207a65726f2061646472657373",
  "immutableReferences": {},
  "source": "// SPDX-License-Identifier: MIT\n\npragma solidity >=0.6.0 <0.8.0;\n\nimport \"./dependencies/IERC1155Receiver.sol\";\nimport \"./dependencies/IERC1155MetadataURI.sol\";\nimport \"./dependencies/Context.sol\";\nimport \"./dependencies/ERC165.sol\";\nimport \"./dependencies/SafeMath.sol\";\nimport \"./dependencies/Address.sol\";\nimport \"./dependencies/ERC1155Holder.sol\";\nimport \"./dependencies/Ownable.sol\";\n\n/**\n *\n * @dev Implementation of the basic standard multi-token.\n * See https://eips.ethereum.org/EIPS/eip-1155\n * Originally based on code by Enjin: https://github.com/enjin/erc-1155\n *\n * _Available since v3.1._\n */\ncontract ERC1155 is Context, ERC165, IERC1155, IERC1155MetadataURI, IERC1155Receiver, ERC1155Holder {\n    using SafeMath for uint256;\n    using Address for address;\n\n    // Mapping from token ID to account balances\n    mapping (uint256 => mapping(address => uint256)) private _balances;\n\n    // Mapping from account to operator approvals\n    mapping (address => mapping(address => bool)) private _operatorApprovals;\n\n    // Used as the URI for all token types by relying on ID substitution, e.g. https://token-cdn-domain/{id}.json\n    string private _uri;\n\n    /*\n     *     bytes4(keccak256('balanceOf(address,uint256)')) == 0x00fdd58e\n     *     bytes4(keccak256('balanceOfBatch(address[],uint256[])')) == 0x4e1273f4\n     *     bytes4(keccak256('setApprovalForAll(address,bool)')) == 0xa22cb465\n     *     bytes4(keccak256('isApprovedForAll(address,address)')) == 0xe985e9c5\n     *     bytes4(keccak256('safeTransferFrom(address,address,uint256,uint256,bytes)')) == 0xf242432a\n     *     bytes4(keccak256('safeBatchTransferFrom(address,address,uint256[],uint256[],bytes)')) == 0x2eb2c2d6\n     *\n     *     => 0x00fdd58e ^ 0x4e1273f4 ^ 0xa22cb465 ^\n     *        0xe985e9c5 ^ 0xf242432a ^ 0x2eb2c2d6 == 0xd9b67a26\n     */\n    bytes4 private constant _INTERFACE_ID_ERC1155 = 0xd9b67a26;\n\n    /*\n     *     bytes4(keccak256('uri(uint256)')) == 0x0e89341c\n     */\n    bytes4 private constant _INTERFACE_ID_ERC1155_METADATA_URI = 0x0e89341c;\n\n    /**\n     * @dev See {_setURI}.\n     */\n    constructor (string memory uri_) public {\n        _setURI(uri_);\n\n        // register the supported interfaces to conform to ERC1155 via ERC165\n        _registerInterface(_INTERFACE_ID_ERC1155);\n\n        // register the supported interfaces to conform to ERC1155MetadataURI via ERC165\n        _registerInterface(_INTERFACE_ID_ERC1155_METADATA_URI);\n    }\n\n    /**\n     * @dev See {IERC1155MetadataURI-uri}.\n     *\n     * This implementation returns the same URI for *all* token types. It relies\n     * on the token type ID substitution mechanism\n     * https://eips.ethereum.org/EIPS/eip-1155#metadata[defined in the EIP].\n     *\n     * Clients calling this function must replace the `\\{id\\}` substring with the\n     * actual token type ID.\n     */\n    function uri(uint256) external view virtual override returns (string memory) {\n        return _uri;\n    }\n\n    /**\n     * @dev See {IERC1155-balanceOf}.\n     *\n     * Requirements:\n     *\n     * - `account` cannot be the zero address.\n     */\n    function balanceOf(address account, uint256 id) public view virtual override returns (uint256) {\n        require(account != address(0), \"ERC1155: balance query for the zero address\");\n        return _balances[id][account];\n    }\n\n    /**\n     * @dev See {IERC1155-balanceOfBatch}.\n     *\n     * Requirements:\n     *\n     * - `accounts` and `ids` must have the same length.\n     */\n    function balanceOfBatch(\n        address[] memory accounts,\n        uint256[] memory ids\n    )\n        public\n        view\n        virtual\n        override\n        returns (uint256[] memory)\n    {\n        require(accounts.length == ids.length, \"ERC1155: accounts and ids length mismatch\");\n\n        uint256[] memory batchBalances = new uint256[](accounts.length);\n\n        for (uint256 i = 0; i < accounts.length; ++i) {\n            batchBalances[i] = balanceOf(accounts[i], ids[i]);\n        }\n\n        return batchBalances;\n    }\n\n    /**\n     * @dev See {IERC1155-setApprovalForAll}.\n     */\n    function setApprovalForAll(address operator, bool approved) public virtual override {\n        require(_msgSender() != operator, \"ERC1155: setting approval status for self\");\n\n        _operatorApprovals[_msgSender()][operator] = approved;\n        emit ApprovalForAll(_msgSender(), operator, approved);\n    }\n\n    /**\n     * @dev See {IERC1155-isApprovedForAll}.\n     */\n    function isApprovedForAll(address account, address operator) public view virtual override returns (bool) {\n        return _operatorApprovals[account][operator];\n    }\n\n    /**\n     * @dev See {IERC1155-safeTransferFrom}.\n     */\n    function safeTransferFrom(\n        address from,\n        address to,\n        uint256 id,\n        uint256 amount,\n        bytes memory data\n    )\n        public\n        virtual\n        override\n    {\n        require(to != address(0), \"ERC1155: transfer to the zero address\");\n\n\n        address operator = _msgSender();\n\n        _beforeTokenTransfer(operator, from, to, _asSingletonArray(id), _asSingletonArray(amount), data);\n\n        _balances[id][from] = _balances[id][from].sub(amount, \"ERC1155: insufficient balance for transfer\");\n        _balances[id][to] = _balances[id][to].add(amount);\n\n        emit TransferSingle(operator, from, to, id, amount);\n\n        _doSafeTransferAcceptanceCheck(operator, from, to, id, amount, data);\n    }\n\n    /**\n     * @dev See {IERC1155-safeBatchTransferFrom}.\n     */\n    function safeBatchTransferFrom(\n        address from,\n        address to,\n        uint256[] memory ids,\n        uint256[] memory amounts,\n        bytes memory data\n    )\n        public\n        virtual\n        override\n    {\n        require(ids.length == amounts.length, \"ERC1155: ids and amounts length mismatch\");\n        require(to != address(0), \"ERC1155: transfer to the zero address\");\n        require(\n            from == _msgSender() || isApprovedForAll(from, _msgSender()),\n            \"ERC1155: transfer caller is not owner nor approved\"\n        );\n\n        address operator = _msgSender();\n\n        _beforeTokenTransfer(operator, from, to, ids, amounts, data);\n\n        for (uint256 i = 0; i < ids.length; ++i) {\n            uint256 id = ids[i];\n            uint256 amount = amounts[i];\n\n            _balances[id][from] = _balances[id][from].sub(\n                amount,\n                \"ERC1155: insufficient balance for transfer\"\n            );\n            _balances[id][to] = _balances[id][to].add(amount);\n        }\n\n        emit TransferBatch(operator, from, to, ids, amounts);\n\n        _doSafeBatchTransferAcceptanceCheck(operator, from, to, ids, amounts, data);\n    }\n\n    /**\n     * @dev Sets a new URI for all token types, by relying on the token type ID\n     * substitution mechanism\n     * https://eips.ethereum.org/EIPS/eip-1155#metadata[defined in the EIP].\n     *\n     * By this mechanism, any occurrence of the `\\{id\\}` substring in either the\n     * URI or any of the amounts in the JSON file at said URI will be replaced by\n     * clients with the token type ID.\n     *\n     * For example, the `https://token-cdn-domain/\\{id\\}.json` URI would be\n     * interpreted by clients as\n     * `https://token-cdn-domain/000000000000000000000000000000000000000000000000000000000004cce0.json`\n     * for token type ID 0x4cce0.\n     *\n     * See {uri}.\n     *\n     * Because these URIs cannot be meaningfully represented by the {URI} event,\n     * this function emits no events.\n     */\n    function _setURI(string memory newuri) internal virtual {\n        _uri = newuri;\n    }\n\n    /**\n     * @dev Creates `amount` tokens of token type `id`, and assigns them to `account`.\n     *\n     * Emits a {TransferSingle} event.\n     *\n     * Requirements:\n     *\n     * - `account` cannot be the zero address.\n     * - If `account` refers to a smart contract, it must implement {IERC1155Receiver-onERC1155Received} and return the\n     * acceptance magic value.\n     */\n    function _mint(address account, uint256 id, uint256 amount, bytes memory data) internal virtual {\n        require(account != address(0), \"ERC1155: mint to the zero address\");\n\n        address operator = _msgSender();\n\n        _beforeTokenTransfer(operator, address(0), account, _asSingletonArray(id), _asSingletonArray(amount), data);\n\n        _balances[id][account] = _balances[id][account].add(amount);\n        emit TransferSingle(operator, address(0), account, id, amount);\n\n        _doSafeTransferAcceptanceCheck(operator, address(0), account, id, amount, data);\n    }\n\n    /**\n     * @dev xref:ROOT:erc1155.adoc#batch-operations[Batched] version of {_mint}.\n     *\n     * Requirements:\n     *\n     * - `ids` and `amounts` must have the same length.\n     * - If `to` refers to a smart contract, it must implement {IERC1155Receiver-onERC1155BatchReceived} and return the\n     * acceptance magic value.\n     */\n    function _mintBatch(address to, uint256[] memory ids, uint256[] memory amounts, bytes memory data) internal virtual {\n        require(to != address(0), \"ERC1155: mint to the zero address\");\n        require(ids.length == amounts.length, \"ERC1155: ids and amounts length mismatch\");\n\n        address operator = _msgSender();\n\n        _beforeTokenTransfer(operator, address(0), to, ids, amounts, data);\n\n        for (uint i = 0; i < ids.length; i++) {\n            _balances[ids[i]][to] = amounts[i].add(_balances[ids[i]][to]);\n        }\n\n        emit TransferBatch(operator, address(0), to, ids, amounts);\n\n        _doSafeBatchTransferAcceptanceCheck(operator, address(0), to, ids, amounts, data);\n    }\n\n    /**\n     * @dev Destroys `amount` tokens of token type `id` from `account`\n     *\n     * Requirements:\n     *\n     * - `account` cannot be the zero address.\n     * - `account` must have at least `amount` tokens of token type `id`.\n     */\n    function _burn(address account, uint256 id, uint256 amount) internal virtual {\n        require(account != address(0), \"ERC1155: burn from the zero address\");\n\n        address operator = _msgSender();\n\n        _beforeTokenTransfer(operator, account, address(0), _asSingletonArray(id), _asSingletonArray(amount), \"\");\n\n        _balances[id][account] = _balances[id][account].sub(\n            amount,\n            \"ERC1155: burn amount exceeds balance\"\n        );\n\n        emit TransferSingle(operator, account, address(0), id, amount);\n    }\n\n    /**\n     * @dev xref:ROOT:erc1155.adoc#batch-operations[Batched] version of {_burn}.\n     *\n     * Requirements:\n     *\n     * - `ids` and `amounts` must have the same length.\n     */\n    function _burnBatch(address account, uint256[] memory ids, uint256[] memory amounts) internal virtual {\n        require(account != address(0), \"ERC1155: burn from the zero address\");\n        require(ids.length == amounts.length, \"ERC1155: ids and amounts length mismatch\");\n\n        address operator = _msgSender();\n\n        _beforeTokenTransfer(operator, account, address(0), ids, amounts, \"\");\n\n        for (uint i = 0; i < ids.length; i++) {\n            _balances[ids[i]][account] = _balances[ids[i]][account].sub(\n                amounts[i],\n                \"ERC1155: burn amount exceeds balance\"\n            );\n        }\n\n        emit TransferBatch(operator, account, address(0), ids, amounts);\n    }\n\n    /**\n     * @dev Hook that is called before any token transfer. This includes minting\n     * and burning, as well as batched variants.\n     *\n     * The same hook is called on both single and batched variants. For single\n     * transfers, the length of the `id` and `amount` arrays will be 1.\n     *\n     * Calling conditions (for each `id` and `amount` pair):\n     *\n     * - When `from` and `to` are both non-zero, `amount` of ``from``'s tokens\n     * of token type `id` will be  transferred to `to`.\n     * - When `from` is zero, `amount` tokens of token type `id` will be minted\n     * for `to`.\n     * - when `to` is zero, `amount` of ``from``'s tokens of token type `id`\n     * will be burned.\n     * - `from` and `to` are never both zero.\n     * - `ids` and `amounts` have the same, non-zero length.\n     *\n     * To learn more about hooks, head to xref:ROOT:extending-contracts.adoc#using-hooks[Using Hooks].\n     */\n    function _beforeTokenTransfer(\n        address operator,\n        address from,\n        address to,\n        uint256[] memory ids,\n        uint256[] memory amounts,\n        bytes memory data\n    )\n        internal\n        virtual\n    { }\n\n    function _doSafeTransferAcceptanceCheck(\n        address operator,\n        address from,\n        address to,\n        uint256 id,\n        uint256 amount,\n        bytes memory data\n    )\n        private\n    {\n        if (to.isContract()) {\n            try IERC1155Receiver(to).onERC1155Received(operator, from, id, amount, data) returns (bytes4 response) {\n                if (response != IERC1155Receiver(to).onERC1155Received.selector) {\n                    revert(\"ERC1155: ERC1155Receiver rejected tokens\");\n                }\n            } catch Error(string memory reason) {\n                revert(reason);\n            } catch {\n                revert(\"ERC1155: transfer to non ERC1155Receiver implementer\");\n            }\n        }\n    }\n\n    function _doSafeBatchTransferAcceptanceCheck(\n        address operator,\n        address from,\n        address to,\n        uint256[] memory ids,\n        uint256[] memory amounts,\n        bytes memory data\n    )\n        private\n    {\n        if (to.isContract()) {\n            try IERC1155Receiver(to).onERC1155BatchReceived(operator, from, ids, amounts, data) returns (bytes4 response) {\n                if (response != IERC1155Receiver(to).onERC1155BatchReceived.selector) {\n                    revert(\"ERC1155: ERC1155Receiver rejected tokens\");\n                }\n            } catch Error(string memory reason) {\n                revert(reason);\n            } catch {\n                revert(\"ERC1155: transfer to non ERC1155Receiver implementer\");\n            }\n        }\n    }\n\n    function _asSingletonArray(uint256 element) private pure returns (uint256[] memory) {\n        uint256[] memory array = new uint256[](1);\n        array[0] = element;\n\n        return array;\n    }\n}\n\ncontract polyhess is ERC1155, Ownable {\n\n     uint8 winner;\n     address _owner;\n     uint tokencounter;\n     uint maxnft=75;\n     uint NFT_Price=10000;\n    mapping (uint256 => string) private _uris;\n\n    struct game {\n        address P1;\n        address P2;\n        uint amt;\n        uint nft_t1;\n        uint nft_t2;\n    }\n    mapping (uint=>game) public GameID;\n    uint gameID;\n\n\n\n    constructor() public ERC1155(\"\") {\n        _owner = msg.sender;\n        _mint (address(this), 0, 10**20, \"\");\n        tokencounter = 1;\n        gameID=0;\n    }\n\n    // Events\n      event Hess_Buy(\n        uint ethAMT,\n        address recipient\n        );\n      event ex_eth_hess(\n        uint ethAMT,\n        address recipient\n        );\n      event ex_NFT(\n        uint NFTid,\n        address To,\n        address From,\n        uint buy_price\n        );\n      event mint_NFT(\n        address TO,\n        uint NFTid,\n        uint amt\n        );\n      event mint_token(\n        uint AMT\n        );\n      event TOKEN_staking(\n        address F1,\n        address F2,\n        uint amt\n        );\n      event NFT_STAKE(\n        address F1,\n        address F2,\n        uint nftid1,\n        uint nftid2\n        );\n      event TOKEN_win(\n        address winner,\n        uint amt\n        );\n      event NFT_win(\n        address winner,\n        uint nftid1,\n        uint nftid2\n        );\n\n\n    // Functions\n      // To buy tokens from ethereum\n    function buy_hess(uint ethamount)public payable{\n        require(msg.value>=ethamount,\"Not enough token sent\");\n        uint amt = (msg.value)*5;\n        safeTransferFrom(address(this),msg.sender, 0, amt, \"\" );\n        emit Hess_Buy(ethamount, msg.sender);\n      }\n      // To exchange tokens from ethereum\n\n    function exchange_eth(uint hesstoken)public payable{\n        require(hesstoken > 1000, \" Not sufficient hesstoken sent\" );\n        safeTransferFrom(msg.sender, address(this), 0, hesstoken, \"\" );\n        uint amt = (hesstoken/550);\n\n        ((msg.sender).transfer)(amt);\n        emit ex_eth_hess(amt, msg.sender);\n      }\n     // To Set Token URIs\n    function uri(uint256 tokenId) override public view returns (string memory) {\n        return(_uris[tokenId]);}\n    function setTokenUri(uint256 tokenId, string memory uri) public onlyOwner {\n        require(bytes(_uris[tokenId]).length == 0, \"Cannot set uri twice\");\n        _uris[tokenId] = uri;}\n\n\n    function NFT_tran(uint256 tokenId, address _to, address _from, uint amt)public{\n        require(msg.sender==_from, \"You are not the owner of NFT\");\n        require(balanceOf(_to, 0)>=amt, \" Insufficent balance\");\n        require(balanceOf(_to, tokenId)==1, \" Address does not own this NFT\");\n        safeTransferFrom(_to, _from, tokenId, 1, \"\");\n        safeTransferFrom(_from, _to, 0, amt, \"\");\n        emit ex_NFT(tokenId, _to, _from, amt);\n      }\n    function minttoken(uint256 Amount) public  onlyOwner{\n        _mint(address(this), 0, Amount, \"\");\n        emit mint_token(Amount);\n    }\n\n    function mintNFT( uint256 amount)public {\n        require(tokencounter<=75, \"All NFTs are minted\");\n        require(amount>=NFT_Price, \"Price of NFT more than given\");\n        require(balanceOf(msg.sender,0)>=amount,\" Insufficent balance in account\");\n        setApprovalForAll(address(this),true);\n        safeTransferFrom(msg.sender, _owner, 0, amount,\"\");\n        _mint(msg.sender, tokencounter, 1,\"\");\n        tokencounter=tokencounter+1;\n        emit mint_NFT(msg.sender, tokencounter-1, amount);\n    }\n\n\n\n      function Token_staking(address p1, address p2, uint am1, uint am2) public {\n          require(am1>99&&am2>99, \"Stake amouunt more than 100\");\n          require( am1== am2,\"Both have not staked similar amount\");\n\n          safeTransferFrom(p1, address(this), 0, am1, \"0x00\");\n          safeTransferFrom(p2, address(this), 0, am1, \"0x00\");\n          gameID= gameID+1;\n          GameID[gameID].P1 = p1;\n          GameID[gameID].P2 = p2;\n          GameID[gameID].amt = am1;\n          emit TOKEN_staking( p1, p2, am1);\n      }\n      function win_TokenStaking(uint256 _gameID, uint gstatus) public {\n          require(gstatus>0&&gstatus<3, \"Wrong status provided\");\n          address WINNER;\n           if(gstatus==1){\n              WINNER = GameID[_gameID].P1;\n\n              safeTransferFrom(address(this), GameID[_gameID].P1, 0, (GameID[_gameID].amt)*2, \"0x00\");\n          }\n          else if(gstatus==2){\n              WINNER = GameID[_gameID].P2;\n\n\n              safeTransferFrom(address(this), GameID[_gameID].P2, 0, (GameID[_gameID].amt)*2, \"0x00\");\n          }\n          else if (gstatus==0){\n              WINNER = 0x0000000000000000000000000000000000000000;\n\n              safeTransferFrom(address(this), GameID[_gameID].P1, 0, GameID[_gameID].amt, \"0x00\");\n              safeTransferFrom(address(this), GameID[_gameID].P2, 0, GameID[_gameID].amt, \"0x00\");\n          }\n          emit TOKEN_win(WINNER, GameID[_gameID].amt);\n      }\n\n\n      function NFT_staking(address p1, address p2, uint id1, uint id2) public {\n          safeTransferFrom(p1, address(this), id1, 1, \"0x00\");\n          safeTransferFrom(p1, address(this), id2, 1, \"0x00\");\n          gameID= gameID+1;\n          GameID[gameID].P1 = p1;\n          GameID[gameID].P2 = p2;\n          GameID[gameID].nft_t1 = id1;\n          GameID[gameID].nft_t2 = id2;\n          emit NFT_STAKE( p1, p2, id1, id2);\n      }\n      function win_NFTStaking(uint256 _gameID, uint gstatus) public {\n          require(gstatus>0&&gstatus<3, \"Wrong status provided\");\n          address WINNER;\n           if(gstatus==1){\n              WINNER = GameID[_gameID].P1;\n              safeTransferFrom(address(this), GameID[_gameID].P1, GameID[_gameID].nft_t1, 1, \"0x00\");\n              safeTransferFrom(address(this), GameID[_gameID].P1, GameID[_gameID].nft_t2, 1, \"0x00\");\n          }\n          else if(gstatus==2){\n             WINNER = GameID[_gameID].P2;\n             safeTransferFrom(address(this), GameID[_gameID].P2, GameID[_gameID].nft_t1, 1, \"0x00\");\n             safeTransferFrom(address(this), GameID[_gameID].P2, GameID[_gameID].nft_t2, 1, \"0x00\");\n          }\n          else if (gstatus==0){\n              WINNER = 0x0000000000000000000000000000000000000000;\n              safeTransferFrom(address(this), GameID[_gameID].P1, GameID[_gameID].nft_t1, 1, \"0x00\");\n              safeTransferFrom(address(this), GameID[_gameID].P2, GameID[_gameID].nft_t2, 1, \"0x00\");\n          }\n          emit NFT_win(WINNER, GameID[_gameID].nft_t1, GameID[_gameID].nft_t1);\n      }\n\n      function Get_My_MONEY() public onlyOwner{\n          ((msg.sender).transfer)(address(this).balance);\n      }\n\n}\n",
  "sourcePath": "/Users/deepika/Desktop/ADITYA/polyess/contracts/SimpleStorage.sol",
  "compiler": {
    "name": "solc",
    "version": "0.7.6+commit.7338295f.Emscripten.clang"
  },
  "schemaVersion": "3.2.3",
  "updatedAt": "2021-12-08T14:32:23.150Z",
  "devdoc": {
    "kind": "dev",
    "methods": {
      "balanceOf(address,uint256)": {
        "details": "See {IERC1155-balanceOf}. Requirements: - `account` cannot be the zero address."
      },
      "balanceOfBatch(address[],uint256[])": {
        "details": "See {IERC1155-balanceOfBatch}. Requirements: - `accounts` and `ids` must have the same length."
      },
      "isApprovedForAll(address,address)": {
        "details": "See {IERC1155-isApprovedForAll}."
      },
      "owner()": {
        "details": "Returns the address of the current owner."
      },
      "renounceOwnership()": {
        "details": "Leaves the contract without owner. It will not be possible to call `onlyOwner` functions anymore. Can only be called by the current owner. NOTE: Renouncing ownership will leave the contract without an owner, thereby removing any functionality that is only available to the owner."
      },
      "safeBatchTransferFrom(address,address,uint256[],uint256[],bytes)": {
        "details": "See {IERC1155-safeBatchTransferFrom}."
      },
      "safeTransferFrom(address,address,uint256,uint256,bytes)": {
        "details": "See {IERC1155-safeTransferFrom}."
      },
      "setApprovalForAll(address,bool)": {
        "details": "See {IERC1155-setApprovalForAll}."
      },
      "supportsInterface(bytes4)": {
        "details": "See {IERC165-supportsInterface}. Time complexity O(1), guaranteed to always use less than 30 000 gas."
      },
      "transferOwnership(address)": {
        "details": "Transfers ownership of the contract to a new account (`newOwner`). Can only be called by the current owner."
      }
    },
    "version": 1
  },
  "userdoc": {
    "kind": "user",
    "methods": {},
    "version": 1
  }
}